{"abi":[{"type":"constructor","inputs":[],"stateMutability":"nonpayable"},{"type":"function","name":"DECAY_DENOMINATOR","inputs":[],"outputs":[{"name":"","type":"uint256","internalType":"uint256"}],"stateMutability":"view"},{"type":"function","name":"DECAY_NUMERATOR","inputs":[],"outputs":[{"name":"","type":"uint256","internalType":"uint256"}],"stateMutability":"view"},{"type":"function","name":"MAX_DEPTH","inputs":[],"outputs":[{"name":"","type":"uint256","internalType":"uint256"}],"stateMutability":"view"},{"type":"function","name":"WEIGHT_BPS","inputs":[],"outputs":[{"name":"","type":"uint256","internalType":"uint256"}],"stateMutability":"view"},{"type":"function","name":"delegateVote","inputs":[{"name":"delegate","type":"address","internalType":"address"},{"name":"weight","type":"uint256","internalType":"uint256"}],"outputs":[],"stateMutability":"nonpayable"},{"type":"function","name":"executeRoutedVote","inputs":[{"name":"proposalId","type":"uint256","internalType":"uint256"},{"name":"support","type":"bool","internalType":"bool"}],"outputs":[],"stateMutability":"nonpayable"},{"type":"function","name":"getDelegationGraph","inputs":[{"name":"voter","type":"address","internalType":"address"}],"outputs":[{"name":"chain","type":"tuple[]","internalType":"struct IIFDRouter.DelegationNode[]","components":[{"name":"delegate","type":"address","internalType":"address"},{"name":"weight","type":"uint256","internalType":"uint256"},{"name":"level","type":"uint256","internalType":"uint256"}]}],"stateMutability":"view"},{"type":"function","name":"getEffectiveWeight","inputs":[{"name":"voter","type":"address","internalType":"address"}],"outputs":[{"name":"totalWeight","type":"uint256","internalType":"uint256"}],"stateMutability":"view"},{"type":"function","name":"getIncomingWeight","inputs":[{"name":"delegate","type":"address","internalType":"address"}],"outputs":[{"name":"","type":"uint256","internalType":"uint256"}],"stateMutability":"view"},{"type":"function","name":"getPrimaryDelegate","inputs":[{"name":"delegator","type":"address","internalType":"address"}],"outputs":[{"name":"","type":"address","internalType":"address"}],"stateMutability":"view"},{"type":"function","name":"getProposalVotes","inputs":[{"name":"proposalId","type":"uint256","internalType":"uint256"}],"outputs":[{"name":"forVotes","type":"uint256","internalType":"uint256"},{"name":"againstVotes","type":"uint256","internalType":"uint256"}],"stateMutability":"view"},{"type":"function","name":"hasVoted","inputs":[{"name":"proposalId","type":"uint256","internalType":"uint256"},{"name":"voter","type":"address","internalType":"address"}],"outputs":[{"name":"","type":"bool","internalType":"bool"}],"stateMutability":"view"},{"type":"function","name":"owner","inputs":[],"outputs":[{"name":"","type":"address","internalType":"address"}],"stateMutability":"view"},{"type":"function","name":"proposalCount","inputs":[],"outputs":[{"name":"","type":"uint256","internalType":"uint256"}],"stateMutability":"view"},{"type":"function","name":"renounceOwnership","inputs":[],"outputs":[],"stateMutability":"nonpayable"},{"type":"function","name":"revokeDelegation","inputs":[{"name":"delegate","type":"address","internalType":"address"}],"outputs":[],"stateMutability":"nonpayable"},{"type":"function","name":"transferOwnership","inputs":[{"name":"newOwner","type":"address","internalType":"address"}],"outputs":[],"stateMutability":"nonpayable"},{"type":"event","name":"DelegationRevoked","inputs":[{"name":"delegator","type":"address","indexed":true,"internalType":"address"},{"name":"delegate","type":"address","indexed":true,"internalType":"address"}],"anonymous":false},{"type":"event","name":"OwnershipTransferred","inputs":[{"name":"previousOwner","type":"address","indexed":true,"internalType":"address"},{"name":"newOwner","type":"address","indexed":true,"internalType":"address"}],"anonymous":false},{"type":"event","name":"RoutedVoteExecuted","inputs":[{"name":"proposalId","type":"uint256","indexed":true,"internalType":"uint256"},{"name":"voter","type":"address","indexed":true,"internalType":"address"},{"name":"support","type":"bool","indexed":false,"internalType":"bool"},{"name":"totalWeight","type":"uint256","indexed":false,"internalType":"uint256"}],"anonymous":false},{"type":"event","name":"VoteDelegated","inputs":[{"name":"delegator","type":"address","indexed":true,"internalType":"address"},{"name":"delegate","type":"address","indexed":true,"internalType":"address"},{"name":"weight","type":"uint256","indexed":false,"internalType":"uint256"}],"anonymous":false},{"type":"error","name":"AlreadyVoted","inputs":[{"name":"voter","type":"address","internalType":"address"},{"name":"proposalId","type":"uint256","internalType":"uint256"}]},{"type":"error","name":"CircularDelegation","inputs":[{"name":"delegator","type":"address","internalType":"address"},{"name":"delegate","type":"address","internalType":"address"}]},{"type":"error","name":"DelegationNotFound","inputs":[{"name":"delegator","type":"address","internalType":"address"},{"name":"delegate","type":"address","internalType":"address"}]},{"type":"error","name":"InvalidWeight","inputs":[{"name":"weight","type":"uint256","internalType":"uint256"}]},{"type":"error","name":"MaxDelegationDepthExceeded","inputs":[{"name":"depth","type":"uint256","internalType":"uint256"}]},{"type":"error","name":"OwnableInvalidOwner","inputs":[{"name":"owner","type":"address","internalType":"address"}]},{"type":"error","name":"OwnableUnauthorizedAccount","inputs":[{"name":"account","type":"address","internalType":"address"}]},{"type":"error","name":"SelfDelegation","inputs":[]},{"type":"error","name":"ZeroAddress","inputs":[]}],"bytecode":{"object":"0x608060405234801561001057600080fd5b50338061003757604051631e4fbdf760e01b81526000600482015260240160405180910390fd5b61004081610046565b50610096565b600080546001600160a01b038381166001600160a01b0319831681178455604051919092169283917f8be0079c531659141344cd1fd0a4f28419497f9722a3daafe3b4186f6b6457e09190a35050565b610f71806100a56000396000f3fe608060405234801561001057600080fd5b506004361061010b5760003560e01c80638da5cb5b116100a2578063ae48bfdf11610071578063ae48bfdf1461024c578063da35c66414610275578063ee7eb5031461027e578063f2fde38b1461029e578063fd24f834146102b157600080fd5b80638da5cb5b1461020d578063926f73271461021e5780639988e6ff14610231578063a27154ba1461024457600080fd5b8063715018a6116100de578063715018a6146101a3578063808d5014146101ad57806389622d6c146101c05780638d57d748146101c957600080fd5b80633f25575f14610110578063438596321461012b57806347c661401461014e57806348b9753214610190575b600080fd5b610118600a81565b6040519081526020015b60405180910390f35b61013e610139366004610d43565b6102b9565b6040519015158152602001610122565b61017b61015c366004610d6f565b6000908152600560209081526040808320546006909252909120549091565b60408051928352602083019190915201610122565b61011861019e366004610d88565b6102e6565b6101ab6102fe565b005b6101ab6101bb366004610d88565b610312565b61011861271081565b6101f56101d7366004610d88565b6001600160a01b039081166000908152600860205260409020541690565b6040516001600160a01b039091168152602001610122565b6000546001600160a01b03166101f5565b6101ab61022c366004610daa565b61043d565b6101ab61023f366004610dd4565b6106bb565b610118600381565b61011861025a366004610d88565b6001600160a01b031660009081526003602052604090205490565b61011860075481565b61029161028c366004610d88565b6107bf565b6040516101229190610e09565b6101ab6102ac366004610d88565b6109e1565b610118600881565b60008281526004602090815260408083206001600160a01b038516845290915290205460ff165b92915050565b6127106102f4826001610a1f565b6102e09082610e81565b610306610ac2565b6103106000610aef565b565b3360009081526001602090815260408083206001600160a01b03851684529091529020600281015460ff16610370576040516309078cff60e21b81523360048201526001600160a01b03831660248201526044015b60405180910390fd5b60018101546001600160a01b0383166000908152600360205260408120805483929061039d908490610e94565b90915550503360008181526001602081815260408084206001600160a01b0389168552825280842080546001600160a01b03199081168255938101859055600201805460ff191690558484526008909152909120805490911690556104029084610b3f565b6040516001600160a01b0384169033907f6f0412fa95f7f48ec7dc7631b382833d8eae9cf4082e5e859b94d091a4a846d490600090a3505050565b336001600160a01b03831603610466576040516352e0d04760e01b815260040160405180910390fd5b6001600160a01b03821661048d5760405163d92e233d60e01b815260040160405180910390fd5b80158061049b575061271081115b156104bc57604051630d3f109960e31b815260048101829052602401610367565b6001600160a01b0382811660009081526008602052604090205433911603610508576040516319db9aaf60e31b81523360048201526001600160a01b0383166024820152604401610367565b610513826001610c5c565b3360009081526001602090815260408083206001600160a01b03861684529091529020600281015460ff166105fc573360008181526002602081815260408084208054600181810183559186528386200180546001600160a01b038b81166001600160a01b0319928316811790935584516060810186528381528087018c81528187018681529a8a52858852868a20948a5293875285892090518154921691909216178155905191810191909155945194909201805494151560ff1990951694909417909355600390925290812080548492906105f1908490610e81565b909155506106539050565b60018101546001600160a01b0384166000908152600360205260409020548390610627908390610e94565b6106319190610e81565b6001600160a01b03851660009081526003602052604090205550600181018290555b3360008181526008602090815260409182902080546001600160a01b0319166001600160a01b03881690811790915591518581529192917ff5c2b450c3b6c4c3cc8c45e612ffa5ce51cda974e8b2ecaf58abda86d896584791015b60405180910390a3505050565b600082815260046020908152604080832033845290915290205460ff16156106ff57604051631bdd6e5960e11b815233600482015260248101839052604401610367565b600061070a336102e6565b60008481526004602090815260408083203384529091529020805460ff191660011790559050811561075f5760008381526005602052604081208054839290610754908490610e81565b909155506107839050565b6000838152600660205260408120805483929061077d908490610e81565b90915550505b60408051831515815260208101839052339185917f957489bb52d243e0bcbc35ecd48d01ceddaa6fa2c965e02841deb2d8183f05eb91016106ae565b6040805160038082526080820190925260609160009190816020015b610808604051806060016040528060006001600160a01b0316815260200160008152602001600081525090565b8152602001906001900390816107db579050509050600083815b6003811015610913576001600160a01b0380831660009081526008602052604090205416806108515750610913565b6001600160a01b038084166000908152600160209081526040808320938516835292905220600281015460ff16610889575050610913565b60006108a582600101548560016108a09190610e81565b610cbb565b90506040518060600160405280846001600160a01b031681526020018281526020018560016108d49190610e81565b8152508785815181106108e9576108e9610ebd565b602002602001018190525085806108ff90610ed3565b965092945050600190920191506108229050565b508167ffffffffffffffff81111561092d5761092d610ea7565b60405190808252806020026020018201604052801561098b57816020015b610978604051806060016040528060006001600160a01b0316815260200160008152602001600081525090565b81526020019060019003908161094b5790505b50935060005b828110156109d8578381815181106109ab576109ab610ebd565b60200260200101518582815181106109c5576109c5610ebd565b6020908102919091010152600101610991565b50505050919050565b6109e9610ac2565b6001600160a01b038116610a1357604051631e4fbdf760e01b815260006004820152602401610367565b610a1c81610aef565b50565b60006003821115610a32575060006102e0565b6001600160a01b03831660009081526003602052604081205490819003610a5d5760009150506102e0565b610a678184610cbb565b6001600160a01b03808616600090815260086020526040902054919350168015801590610a945750600384105b15610aba57610aad81610aa8866001610e81565b610a1f565b610ab79084610e81565b92505b505092915050565b6000546001600160a01b031633146103105760405163118cdaa760e01b8152336004820152602401610367565b600080546001600160a01b038381166001600160a01b0319831681178455604051919092169283917f8be0079c531659141344cd1fd0a4f28419497f9722a3daafe3b4186f6b6457e09190a35050565b6001600160a01b0382166000908152600260205260408120905b8154811015610c5657826001600160a01b0316828281548110610b7e57610b7e610ebd565b6000918252602090912001546001600160a01b031603610c4e5781548290610ba890600190610e94565b81548110610bb857610bb8610ebd565b9060005260206000200160009054906101000a90046001600160a01b0316828281548110610be857610be8610ebd565b9060005260206000200160006101000a8154816001600160a01b0302191690836001600160a01b0316021790555081805480610c2657610c26610eec565b600082815260209020810160001990810180546001600160a01b031916905501905550505050565b600101610b59565b50505050565b6003811115610c815760405163c176734b60e01b815260048101829052602401610367565b6001600160a01b03808316600090815260086020526040902054168015610cb657610cb681610cb1846001610e81565b610c5c565b505050565b600081600003610ccc5750816102e0565b81600103610cf257600a610ce1846008610f02565b610ceb9190610f19565b90506102e0565b81600203610d07576064610ce1846040610f02565b81600303610d1e576103e8610ce184610200610f02565b50600092915050565b80356001600160a01b0381168114610d3e57600080fd5b919050565b60008060408385031215610d5657600080fd5b82359150610d6660208401610d27565b90509250929050565b600060208284031215610d8157600080fd5b5035919050565b600060208284031215610d9a57600080fd5b610da382610d27565b9392505050565b60008060408385031215610dbd57600080fd5b610dc683610d27565b946020939093013593505050565b60008060408385031215610de757600080fd5b8235915060208301358015158114610dfe57600080fd5b809150509250929050565b602080825282518282018190526000919060409081850190868401855b82811015610e5e57815180516001600160a01b0316855286810151878601528501518585015260609093019290850190600101610e26565b5091979650505050505050565b634e487b7160e01b600052601160045260246000fd5b808201808211156102e0576102e0610e6b565b818103818111156102e0576102e0610e6b565b634e487b7160e01b600052604160045260246000fd5b634e487b7160e01b600052603260045260246000fd5b600060018201610ee557610ee5610e6b565b5060010190565b634e487b7160e01b600052603160045260246000fd5b80820281158282048414176102e0576102e0610e6b565b600082610f3657634e487b7160e01b600052601260045260246000fd5b50049056fea26469706673582212209f64638f933b0a74fcea08c464feba15b8c011605394065ca18abc073c221f9a64736f6c63430008180033","linkReferences":{}},"methodIdentifiers":{"DECAY_DENOMINATOR()":"3f25575f","DECAY_NUMERATOR()":"fd24f834","MAX_DEPTH()":"a27154ba","WEIGHT_BPS()":"89622d6c","delegateVote(address,uint256)":"926f7327","executeRoutedVote(uint256,bool)":"9988e6ff","getDelegationGraph(address)":"ee7eb503","getEffectiveWeight(address)":"48b97532","getIncomingWeight(address)":"ae48bfdf","getPrimaryDelegate(address)":"8d57d748","getProposalVotes(uint256)":"47c66140","hasVoted(uint256,address)":"43859632","owner()":"8da5cb5b","proposalCount()":"da35c664","renounceOwnership()":"715018a6","revokeDelegation(address)":"808d5014","transferOwnership(address)":"f2fde38b"},"id":55}