{"abi":[{"type":"constructor","inputs":[],"stateMutability":"nonpayable"},{"type":"function","name":"LP_BURN_DENOMINATOR","inputs":[],"outputs":[{"name":"","type":"uint256","internalType":"uint256"}],"stateMutability":"view"},{"type":"function","name":"LP_BURN_NUMERATOR","inputs":[],"outputs":[{"name":"","type":"uint256","internalType":"uint256"}],"stateMutability":"view"},{"type":"function","name":"LP_MINT_DENOMINATOR","inputs":[],"outputs":[{"name":"","type":"uint256","internalType":"uint256"}],"stateMutability":"view"},{"type":"function","name":"LP_MINT_NUMERATOR","inputs":[],"outputs":[{"name":"","type":"uint256","internalType":"uint256"}],"stateMutability":"view"},{"type":"function","name":"MIN_LOCK_TIME","inputs":[],"outputs":[{"name":"","type":"uint256","internalType":"uint256"}],"stateMutability":"view"},{"type":"function","name":"allowance","inputs":[{"name":"owner","type":"address","internalType":"address"},{"name":"spender","type":"address","internalType":"address"}],"outputs":[{"name":"","type":"uint256","internalType":"uint256"}],"stateMutability":"view"},{"type":"function","name":"approve","inputs":[{"name":"spender","type":"address","internalType":"address"},{"name":"value","type":"uint256","internalType":"uint256"}],"outputs":[{"name":"","type":"bool","internalType":"bool"}],"stateMutability":"nonpayable"},{"type":"function","name":"balanceOf","inputs":[{"name":"account","type":"address","internalType":"address"}],"outputs":[{"name":"","type":"uint256","internalType":"uint256"}],"stateMutability":"view"},{"type":"function","name":"decimals","inputs":[],"outputs":[{"name":"","type":"uint8","internalType":"uint8"}],"stateMutability":"view"},{"type":"function","name":"deposit","inputs":[{"name":"token","type":"address","internalType":"address"},{"name":"amount","type":"uint256","internalType":"uint256"}],"outputs":[{"name":"lpAmount","type":"uint256","internalType":"uint256"}],"stateMutability":"nonpayable"},{"type":"function","name":"getTokenDeposits","inputs":[{"name":"token","type":"address","internalType":"address"}],"outputs":[{"name":"deposits","type":"uint256","internalType":"uint256"}],"stateMutability":"view"},{"type":"function","name":"getUserDeposits","inputs":[{"name":"token","type":"address","internalType":"address"},{"name":"user","type":"address","internalType":"address"}],"outputs":[{"name":"deposits","type":"uint256","internalType":"uint256"}],"stateMutability":"view"},{"type":"function","name":"getVaultState","inputs":[],"outputs":[{"name":"state","type":"tuple","internalType":"struct ITokenVault.VaultState","components":[{"name":"totalDeposits","type":"uint256","internalType":"uint256"},{"name":"lpSupply","type":"uint256","internalType":"uint256"},{"name":"utilizationRate","type":"uint256","internalType":"uint256"}]}],"stateMutability":"view"},{"type":"function","name":"name","inputs":[],"outputs":[{"name":"","type":"string","internalType":"string"}],"stateMutability":"view"},{"type":"function","name":"owner","inputs":[],"outputs":[{"name":"","type":"address","internalType":"address"}],"stateMutability":"view"},{"type":"function","name":"renounceOwnership","inputs":[],"outputs":[],"stateMutability":"nonpayable"},{"type":"function","name":"setTokenSupport","inputs":[{"name":"token","type":"address","internalType":"address"},{"name":"supported","type":"bool","internalType":"bool"}],"outputs":[],"stateMutability":"nonpayable"},{"type":"function","name":"supportedTokens","inputs":[{"name":"","type":"address","internalType":"address"}],"outputs":[{"name":"","type":"bool","internalType":"bool"}],"stateMutability":"view"},{"type":"function","name":"symbol","inputs":[],"outputs":[{"name":"","type":"string","internalType":"string"}],"stateMutability":"view"},{"type":"function","name":"totalSupply","inputs":[],"outputs":[{"name":"","type":"uint256","internalType":"uint256"}],"stateMutability":"view"},{"type":"function","name":"transfer","inputs":[{"name":"to","type":"address","internalType":"address"},{"name":"value","type":"uint256","internalType":"uint256"}],"outputs":[{"name":"","type":"bool","internalType":"bool"}],"stateMutability":"nonpayable"},{"type":"function","name":"transferFrom","inputs":[{"name":"from","type":"address","internalType":"address"},{"name":"to","type":"address","internalType":"address"},{"name":"value","type":"uint256","internalType":"uint256"}],"outputs":[{"name":"","type":"bool","internalType":"bool"}],"stateMutability":"nonpayable"},{"type":"function","name":"transferOwnership","inputs":[{"name":"newOwner","type":"address","internalType":"address"}],"outputs":[],"stateMutability":"nonpayable"},{"type":"function","name":"withdraw","inputs":[{"name":"token","type":"address","internalType":"address"},{"name":"lpAmount","type":"uint256","internalType":"uint256"}],"outputs":[{"name":"withdrawAmount","type":"uint256","internalType":"uint256"}],"stateMutability":"nonpayable"},{"type":"event","name":"Approval","inputs":[{"name":"owner","type":"address","indexed":true,"internalType":"address"},{"name":"spender","type":"address","indexed":true,"internalType":"address"},{"name":"value","type":"uint256","indexed":false,"internalType":"uint256"}],"anonymous":false},{"type":"event","name":"Deposited","inputs":[{"name":"token","type":"address","indexed":true,"internalType":"address"},{"name":"depositor","type":"address","indexed":true,"internalType":"address"},{"name":"amount","type":"uint256","indexed":false,"internalType":"uint256"},{"name":"lpMinted","type":"uint256","indexed":false,"internalType":"uint256"}],"anonymous":false},{"type":"event","name":"FlashLoanBlocked","inputs":[{"name":"depositor","type":"address","indexed":true,"internalType":"address"},{"name":"blockNumber","type":"uint256","indexed":false,"internalType":"uint256"}],"anonymous":false},{"type":"event","name":"OwnershipTransferred","inputs":[{"name":"previousOwner","type":"address","indexed":true,"internalType":"address"},{"name":"newOwner","type":"address","indexed":true,"internalType":"address"}],"anonymous":false},{"type":"event","name":"Transfer","inputs":[{"name":"from","type":"address","indexed":true,"internalType":"address"},{"name":"to","type":"address","indexed":true,"internalType":"address"},{"name":"value","type":"uint256","indexed":false,"internalType":"uint256"}],"anonymous":false},{"type":"event","name":"Withdrawn","inputs":[{"name":"token","type":"address","indexed":true,"internalType":"address"},{"name":"withdrawer","type":"address","indexed":true,"internalType":"address"},{"name":"lpBurned","type":"uint256","indexed":false,"internalType":"uint256"},{"name":"amountWithdrawn","type":"uint256","indexed":false,"internalType":"uint256"}],"anonymous":false},{"type":"error","name":"ERC20InsufficientAllowance","inputs":[{"name":"spender","type":"address","internalType":"address"},{"name":"allowance","type":"uint256","internalType":"uint256"},{"name":"needed","type":"uint256","internalType":"uint256"}]},{"type":"error","name":"ERC20InsufficientBalance","inputs":[{"name":"sender","type":"address","internalType":"address"},{"name":"balance","type":"uint256","internalType":"uint256"},{"name":"needed","type":"uint256","internalType":"uint256"}]},{"type":"error","name":"ERC20InvalidApprover","inputs":[{"name":"approver","type":"address","internalType":"address"}]},{"type":"error","name":"ERC20InvalidReceiver","inputs":[{"name":"receiver","type":"address","internalType":"address"}]},{"type":"error","name":"ERC20InvalidSender","inputs":[{"name":"sender","type":"address","internalType":"address"}]},{"type":"error","name":"ERC20InvalidSpender","inputs":[{"name":"spender","type":"address","internalType":"address"}]},{"type":"error","name":"FlashLoanDetected","inputs":[{"name":"depositor","type":"address","internalType":"address"}]},{"type":"error","name":"InsufficientBalance","inputs":[{"name":"token","type":"address","internalType":"address"},{"name":"requested","type":"uint256","internalType":"uint256"},{"name":"available","type":"uint256","internalType":"uint256"}]},{"type":"error","name":"InsufficientLpBalance","inputs":[{"name":"requested","type":"uint256","internalType":"uint256"},{"name":"available","type":"uint256","internalType":"uint256"}]},{"type":"error","name":"OwnableInvalidOwner","inputs":[{"name":"owner","type":"address","internalType":"address"}]},{"type":"error","name":"OwnableUnauthorizedAccount","inputs":[{"name":"account","type":"address","internalType":"address"}]},{"type":"error","name":"ReentrancyGuardReentrantCall","inputs":[]},{"type":"error","name":"TokenNotSupported","inputs":[{"name":"token","type":"address","internalType":"address"}]},{"type":"error","name":"TransferFailed","inputs":[]},{"type":"error","name":"ZeroAddress","inputs":[]},{"type":"error","name":"ZeroDeposit","inputs":[]},{"type":"error","name":"ZeroWithdraw","inputs":[]}],"bytecode":{"object":"0x60806040523480156200001157600080fd5b50336040518060400160405280600b81526020016a2121102628102a37b5b2b760a91b81525060405180604001604052806004815260200163042424c560e41b8152508160039081620000659190620001b6565b506004620000748282620001b6565b5050506001600160a01b038116620000a657604051631e4fbdf760e01b81526000600482015260240160405180910390fd5b620000b181620000bd565b50600160065562000282565b600580546001600160a01b038381166001600160a01b0319831681179093556040519116919082907f8be0079c531659141344cd1fd0a4f28419497f9722a3daafe3b4186f6b6457e090600090a35050565b634e487b7160e01b600052604160045260246000fd5b600181811c908216806200013a57607f821691505b6020821081036200015b57634e487b7160e01b600052602260045260246000fd5b50919050565b601f821115620001b1576000816000526020600020601f850160051c810160208610156200018c5750805b601f850160051c820191505b81811015620001ad5782815560010162000198565b5050505b505050565b81516001600160401b03811115620001d257620001d26200010f565b620001ea81620001e3845462000125565b8462000161565b602080601f831160018114620002225760008415620002095750858301515b600019600386901b1c1916600185901b178555620001ad565b600085815260208120601f198616915b82811015620002535788860151825594840194600190910190840162000232565b5085821015620002725787850151600019600388901b60f8161c191681555b5050505050600190811b01905550565b6112b980620002926000396000f3fe608060405234801561001057600080fd5b50600436106101585760003560e01c8063715018a6116100c3578063a9eda6d91161007c578063a9eda6d9146102f7578063accb22e1146102ff578063dd62ed3e14610328578063df5a526714610361578063f2fde38b14610369578063f3fef3a31461037c57600080fd5b8063715018a61461028057806374506fd4146101e75780638da5cb5b1461028857806395d89b41146102a35780639d4e85ce146102ab578063a9059cbb146102e457600080fd5b80633fede79d116101155780633fede79d146101e75780633ff03207146101ef57806347e7ef24146101f75780634a8c110a1461020a57806368c4ac261461023457806370a082311461025757600080fd5b806306fdde031461015d578063095ea7b31461017b5780630c6a753f1461019e57806318160ddd146101b357806323b872dd146101c5578063313ce567146101d8575b600080fd5b61016561038f565b6040516101729190611033565b60405180910390f35b61018e61018936600461109e565b610421565b6040519015158152602001610172565b6101b16101ac3660046110d6565b61043b565b005b6002545b604051908152602001610172565b61018e6101d336600461110d565b610495565b60405160128152602001610172565b6101b7606481565b6101b7600181565b6101b761020536600461109e565b6104b9565b6102126107f8565b6040805182518152602080840151908201529181015190820152606001610172565b61018e610242366004611149565b600a6020526000908152604090205460ff1681565b6101b7610265366004611149565b6001600160a01b031660009081526020819052604090205490565b6101b161085d565b6005546040516001600160a01b039091168152602001610172565b610165610871565b6101b76102b936600461116b565b6001600160a01b03918216600090815260086020908152604080832093909416825291909152205490565b61018e6102f236600461109e565b610880565b6101b7606981565b6101b761030d366004611149565b6001600160a01b031660009081526007602052604090205490565b6101b761033636600461116b565b6001600160a01b03918216600090815260016020908152604080832093909416825291909152205490565b6101b7605f81565b6101b1610377366004611149565b61088e565b6101b761038a36600461109e565b6108cc565b60606003805461039e9061119e565b80601f01602080910402602001604051908101604052809291908181526020018280546103ca9061119e565b80156104175780601f106103ec57610100808354040283529160200191610417565b820191906000526020600020905b8154815290600101906020018083116103fa57829003601f168201915b5050505050905090565b60003361042f818585610bb4565b60019150505b92915050565b610443610bc6565b6001600160a01b03821661046a5760405163d92e233d60e01b815260040160405180910390fd5b6001600160a01b03919091166000908152600a60205260409020805460ff1916911515919091179055565b6000336104a3858285610bf3565b6104ae858585610c72565b506001949350505050565b60006104c3610cd1565b816000036104e4576040516356316e8760e01b815260040160405180910390fd5b6001600160a01b0383166000908152600a602052604090205460ff1661052d576040516306439c6b60e01b81526001600160a01b03841660048201526024015b60405180910390fd5b3360009081526009602052604090205442900361055f5760405163078f5fc160e01b8152336004820152602401610524565b61056882610cfb565b90508060000361058b576040516356316e8760e01b815260040160405180910390fd5b6040516370a0823160e01b815230600482015283906000906001600160a01b038316906370a0823190602401602060405180830381865afa1580156105d4573d6000803e3d6000fd5b505050506040513d601f19601f820116820180604052508101906105f891906111d8565b6040516323b872dd60e01b8152336004820152306024820152604481018690529091506001600160a01b038316906323b872dd906064016020604051808303816000875af115801561064e573d6000803e3d6000fd5b505050506040513d601f19601f8201168201806040525081019061067291906111f1565b61068f576040516312171d8360e31b815260040160405180910390fd5b6040516370a0823160e01b815230600482015260009082906001600160a01b038516906370a0823190602401602060405180830381865afa1580156106d8573d6000803e3d6000fd5b505050506040513d601f19601f820116820180604052508101906106fc91906111d8565b6107069190611224565b6001600160a01b038716600090815260076020526040812080549293508392909190610733908490611237565b90915550506001600160a01b03861660009081526008602090815260408083203384529091528120805483929061076b908490611237565b9250508190555083600b60008282546107849190611237565b90915550503360008181526009602052604090204290556107a59085610d14565b604080518281526020810186905233916001600160a01b038916917ff5681f9d0db1b911ac18ee83d515a1cf1051853a9eae418316a2fdf7dea427c5910160405180910390a35050506104356001600655565b61081c60405180606001604052806000815260200160008152602001600081525090565b60405180606001604052806000600b541161083857600061083b565b60005b815260200161084960025490565b8152602001610856610d4e565b9052919050565b610865610bc6565b61086f6000610d9d565b565b60606004805461039e9061119e565b60003361042f818585610c72565b610896610bc6565b6001600160a01b0381166108c057604051631e4fbdf760e01b815260006004820152602401610524565b6108c981610d9d565b50565b60006108d6610cd1565b816000036108f75760405163b8cb621960e01b815260040160405180910390fd5b6001600160a01b0383166000908152600a602052604090205460ff1661093b576040516306439c6b60e01b81526001600160a01b0384166004820152602401610524565b3360009081526020819052604090205482111561098657336000908152602081905260409020548290604051632ab8350360e01b815260048101929092526024820152604401610524565b61098f82610def565b6001600160a01b0384166000908152600760205260409020549091508111156109f5576001600160a01b0383166000818152600760205260409081902054905163db42144d60e01b81526004810192909252602482018390526044820152606401610524565b6001600160a01b03831660009081526007602052604081208054839290610a1d908490611224565b90915550506001600160a01b03831660009081526008602090815260408083203384529091529020548111610a525780610a77565b6001600160a01b03831660009081526008602090815260408083203384529091529020545b6001600160a01b038416600090815260086020908152604080832033845290915281208054909190610aaa908490611224565b9250508190555081600b6000828254610ac39190611224565b90915550610ad390503383610dfe565b60405163a9059cbb60e01b81523360048201526024810182905283906001600160a01b0382169063a9059cbb906044016020604051808303816000875af1158015610b22573d6000803e3d6000fd5b505050506040513d601f19601f82011682018060405250810190610b4691906111f1565b610b63576040516312171d8360e31b815260040160405180910390fd5b604080518481526020810184905233916001600160a01b038716917f91fb9d98b786c57d74c099ccd2beca1739e9f6a81fb49001ca465c4b7591bbe2910160405180910390a3506104356001600655565b610bc18383836001610e34565b505050565b6005546001600160a01b0316331461086f5760405163118cdaa760e01b8152336004820152602401610524565b6001600160a01b03838116600090815260016020908152604080832093861683529290522054600019811015610c6c5781811015610c5d57604051637dc7a0d960e11b81526001600160a01b03841660048201526024810182905260448101839052606401610524565b610c6c84848484036000610e34565b50505050565b6001600160a01b038316610c9c57604051634b637e8f60e11b815260006004820152602401610524565b6001600160a01b038216610cc65760405163ec442f0560e01b815260006004820152602401610524565b610bc1838383610f09565b600260065403610cf457604051633ee5aeb560e01b815260040160405180910390fd5b6002600655565b60006064610d0a83605f61124a565b6104359190611261565b6001600160a01b038216610d3e5760405163ec442f0560e01b815260006004820152602401610524565b610d4a60008383610f09565b5050565b600080610d5a60025490565b905080600003610d6c57600091505090565b600b54600003610d7e57600091505090565b600b54610d8d6127108361124a565b610d979190611261565b91505090565b600580546001600160a01b038381166001600160a01b0319831681179093556040519116919082907f8be0079c531659141344cd1fd0a4f28419497f9722a3daafe3b4186f6b6457e090600090a35050565b60006064610d0a83606961124a565b6001600160a01b038216610e2857604051634b637e8f60e11b815260006004820152602401610524565b610d4a82600083610f09565b6001600160a01b038416610e5e5760405163e602df0560e01b815260006004820152602401610524565b6001600160a01b038316610e8857604051634a1406b160e11b815260006004820152602401610524565b6001600160a01b0380851660009081526001602090815260408083209387168352929052208290558015610c6c57826001600160a01b0316846001600160a01b03167f8c5be1e5ebec7d5bd14f71427d1e84f3dd0314c0f7b2291e5b200ac8c7c3b92584604051610efb91815260200190565b60405180910390a350505050565b6001600160a01b038316610f34578060026000828254610f299190611237565b90915550610fa69050565b6001600160a01b03831660009081526020819052604090205481811015610f875760405163391434e360e21b81526001600160a01b03851660048201526024810182905260448101839052606401610524565b6001600160a01b03841660009081526020819052604090209082900390555b6001600160a01b038216610fc257600280548290039055610fe1565b6001600160a01b03821660009081526020819052604090208054820190555b816001600160a01b0316836001600160a01b03167fddf252ad1be2c89b69c2b068fc378daa952ba7f163c4a11628f55a4df523b3ef8360405161102691815260200190565b60405180910390a3505050565b60006020808352835180602085015260005b8181101561106157858101830151858201604001528201611045565b506000604082860101526040601f19601f8301168501019250505092915050565b80356001600160a01b038116811461109957600080fd5b919050565b600080604083850312156110b157600080fd5b6110ba83611082565b946020939093013593505050565b80151581146108c957600080fd5b600080604083850312156110e957600080fd5b6110f283611082565b91506020830135611102816110c8565b809150509250929050565b60008060006060848603121561112257600080fd5b61112b84611082565b925061113960208501611082565b9150604084013590509250925092565b60006020828403121561115b57600080fd5b61116482611082565b9392505050565b6000806040838503121561117e57600080fd5b61118783611082565b915061119560208401611082565b90509250929050565b600181811c908216806111b257607f821691505b6020821081036111d257634e487b7160e01b600052602260045260246000fd5b50919050565b6000602082840312156111ea57600080fd5b5051919050565b60006020828403121561120357600080fd5b8151611164816110c8565b634e487b7160e01b600052601160045260246000fd5b818103818111156104355761043561120e565b808201808211156104355761043561120e565b80820281158282048414176104355761043561120e565b60008261127e57634e487b7160e01b600052601260045260246000fd5b50049056fea26469706673582212203792f521c1ff459b1faef167540c262763ebbc8d4d4d319045be3777b7f53ac764736f6c63430008180033","linkReferences":{}},"methodIdentifiers":{"LP_BURN_DENOMINATOR()":"3fede79d","LP_BURN_NUMERATOR()":"a9eda6d9","LP_MINT_DENOMINATOR()":"74506fd4","LP_MINT_NUMERATOR()":"df5a5267","MIN_LOCK_TIME()":"3ff03207","allowance(address,address)":"dd62ed3e","approve(address,uint256)":"095ea7b3","balanceOf(address)":"70a08231","decimals()":"313ce567","deposit(address,uint256)":"47e7ef24","getTokenDeposits(address)":"accb22e1","getUserDeposits(address,address)":"9d4e85ce","getVaultState()":"4a8c110a","name()":"06fdde03","owner()":"8da5cb5b","renounceOwnership()":"715018a6","setTokenSupport(address,bool)":"0c6a753f","supportedTokens(address)":"68c4ac26","symbol()":"95d89b41","totalSupply()":"18160ddd","transfer(address,uint256)":"a9059cbb","transferFrom(address,address,uint256)":"23b872dd","transferOwnership(address)":"f2fde38b","withdraw(address,uint256)":"f3fef3a3"},"id":59}