{"abi":[{"type":"constructor","inputs":[],"stateMutability":"nonpayable"},{"type":"function","name":"DEFAULT_ADMIN_ROLE","inputs":[],"outputs":[{"name":"","type":"bytes32","internalType":"bytes32"}],"stateMutability":"view"},{"type":"function","name":"HEARTBEAT","inputs":[],"outputs":[{"name":"","type":"uint256","internalType":"uint256"}],"stateMutability":"view"},{"type":"function","name":"MAX_DEVIATION_BPS","inputs":[],"outputs":[{"name":"","type":"uint256","internalType":"uint256"}],"stateMutability":"view"},{"type":"function","name":"MAX_SUBMISSIONS","inputs":[],"outputs":[{"name":"","type":"uint8","internalType":"uint8"}],"stateMutability":"view"},{"type":"function","name":"MIN_SUBMISSIONS","inputs":[],"outputs":[{"name":"","type":"uint8","internalType":"uint8"}],"stateMutability":"view"},{"type":"function","name":"ORACLE_ROLE","inputs":[],"outputs":[{"name":"","type":"bytes32","internalType":"bytes32"}],"stateMutability":"view"},{"type":"function","name":"addOracle","inputs":[{"name":"oracle","type":"address","internalType":"address"}],"outputs":[],"stateMutability":"nonpayable"},{"type":"function","name":"getAggregatedPrice","inputs":[{"name":"assetId","type":"bytes32","internalType":"bytes32"}],"outputs":[{"name":"medianPrice","type":"uint256","internalType":"uint256"},{"name":"confidence","type":"uint8","internalType":"uint8"}],"stateMutability":"view"},{"type":"function","name":"getPrice","inputs":[{"name":"assetId","type":"bytes32","internalType":"bytes32"}],"outputs":[{"name":"priceData","type":"tuple","internalType":"struct IECEOracle.PriceData","components":[{"name":"price","type":"uint256","internalType":"uint256"},{"name":"confidence","type":"uint8","internalType":"uint8"},{"name":"updatedAt","type":"uint256","internalType":"uint256"}]}],"stateMutability":"view"},{"type":"function","name":"getRoleAdmin","inputs":[{"name":"role","type":"bytes32","internalType":"bytes32"}],"outputs":[{"name":"","type":"bytes32","internalType":"bytes32"}],"stateMutability":"view"},{"type":"function","name":"grantRole","inputs":[{"name":"role","type":"bytes32","internalType":"bytes32"},{"name":"account","type":"address","internalType":"address"}],"outputs":[],"stateMutability":"nonpayable"},{"type":"function","name":"hasRole","inputs":[{"name":"role","type":"bytes32","internalType":"bytes32"},{"name":"account","type":"address","internalType":"address"}],"outputs":[{"name":"","type":"bool","internalType":"bool"}],"stateMutability":"view"},{"type":"function","name":"isPriceFresh","inputs":[{"name":"assetId","type":"bytes32","internalType":"bytes32"}],"outputs":[{"name":"isFresh","type":"bool","internalType":"bool"}],"stateMutability":"view"},{"type":"function","name":"oracleReputation","inputs":[{"name":"","type":"address","internalType":"address"}],"outputs":[{"name":"","type":"uint256","internalType":"uint256"}],"stateMutability":"view"},{"type":"function","name":"removeOracle","inputs":[{"name":"oracle","type":"address","internalType":"address"}],"outputs":[],"stateMutability":"nonpayable"},{"type":"function","name":"renounceRole","inputs":[{"name":"role","type":"bytes32","internalType":"bytes32"},{"name":"callerConfirmation","type":"address","internalType":"address"}],"outputs":[],"stateMutability":"nonpayable"},{"type":"function","name":"revokeRole","inputs":[{"name":"role","type":"bytes32","internalType":"bytes32"},{"name":"account","type":"address","internalType":"address"}],"outputs":[],"stateMutability":"nonpayable"},{"type":"function","name":"submitPriceUpdate","inputs":[{"name":"assetId","type":"bytes32","internalType":"bytes32"},{"name":"price","type":"uint256","internalType":"uint256"},{"name":"confidence","type":"uint8","internalType":"uint8"}],"outputs":[],"stateMutability":"nonpayable"},{"type":"function","name":"supportsInterface","inputs":[{"name":"interfaceId","type":"bytes4","internalType":"bytes4"}],"outputs":[{"name":"","type":"bool","internalType":"bool"}],"stateMutability":"view"},{"type":"function","name":"updateReputation","inputs":[{"name":"oracle","type":"address","internalType":"address"},{"name":"newReputation","type":"uint256","internalType":"uint256"}],"outputs":[],"stateMutability":"nonpayable"},{"type":"event","name":"AggregatedPriceUpdated","inputs":[{"name":"assetId","type":"bytes32","indexed":true,"internalType":"bytes32"},{"name":"medianPrice","type":"uint256","indexed":false,"internalType":"uint256"},{"name":"aggregatedConfidence","type":"uint8","indexed":false,"internalType":"uint8"}],"anonymous":false},{"type":"event","name":"OracleReputationUpdated","inputs":[{"name":"oracle","type":"address","indexed":true,"internalType":"address"},{"name":"oldReputation","type":"uint256","indexed":false,"internalType":"uint256"},{"name":"newReputation","type":"uint256","indexed":false,"internalType":"uint256"}],"anonymous":false},{"type":"event","name":"PriceUpdateSubmitted","inputs":[{"name":"assetId","type":"bytes32","indexed":true,"internalType":"bytes32"},{"name":"oracle","type":"address","indexed":true,"internalType":"address"},{"name":"price","type":"uint256","indexed":false,"internalType":"uint256"},{"name":"confidence","type":"uint8","indexed":false,"internalType":"uint8"}],"anonymous":false},{"type":"event","name":"RoleAdminChanged","inputs":[{"name":"role","type":"bytes32","indexed":true,"internalType":"bytes32"},{"name":"previousAdminRole","type":"bytes32","indexed":true,"internalType":"bytes32"},{"name":"newAdminRole","type":"bytes32","indexed":true,"internalType":"bytes32"}],"anonymous":false},{"type":"event","name":"RoleGranted","inputs":[{"name":"role","type":"bytes32","indexed":true,"internalType":"bytes32"},{"name":"account","type":"address","indexed":true,"internalType":"address"},{"name":"sender","type":"address","indexed":true,"internalType":"address"}],"anonymous":false},{"type":"event","name":"RoleRevoked","inputs":[{"name":"role","type":"bytes32","indexed":true,"internalType":"bytes32"},{"name":"account","type":"address","indexed":true,"internalType":"address"},{"name":"sender","type":"address","indexed":true,"internalType":"address"}],"anonymous":false},{"type":"error","name":"AccessControlBadConfirmation","inputs":[]},{"type":"error","name":"AccessControlUnauthorizedAccount","inputs":[{"name":"account","type":"address","internalType":"address"},{"name":"neededRole","type":"bytes32","internalType":"bytes32"}]},{"type":"error","name":"InsufficientOracleSubmissions","inputs":[{"name":"assetId","type":"bytes32","internalType":"bytes32"}]},{"type":"error","name":"InvalidConfidence","inputs":[{"name":"confidence","type":"uint8","internalType":"uint8"}]},{"type":"error","name":"PriceDeviationTooHigh","inputs":[{"name":"assetId","type":"bytes32","internalType":"bytes32"},{"name":"deviation","type":"uint256","internalType":"uint256"}]},{"type":"error","name":"StalePrice","inputs":[{"name":"assetId","type":"bytes32","internalType":"bytes32"},{"name":"updatedAt","type":"uint256","internalType":"uint256"}]},{"type":"error","name":"ZeroAddress","inputs":[]}],"bytecode":{"object":"0x608060405234801561001057600080fd5b5061001c60003361004d565b506100477f68e79a7bf1e0bc45d0a330c573bc367f9cf464fd326078812f301165fbda4ef13361004d565b506100f9565b6000828152602081815260408083206001600160a01b038516845290915281205460ff166100ef576000838152602081815260408083206001600160a01b03861684529091529020805460ff191660011790556100a73390565b6001600160a01b0316826001600160a01b0316847f2f8788117e7eff1d82e926ec794901d17c78024a50270940304540a733656f0d60405160405180910390a45060016100f3565b5060005b92915050565b611247806101086000396000f3fe608060405234801561001057600080fd5b506004361061012c5760003560e01c806336568abe116100ad578063a217fddf11610071578063a217fddf146102b5578063d547741f146102bd578063df5dd1a5146102d0578063f5c91a08146102e3578063fdc85fc4146102f657600080fd5b806336568abe1461025457806374bfa42f14610267578063828323f7146102875780638e7896831461029a57806391d14854146102a257600080fd5b8063248a9ca3116100f4578063248a9ca3146101c357806325c68403146101e65780632e91bf61146101ef5780632f2ff15d1461020957806331d98b3f1461021c57600080fd5b806301ffc9a71461013157806307e2cea5146101595780630b885ed31461017c5780631586b388146101915780631fde7f2614610199575b600080fd5b61014461013f366004610ffa565b610309565b60405190151581526020015b60405180910390f35b61016e6000805160206111f283398151915281565b604051908152602001610150565b61018f61018a366004611024565b610340565b005b61016e603c81565b6101ac6101a7366004611063565b61073c565b6040805192835260ff909116602083015201610150565b61016e6101d1366004611063565b60009081526020819052604090206001015490565b61016e6107d081565b6101f7600381565b60405160ff9091168152602001610150565b61018f610217366004611093565b6107de565b61022f61022a366004611063565b610803565b604080518251815260208084015160ff16908201529181015190820152606001610150565b61018f610262366004611093565b610891565b61016e6102753660046110bf565b60046020526000908152604090205481565b610144610295366004611063565b6108c9565b6101f7600581565b6101446102b0366004611093565b610906565b61016e600081565b61018f6102cb366004611093565b61092f565b61018f6102de3660046110bf565b610954565b61018f6102f13660046110da565b6109bc565b61018f6103043660046110bf565b610a27565b60006001600160e01b03198216637965db0b60e01b148061033a57506301ffc9a760e01b6001600160e01b03198316145b92915050565b6000805160206111f283398151915261035881610a4e565b60648260ff161115610387576040516347cba99160e11b815260ff831660048201526024015b60405180910390fd5b826000036103b257604051633e94ff6560e21b8152600481018590526000602482015260440161037e565b60008481526005602052604090205480156104045760006103d38286610a5b565b90506107d0811115610402576040516353547f8960e11b8152600481018790526024810182905260440161037e565b505b6000858152600260205260408120905b815481101561054457336001600160a01b031682828154811061043957610439611104565b60009182526020909120600490910201546001600160a01b03160361053c578582828154811061046b5761046b611104565b9060005260206000209060040201600101819055508482828154811061049357610493611104565b906000526020600020906004020160020160006101000a81548160ff021916908360ff160217905550428282815481106104cf576104cf611104565b906000526020600020906004020160030181905550336001600160a01b0316877fd6e25c6e93a61a35441c4c4e765ec19f34776f9a3fed8396820c6ffe47ec17f9888860405161052c92919091825260ff16602082015260400190565b60405180910390a3505050610736565b600101610414565b50805460051161065c57600060015b82548110156105b65782828154811061056e5761056e611104565b90600052602060002090600402016003015483828154811061059257610592611104565b90600052602060002090600402016003015410156105ae578091505b600101610553565b506040518060800160405280336001600160a01b031681526020018781526020018660ff168152602001428152508282815481106105f6576105f6611104565b600091825260209182902083516004929092020180546001600160a01b0319166001600160a01b03909216919091178155908201516001820155604082015160028201805460ff191660ff909216919091179055606090910151600390910155506106e2565b60408051608081018252338152602080820188815260ff88811694840194855242606085019081528654600180820189556000898152959095209551600490910290950180546001600160a01b0319166001600160a01b03909616959095178555915192840192909255925160028301805460ff19169190921617905590516003909101555b6040805186815260ff86166020820152339188917fd6e25c6e93a61a35441c4c4e765ec19f34776f9a3fed8396820c6ffe47ec17f9910160405180910390a380546003116107335761073386610ac7565b50505b50505050565b600081815260026020526040812080548291906003111561077357604051630893e96f60e21b81526004810185905260240161037e565b61077c81610c4a565b92506000805b82548110156107c85782818154811061079d5761079d611104565b60009182526020909120600260049092020101546107be9060ff1683611130565b9150600101610782565b5081546107d59082611159565b92505050915091565b6000828152602081905260409020600101546107f981610a4e565b6107368383610ec4565b61082a604051806060016040528060008152602001600060ff168152602001600081525090565b5060008181526001602081815260408084208151606081018352815481529381015460ff169284019290925260029091015490820181905290910361088c57604051633e94ff6560e21b8152600481018390526000602482015260440161037e565b919050565b6001600160a01b03811633146108ba5760405163334bd91960e11b815260040160405180910390fd5b6108c48282610f56565b505050565b6000818152600160205260408120600281015482036108eb5750600092915050565b603c8160020154426108fd919061116d565b11159392505050565b6000918252602082815260408084206001600160a01b0393909316845291905290205460ff1690565b60008281526020819052604090206001015461094a81610a4e565b6107368383610f56565b600061095f81610a4e565b6001600160a01b0382166109865760405163d92e233d60e01b815260040160405180910390fd5b61099e6000805160206111f2833981519152836107de565b506001600160a01b0316600090815260046020526040902060649055565b60006109c781610a4e565b6001600160a01b038316600081815260046020908152604091829020805490869055825181815291820186905292917f609c1ff9b29579e2fefc654e42a0b94040a63bc61a244165f527bc4330d09715910160405180910390a250505050565b6000610a3281610a4e565b610a4a6000805160206111f28339815191528361092f565b5050565b610a588133610fc1565b50565b600082600003610a6d5750600061033a565b82821115610a9e5782612710610a83828561116d565b610a8d9190611180565b610a979190611159565b905061033a565b82612710610aac848361116d565b610ab69190611180565b610ac09190611159565b9392505050565b600081815260026020526040812090610adf82610c4a565b905060008060005b8454811015610b7c576000858281548110610b0457610b04611104565b6000918252602090912060026004909202010154610b269060ff166001611130565b9050610b328185611130565b9350858281548110610b4657610b46611104565b6000918252602090912060026004909202010154610b679060ff1682611180565b610b719084611130565b925050600101610ae7565b506000610b898383611159565b60008781526001602081815260408084208054600584528286205581516060810183528a815260ff878116828601908152428386019081528f89528787529251845551958301805460ff191696909116959095179094559251600290930192909255600390528120805492935090610c0083611197565b90915550506040805185815260ff8316602082015287917f6182f3035c8db5f2e4cb5295c529bb59a31a4113fe61a441d0ae6b0cfdb09e85910160405180910390a2505050505050565b8054600090808203610c5f5750600092915050565b80600103610c945782600081548110610c7a57610c7a611104565b906000526020600020906004020160010154915050919050565b60008167ffffffffffffffff811115610caf57610caf6111b0565b604051908082528060200260200182016040528015610cd8578160200160208202803683370190505b50905060005b82811015610d2f57848181548110610cf857610cf8611104565b906000526020600020906004020160010154828281518110610d1c57610d1c611104565b6020908102919091010152600101610cde565b5060015b82811015610e11576000828281518110610d4f57610d4f611104565b6020026020010151905060008290505b600081118015610d9157508184610d7760018461116d565b81518110610d8757610d87611104565b6020026020010151115b15610de95783610da260018361116d565b81518110610db257610db2611104565b6020026020010151848281518110610dcc57610dcc611104565b602090810291909101015280610de1816111c6565b915050610d5f565b81848281518110610dfc57610dfc611104565b60209081029190910101525050600101610d33565b50610e1d6002836111dd565b600103610e515780610e30600284611159565b81518110610e4057610e40611104565b602002602001015192505050919050565b600281610e5e8285611159565b81518110610e6e57610e6e611104565b6020026020010151826001600286610e869190611159565b610e90919061116d565b81518110610ea057610ea0611104565b6020026020010151610eb29190611130565b610ebc9190611159565b949350505050565b6000610ed08383610906565b610f4e576000838152602081815260408083206001600160a01b03861684529091529020805460ff19166001179055610f063390565b6001600160a01b0316826001600160a01b0316847f2f8788117e7eff1d82e926ec794901d17c78024a50270940304540a733656f0d60405160405180910390a450600161033a565b50600061033a565b6000610f628383610906565b15610f4e576000838152602081815260408083206001600160a01b0386168085529252808320805460ff1916905551339286917ff6391f5c32d9c69d2a47ea670b442974b53935d1edc7fd64eb21e047a839171b9190a450600161033a565b610fcb8282610906565b610a4a5760405163e2517d3f60e01b81526001600160a01b03821660048201526024810183905260440161037e565b60006020828403121561100c57600080fd5b81356001600160e01b031981168114610ac057600080fd5b60008060006060848603121561103957600080fd5b8335925060208401359150604084013560ff8116811461105857600080fd5b809150509250925092565b60006020828403121561107557600080fd5b5035919050565b80356001600160a01b038116811461088c57600080fd5b600080604083850312156110a657600080fd5b823591506110b66020840161107c565b90509250929050565b6000602082840312156110d157600080fd5b610ac08261107c565b600080604083850312156110ed57600080fd5b6110f68361107c565b946020939093013593505050565b634e487b7160e01b600052603260045260246000fd5b634e487b7160e01b600052601160045260246000fd5b8082018082111561033a5761033a61111a565b634e487b7160e01b600052601260045260246000fd5b60008261116857611168611143565b500490565b8181038181111561033a5761033a61111a565b808202811582820484141761033a5761033a61111a565b6000600182016111a9576111a961111a565b5060010190565b634e487b7160e01b600052604160045260246000fd5b6000816111d5576111d561111a565b506000190190565b6000826111ec576111ec611143565b50069056fe68e79a7bf1e0bc45d0a330c573bc367f9cf464fd326078812f301165fbda4ef1a264697066735822122039f31865eec467cc5885ba3b7462134248432b94447b4fffc5712f8e2537172a64736f6c63430008180033","linkReferences":{}},"methodIdentifiers":{"DEFAULT_ADMIN_ROLE()":"a217fddf","HEARTBEAT()":"1586b388","MAX_DEVIATION_BPS()":"25c68403","MAX_SUBMISSIONS()":"8e789683","MIN_SUBMISSIONS()":"2e91bf61","ORACLE_ROLE()":"07e2cea5","addOracle(address)":"df5dd1a5","getAggregatedPrice(bytes32)":"1fde7f26","getPrice(bytes32)":"31d98b3f","getRoleAdmin(bytes32)":"248a9ca3","grantRole(bytes32,address)":"2f2ff15d","hasRole(bytes32,address)":"91d14854","isPriceFresh(bytes32)":"828323f7","oracleReputation(address)":"74bfa42f","removeOracle(address)":"fdc85fc4","renounceRole(bytes32,address)":"36568abe","revokeRole(bytes32,address)":"d547741f","submitPriceUpdate(bytes32,uint256,uint8)":"0b885ed3","supportsInterface(bytes4)":"01ffc9a7","updateReputation(address,uint256)":"f5c91a08"},"id":53}