{"abi":[{"type":"constructor","inputs":[{"name":"initialSupply","type":"uint256","internalType":"uint256"}],"stateMutability":"nonpayable"},{"type":"receive","stateMutability":"payable"},{"type":"function","name":"DOMAIN_SEPARATOR","inputs":[],"outputs":[{"name":"","type":"bytes32","internalType":"bytes32"}],"stateMutability":"view"},{"type":"function","name":"MAX_OPERATIONS","inputs":[],"outputs":[{"name":"","type":"uint256","internalType":"uint256"}],"stateMutability":"view"},{"type":"function","name":"PROPOSAL_BPS","inputs":[],"outputs":[{"name":"","type":"uint256","internalType":"uint256"}],"stateMutability":"view"},{"type":"function","name":"QUORUM_BPS","inputs":[],"outputs":[{"name":"","type":"uint256","internalType":"uint256"}],"stateMutability":"view"},{"type":"function","name":"TIMELOCK_PERIOD","inputs":[],"outputs":[{"name":"","type":"uint256","internalType":"uint256"}],"stateMutability":"view"},{"type":"function","name":"VOTING_PERIOD","inputs":[],"outputs":[{"name":"","type":"uint256","internalType":"uint256"}],"stateMutability":"view"},{"type":"function","name":"allowance","inputs":[{"name":"owner","type":"address","internalType":"address"},{"name":"spender","type":"address","internalType":"address"}],"outputs":[{"name":"","type":"uint256","internalType":"uint256"}],"stateMutability":"view"},{"type":"function","name":"approve","inputs":[{"name":"spender","type":"address","internalType":"address"},{"name":"value","type":"uint256","internalType":"uint256"}],"outputs":[{"name":"","type":"bool","internalType":"bool"}],"stateMutability":"nonpayable"},{"type":"function","name":"balanceOf","inputs":[{"name":"account","type":"address","internalType":"address"}],"outputs":[{"name":"","type":"uint256","internalType":"uint256"}],"stateMutability":"view"},{"type":"function","name":"cancel","inputs":[{"name":"proposalId","type":"uint256","internalType":"uint256"}],"outputs":[],"stateMutability":"nonpayable"},{"type":"function","name":"castVote","inputs":[{"name":"proposalId","type":"uint256","internalType":"uint256"},{"name":"support","type":"uint8","internalType":"uint8"}],"outputs":[],"stateMutability":"nonpayable"},{"type":"function","name":"castVoteWithReason","inputs":[{"name":"proposalId","type":"uint256","internalType":"uint256"},{"name":"support","type":"uint8","internalType":"uint8"},{"name":"reason","type":"string","internalType":"string"}],"outputs":[],"stateMutability":"nonpayable"},{"type":"function","name":"decimals","inputs":[],"outputs":[{"name":"","type":"uint8","internalType":"uint8"}],"stateMutability":"view"},{"type":"function","name":"eip712Domain","inputs":[],"outputs":[{"name":"fields","type":"bytes1","internalType":"bytes1"},{"name":"name","type":"string","internalType":"string"},{"name":"version","type":"string","internalType":"string"},{"name":"chainId","type":"uint256","internalType":"uint256"},{"name":"verifyingContract","type":"address","internalType":"address"},{"name":"salt","type":"bytes32","internalType":"bytes32"},{"name":"extensions","type":"uint256[]","internalType":"uint256[]"}],"stateMutability":"view"},{"type":"function","name":"execute","inputs":[{"name":"proposalId","type":"uint256","internalType":"uint256"}],"outputs":[],"stateMutability":"nonpayable"},{"type":"function","name":"getProposal","inputs":[{"name":"proposalId","type":"uint256","internalType":"uint256"}],"outputs":[{"name":"","type":"tuple","internalType":"struct IGovernance.Proposal","components":[{"name":"id","type":"uint256","internalType":"uint256"},{"name":"proposer","type":"address","internalType":"address"},{"name":"description","type":"string","internalType":"string"},{"name":"targets","type":"address[]","internalType":"address[]"},{"name":"values","type":"uint256[]","internalType":"uint256[]"},{"name":"calldatas","type":"bytes[]","internalType":"bytes[]"},{"name":"voteStart","type":"uint256","internalType":"uint256"},{"name":"voteEnd","type":"uint256","internalType":"uint256"},{"name":"forVotes","type":"uint256","internalType":"uint256"},{"name":"againstVotes","type":"uint256","internalType":"uint256"},{"name":"abstainVotes","type":"uint256","internalType":"uint256"},{"name":"executed","type":"bool","internalType":"bool"},{"name":"cancelled","type":"bool","internalType":"bool"}]}],"stateMutability":"view"},{"type":"function","name":"guardian","inputs":[],"outputs":[{"name":"","type":"address","internalType":"address"}],"stateMutability":"view"},{"type":"function","name":"hasVoted","inputs":[{"name":"proposalId","type":"uint256","internalType":"uint256"},{"name":"voter","type":"address","internalType":"address"}],"outputs":[{"name":"","type":"bool","internalType":"bool"}],"stateMutability":"view"},{"type":"function","name":"mint","inputs":[{"name":"to","type":"address","internalType":"address"},{"name":"amount","type":"uint256","internalType":"uint256"}],"outputs":[],"stateMutability":"nonpayable"},{"type":"function","name":"name","inputs":[],"outputs":[{"name":"","type":"string","internalType":"string"}],"stateMutability":"view"},{"type":"function","name":"nonces","inputs":[{"name":"owner","type":"address","internalType":"address"}],"outputs":[{"name":"","type":"uint256","internalType":"uint256"}],"stateMutability":"view"},{"type":"function","name":"owner","inputs":[],"outputs":[{"name":"","type":"address","internalType":"address"}],"stateMutability":"view"},{"type":"function","name":"permit","inputs":[{"name":"owner","type":"address","internalType":"address"},{"name":"spender","type":"address","internalType":"address"},{"name":"value","type":"uint256","internalType":"uint256"},{"name":"deadline","type":"uint256","internalType":"uint256"},{"name":"v","type":"uint8","internalType":"uint8"},{"name":"r","type":"bytes32","internalType":"bytes32"},{"name":"s","type":"bytes32","internalType":"bytes32"}],"outputs":[],"stateMutability":"nonpayable"},{"type":"function","name":"proposalCount","inputs":[],"outputs":[{"name":"","type":"uint256","internalType":"uint256"}],"stateMutability":"view"},{"type":"function","name":"proposalThreshold","inputs":[],"outputs":[{"name":"","type":"uint256","internalType":"uint256"}],"stateMutability":"view"},{"type":"function","name":"propose","inputs":[{"name":"description","type":"string","internalType":"string"},{"name":"targets","type":"address[]","internalType":"address[]"},{"name":"values","type":"uint256[]","internalType":"uint256[]"},{"name":"calldatas","type":"bytes[]","internalType":"bytes[]"}],"outputs":[{"name":"proposalId","type":"uint256","internalType":"uint256"}],"stateMutability":"nonpayable"},{"type":"function","name":"quorum","inputs":[],"outputs":[{"name":"","type":"uint256","internalType":"uint256"}],"stateMutability":"view"},{"type":"function","name":"renounceOwnership","inputs":[],"outputs":[],"stateMutability":"nonpayable"},{"type":"function","name":"setGuardian","inputs":[{"name":"newGuardian","type":"address","internalType":"address"}],"outputs":[],"stateMutability":"nonpayable"},{"type":"function","name":"state","inputs":[{"name":"proposalId","type":"uint256","internalType":"uint256"}],"outputs":[{"name":"","type":"uint8","internalType":"enum IGovernance.ProposalState"}],"stateMutability":"view"},{"type":"function","name":"symbol","inputs":[],"outputs":[{"name":"","type":"string","internalType":"string"}],"stateMutability":"view"},{"type":"function","name":"totalSupply","inputs":[],"outputs":[{"name":"","type":"uint256","internalType":"uint256"}],"stateMutability":"view"},{"type":"function","name":"transfer","inputs":[{"name":"to","type":"address","internalType":"address"},{"name":"value","type":"uint256","internalType":"uint256"}],"outputs":[{"name":"","type":"bool","internalType":"bool"}],"stateMutability":"nonpayable"},{"type":"function","name":"transferFrom","inputs":[{"name":"from","type":"address","internalType":"address"},{"name":"to","type":"address","internalType":"address"},{"name":"value","type":"uint256","internalType":"uint256"}],"outputs":[{"name":"","type":"bool","internalType":"bool"}],"stateMutability":"nonpayable"},{"type":"function","name":"transferOwnership","inputs":[{"name":"newOwner","type":"address","internalType":"address"}],"outputs":[],"stateMutability":"nonpayable"},{"type":"event","name":"Approval","inputs":[{"name":"owner","type":"address","indexed":true,"internalType":"address"},{"name":"spender","type":"address","indexed":true,"internalType":"address"},{"name":"value","type":"uint256","indexed":false,"internalType":"uint256"}],"anonymous":false},{"type":"event","name":"EIP712DomainChanged","inputs":[],"anonymous":false},{"type":"event","name":"OwnershipTransferred","inputs":[{"name":"previousOwner","type":"address","indexed":true,"internalType":"address"},{"name":"newOwner","type":"address","indexed":true,"internalType":"address"}],"anonymous":false},{"type":"event","name":"ProposalCancelled","inputs":[{"name":"proposalId","type":"uint256","indexed":true,"internalType":"uint256"}],"anonymous":false},{"type":"event","name":"ProposalCreated","inputs":[{"name":"proposalId","type":"uint256","indexed":true,"internalType":"uint256"},{"name":"proposer","type":"address","indexed":true,"internalType":"address"},{"name":"description","type":"string","indexed":false,"internalType":"string"},{"name":"targets","type":"address[]","indexed":false,"internalType":"address[]"},{"name":"values","type":"uint256[]","indexed":false,"internalType":"uint256[]"},{"name":"calldatas","type":"bytes[]","indexed":false,"internalType":"bytes[]"},{"name":"voteStart","type":"uint256","indexed":false,"internalType":"uint256"},{"name":"voteEnd","type":"uint256","indexed":false,"internalType":"uint256"}],"anonymous":false},{"type":"event","name":"ProposalExecuted","inputs":[{"name":"proposalId","type":"uint256","indexed":true,"internalType":"uint256"}],"anonymous":false},{"type":"event","name":"ProposalQueued","inputs":[{"name":"proposalId","type":"uint256","indexed":true,"internalType":"uint256"},{"name":"eta","type":"uint256","indexed":false,"internalType":"uint256"}],"anonymous":false},{"type":"event","name":"Transfer","inputs":[{"name":"from","type":"address","indexed":true,"internalType":"address"},{"name":"to","type":"address","indexed":true,"internalType":"address"},{"name":"value","type":"uint256","indexed":false,"internalType":"uint256"}],"anonymous":false},{"type":"event","name":"VoteCast","inputs":[{"name":"proposalId","type":"uint256","indexed":true,"internalType":"uint256"},{"name":"voter","type":"address","indexed":true,"internalType":"address"},{"name":"support","type":"uint8","indexed":false,"internalType":"uint8"},{"name":"weight","type":"uint256","indexed":false,"internalType":"uint256"},{"name":"reason","type":"string","indexed":false,"internalType":"string"}],"anonymous":false},{"type":"error","name":"AlreadyVoted","inputs":[{"name":"voter","type":"address","internalType":"address"},{"name":"proposalId","type":"uint256","internalType":"uint256"}]},{"type":"error","name":"ArrayLengthMismatch","inputs":[]},{"type":"error","name":"ECDSAInvalidSignature","inputs":[]},{"type":"error","name":"ECDSAInvalidSignatureLength","inputs":[{"name":"length","type":"uint256","internalType":"uint256"}]},{"type":"error","name":"ECDSAInvalidSignatureS","inputs":[{"name":"s","type":"bytes32","internalType":"bytes32"}]},{"type":"error","name":"ERC20InsufficientAllowance","inputs":[{"name":"spender","type":"address","internalType":"address"},{"name":"allowance","type":"uint256","internalType":"uint256"},{"name":"needed","type":"uint256","internalType":"uint256"}]},{"type":"error","name":"ERC20InsufficientBalance","inputs":[{"name":"sender","type":"address","internalType":"address"},{"name":"balance","type":"uint256","internalType":"uint256"},{"name":"needed","type":"uint256","internalType":"uint256"}]},{"type":"error","name":"ERC20InvalidApprover","inputs":[{"name":"approver","type":"address","internalType":"address"}]},{"type":"error","name":"ERC20InvalidReceiver","inputs":[{"name":"receiver","type":"address","internalType":"address"}]},{"type":"error","name":"ERC20InvalidSender","inputs":[{"name":"sender","type":"address","internalType":"address"}]},{"type":"error","name":"ERC20InvalidSpender","inputs":[{"name":"spender","type":"address","internalType":"address"}]},{"type":"error","name":"ERC2612ExpiredSignature","inputs":[{"name":"deadline","type":"uint256","internalType":"uint256"}]},{"type":"error","name":"ERC2612InvalidSigner","inputs":[{"name":"signer","type":"address","internalType":"address"},{"name":"owner","type":"address","internalType":"address"}]},{"type":"error","name":"EmptyProposal","inputs":[]},{"type":"error","name":"InsufficientVotingPower","inputs":[{"name":"voter","type":"address","internalType":"address"},{"name":"required","type":"uint256","internalType":"uint256"},{"name":"actual","type":"uint256","internalType":"uint256"}]},{"type":"error","name":"InvalidAccountNonce","inputs":[{"name":"account","type":"address","internalType":"address"},{"name":"currentNonce","type":"uint256","internalType":"uint256"}]},{"type":"error","name":"InvalidProposalState","inputs":[{"name":"state","type":"uint8","internalType":"uint8"}]},{"type":"error","name":"InvalidShortString","inputs":[]},{"type":"error","name":"OwnableInvalidOwner","inputs":[{"name":"owner","type":"address","internalType":"address"}]},{"type":"error","name":"OwnableUnauthorizedAccount","inputs":[{"name":"account","type":"address","internalType":"address"}]},{"type":"error","name":"ProposalNotActive","inputs":[{"name":"proposalId","type":"uint256","internalType":"uint256"}]},{"type":"error","name":"ProposalNotFound","inputs":[{"name":"proposalId","type":"uint256","internalType":"uint256"}]},{"type":"error","name":"StringTooLong","inputs":[{"name":"str","type":"string","internalType":"string"}]},{"type":"error","name":"Unauthorized","inputs":[{"name":"caller","type":"address","internalType":"address"}]},{"type":"error","name":"VoteNotSuccessful","inputs":[{"name":"proposalId","type":"uint256","internalType":"uint256"}]},{"type":"error","name":"ZeroAddress","inputs":[]}],"bytecode":{"object":"0x6101606040523480156200001257600080fd5b506040516200332b3803806200332b833981016040819052620000359162000449565b336040518060400160405280601381526020017221211023b7bb32b93730b731b2902a37b5b2b760691b81525080604051806040016040528060018152602001603160f81b8152506040518060400160405280601381526020017221211023b7bb32b93730b731b2902a37b5b2b760691b81525060405180604001604052806005815260200164212123a7ab60d91b8152508160039081620000d891906200050a565b506004620000e782826200050a565b50620000f9915083905060056200020a565b610120526200010a8160066200020a565b61014052815160208084019190912060e052815190820120610100524660a0526200019860e05161010051604080517f8b73c3c69bb8fe3d512ecc4cf759cc79239f7b179b0ffacaa9a75d522b39400f60208201529081019290925260608201524660808201523060a082015260009060c00160405160208183030381529060405280519060200120905090565b60805250503060c052506001600160a01b038116620001d257604051631e4fbdf760e01b8152600060048201526024015b60405180910390fd5b620001dd8162000243565b508015620001f157620001f1338262000295565b50600c80546001600160a01b031916331790556200066e565b60006020835110156200022a576200022283620002d3565b90506200023d565b816200023784826200050a565b5060ff90505b92915050565b600880546001600160a01b038381166001600160a01b0319831681179093556040519116919082907f8be0079c531659141344cd1fd0a4f28419497f9722a3daafe3b4186f6b6457e090600090a35050565b6001600160a01b038216620002c15760405163ec442f0560e01b815260006004820152602401620001c9565b620002cf6000838362000316565b5050565b600080829050601f8151111562000301578260405163305a27a960e01b8152600401620001c99190620005d6565b80516200030e8262000627565b179392505050565b6001600160a01b038316620003455780600260008282546200033991906200064c565b90915550620003b99050565b6001600160a01b038316600090815260208190526040902054818110156200039a5760405163391434e360e21b81526001600160a01b03851660048201526024810182905260448101839052606401620001c9565b6001600160a01b03841660009081526020819052604090209082900390555b6001600160a01b038216620003d757600280548290039055620003f6565b6001600160a01b03821660009081526020819052604090208054820190555b816001600160a01b0316836001600160a01b03167fddf252ad1be2c89b69c2b068fc378daa952ba7f163c4a11628f55a4df523b3ef836040516200043c91815260200190565b60405180910390a3505050565b6000602082840312156200045c57600080fd5b5051919050565b634e487b7160e01b600052604160045260246000fd5b600181811c908216806200048e57607f821691505b602082108103620004af57634e487b7160e01b600052602260045260246000fd5b50919050565b601f82111562000505576000816000526020600020601f850160051c81016020861015620004e05750805b601f850160051c820191505b818110156200050157828155600101620004ec565b5050505b505050565b81516001600160401b0381111562000526576200052662000463565b6200053e8162000537845462000479565b84620004b5565b602080601f8311600181146200057657600084156200055d5750858301515b600019600386901b1c1916600185901b17855562000501565b600085815260208120601f198616915b82811015620005a75788860151825594840194600190910190840162000586565b5085821015620005c65787850151600019600388901b60f8161c191681555b5050505050600190811b01905550565b60006020808352835180602085015260005b818110156200060657858101830151858201604001528201620005e8565b506000604082860101526040601f19601f8301168501019250505092915050565b80516020808301519190811015620004af5760001960209190910360031b1b16919050565b808201808211156200023d57634e487b7160e01b600052601160045260246000fd5b60805160a05160c05160e051610100516101205161014051612c62620006c96000396000611a6601526000611a390152600061176e01526000611746015260006116a1015260006116cb015260006116f50152612c626000f3fe6080604052600436106102085760003560e01c80637b3c71d311610118578063b1610d7e116100a0578063d505accf1161006f578063d505accf146105e6578063da35c66414610606578063dd62ed3e1461061b578063f2fde38b14610661578063fe0d94c11461068157600080fd5b8063b1610d7e1461058d578063b58131b0146105a4578063bbeb7a561461041c578063c7f758a8146105b957600080fd5b80638da5cb5b116100e75780638da5cb5b1461050457806395d89b4114610522578063a8b21c1b14610537578063a9059cbb1461054d578063ad72ed781461056d57600080fd5b80637b3c71d31461047c5780637ecebe001461049c57806384b0196e146104bc5780638a0dac4a146104e457600080fd5b806340c10f191161019b5780634a5bcbf81161016a5780634a5bcbf8146103e557806356781388146103fc5780635dc2803a1461041c57806370a0823114610431578063715018a61461046757600080fd5b806340c10f191461032557806340e58ee5146103475780634385963214610367578063452a9320146103ad57600080fd5b806323b872dd116101d757806323b872dd146102a7578063313ce567146102c75780633644e515146102e35780633e4f49e6146102f857600080fd5b806306fdde0314610214578063095ea7b31461023f5780631703a0181461026f57806318160ddd1461029257600080fd5b3661020f57005b600080fd5b34801561022057600080fd5b506102296106a1565b6040516102369190612111565b60405180910390f35b34801561024b57600080fd5b5061025f61025a366004612147565b610733565b6040519015158152602001610236565b34801561027b57600080fd5b5061028461074d565b604051908152602001610236565b34801561029e57600080fd5b50600254610284565b3480156102b357600080fd5b5061025f6102c2366004612171565b610777565b3480156102d357600080fd5b5060405160128152602001610236565b3480156102ef57600080fd5b5061028461079b565b34801561030457600080fd5b506103186103133660046121ad565b6107a5565b60405161023691906121dc565b34801561033157600080fd5b50610345610340366004612147565b610910565b005b34801561035357600080fd5b506103456103623660046121ad565b610926565b34801561037357600080fd5b5061025f610382366004612204565b6000918252600a602090815260408084206001600160a01b0393909316845291905290205460ff1690565b3480156103b957600080fd5b50600c546103cd906001600160a01b031681565b6040516001600160a01b039091168152602001610236565b3480156103f157600080fd5b506102846202a30081565b34801561040857600080fd5b50610345610417366004612241565b610a50565b34801561042857600080fd5b50610284600a81565b34801561043d57600080fd5b5061028461044c366004612264565b6001600160a01b031660009081526020819052604090205490565b34801561047357600080fd5b50610345610a6a565b34801561048857600080fd5b506103456104973660046122c8565b610a7e565b3480156104a857600080fd5b506102846104b7366004612264565b610ac5565b3480156104c857600080fd5b506104d1610ae3565b604051610236979695949392919061235e565b3480156104f057600080fd5b506103456104ff366004612264565b610b29565b34801561051057600080fd5b506008546001600160a01b03166103cd565b34801561052e57600080fd5b50610229610b7a565b34801561054357600080fd5b5061028461019081565b34801561055957600080fd5b5061025f610568366004612147565b610b89565b34801561057957600080fd5b50610284610588366004612413565b610b97565b34801561059957600080fd5b506102846203f48081565b3480156105b057600080fd5b50610284610f2a565b3480156105c557600080fd5b506105d96105d43660046121ad565b610f3a565b604051610236919061256b565b3480156105f257600080fd5b50610345610601366004612674565b61129b565b34801561061257600080fd5b50600b54610284565b34801561062757600080fd5b506102846106363660046126de565b6001600160a01b03918216600090815260016020908152604080832093909416825291909152205490565b34801561066d57600080fd5b5061034561067c366004612264565b6113d5565b34801561068d57600080fd5b5061034561069c3660046121ad565b611413565b6060600380546106b090612708565b80601f01602080910402602001604051908101604052809291908181526020018280546106dc90612708565b80156107295780601f106106fe57610100808354040283529160200191610729565b820191906000526020600020905b81548152906001019060200180831161070c57829003601f168201915b5050505050905090565b6000336107418185856115bd565b60019150505b92915050565b600061271061019061075e60025490565b6107689190612758565b610772919061276f565b905090565b6000336107858582856115cf565b610790858585611635565b506001949350505050565b6000610772611694565b6000818152600960205260408120805482036107dc5760405163428d06a960e01b8152600481018490526024015b60405180910390fd5b600b810154610100900460ff16156107f75750600292915050565b600b81015460ff161561080d5750600792915050565b80600601544210156108225750600092915050565b80600701544210156108375750600192915050565b600061271061019061084860025490565b6108529190612758565b61085c919061276f565b9050600082600a0154836009015484600801546108799190612791565b6108839190612791565b90508181101561089857506003949350505050565b82600901548360080154116108b257506003949350505050565b60006202a30084600701546108c79190612791565b9050804210156108dd5750600595945050505050565b60006108ec8262127500612791565b905080421115610903575060069695505050505050565b5060049695505050505050565b6109186117bf565b61092282826117ec565b5050565b600081815260096020526040812080549091036109595760405163428d06a960e01b8152600481018390526024016107d3565b60018101546001600160a01b031633148015906109815750600c546001600160a01b03163314155b801561099857506008546001600160a01b03163314155b156109b85760405163472511eb60e11b81523360048201526024016107d3565b60006109c3836107a5565b905060078160078111156109d9576109d96121c6565b03610a0f578060078111156109f0576109f06121c6565b60405163a3c6230b60e01b815260ff90911660048201526024016107d3565b600b8201805461ff00191661010017905560405183907f416e669c63d9a3a5e36ee7cc7e2104b8db28ccd286aa18966e98fa230c73b08c90600090a2505050565b610922828260405180602001604052806000815250611822565b610a726117bf565b610a7c60006119e0565b565b610abf848484848080601f01602080910402602001604051908101604052809392919081815260200183838082843760009201919091525061182292505050565b50505050565b6001600160a01b038116600090815260076020526040812054610747565b600060608060008060006060610af7611a32565b610aff611a5f565b60408051600080825260208201909252600f60f81b9b939a50919850469750309650945092509050565b610b316117bf565b6001600160a01b038116610b585760405163d92e233d60e01b815260040160405180910390fd5b600c80546001600160a01b0319166001600160a01b0392909216919091179055565b6060600480546106b090612708565b600033610741818585611635565b6000858103610bb95760405163294565bf60e01b815260040160405180910390fd5b8584141580610bc85750858214155b15610be65760405163512509d360e11b815260040160405180910390fd5b600a861115610c085760405163294565bf60e01b815260040160405180910390fd5b3360009081526020819052604081205490506000612710600a610c2a60025490565b610c349190612758565b610c3e919061276f565b905080821015610c67573381836040516309e915af60e01b81526004016107d3939291906127ba565b600b8054906000610c77836127db565b9091555050600b5492506000610c8e426001612791565b90506000610c9f6203f48083612791565b9050604051806101a00160405280868152602001336001600160a01b031681526020018e8e8080601f0160208091040260200160405190810160405280939291908181526020018383808284376000920191909152505050908252506040805160208e810282810182019093528e82529283019290918f918f9182918501908490808284376000920191909152505050908252506040805160208c810282810182019093528c82529283019290918d918d918291850190849080828437600092019190915250505090825250602001610d78888a612825565b8152602080820185905260408083018590526000606084018190526080840181905260a0840181905260c0840181905260e0909301839052888352600982529182902083518155908301516001820180546001600160a01b0319166001600160a01b03909216919091179055908201516002820190610df7908261294a565b5060608201518051610e13916003840191602090910190611f6d565b5060808201518051610e2f916004840191602090910190611fd2565b5060a08201518051610e4b91600584019160209091019061200d565b5060c0820151816006015560e082015181600701556101008201518160080155610120820151816009015561014082015181600a015561016082015181600b0160006101000a81548160ff02191690831515021790555061018082015181600b0160016101000a81548160ff021916908315150217905550905050336001600160a01b0316857fae85d4511292be44620adb35cb183caba4d74251a8a7ba18ab68fd6083034ec08f8f8f8f8f8f8f8f8c8c604051610f129a99989796959493929190612abd565b60405180910390a35050505098975050505050505050565b6000612710600a61075e60025490565b610fb2604051806101a001604052806000815260200160006001600160a01b031681526020016060815260200160608152602001606081526020016060815260200160008152602001600081526020016000815260200160008152602001600081526020016000151581526020016000151581525090565b6000828152600960205260408120549003610fe35760405163428d06a960e01b8152600481018390526024016107d3565b60008281526009602090815260409182902082516101a0810184528154815260018201546001600160a01b031692810192909252600281018054929391929184019161102e90612708565b80601f016020809104026020016040519081016040528092919081815260200182805461105a90612708565b80156110a75780601f1061107c576101008083540402835291602001916110a7565b820191906000526020600020905b81548152906001019060200180831161108a57829003601f168201915b505050505081526020016003820180548060200260200160405190810160405280929190818152602001828054801561110957602002820191906000526020600020905b81546001600160a01b031681526001909101906020018083116110eb575b505050505081526020016004820180548060200260200160405190810160405280929190818152602001828054801561116157602002820191906000526020600020905b81548152602001906001019080831161114d575b5050505050815260200160058201805480602002602001604051908101604052809291908181526020016000905b8282101561123b5783829060005260206000200180546111ae90612708565b80601f01602080910402602001604051908101604052809291908181526020018280546111da90612708565b80156112275780601f106111fc57610100808354040283529160200191611227565b820191906000526020600020905b81548152906001019060200180831161120a57829003601f168201915b50505050508152602001906001019061118f565b5050509082525060068201546020820152600782015460408201526008820154606082015260098201546080820152600a82015460a0820152600b9091015460ff808216151560c084015261010090910416151560e09091015292915050565b834211156112bf5760405163313c898160e11b8152600481018590526024016107d3565b60007f6e71edae12b1b97f4d1f60370fef10105fa2faae0126114a169c64845d6126c988888861130c8c6001600160a01b0316600090815260076020526040902080546001810190915590565b6040805160208101969096526001600160a01b0394851690860152929091166060840152608083015260a082015260c0810186905260e001604051602081830303815290604052805190602001209050600061136782611a8c565b9050600061137782878787611ab9565b9050896001600160a01b0316816001600160a01b0316146113be576040516325c0072360e11b81526001600160a01b0380831660048301528b1660248201526044016107d3565b6113c98a8a8a6115bd565b50505050505050505050565b6113dd6117bf565b6001600160a01b03811661140757604051631e4fbdf760e01b8152600060048201526024016107d3565b611410816119e0565b50565b600061141e826107a5565b90506004816007811115611434576114346121c6565b1415801561145457506005816007811115611451576114516121c6565b14155b1561147557604051631af0f34d60e21b8152600481018390526024016107d3565b6000828152600960205260408120600b8101805460ff19166001179055905b600382015481101561158c5760008260030182815481106114b7576114b7612b75565b6000918252602090912001546004840180546001600160a01b0390921691849081106114e5576114e5612b75565b906000526020600020015484600501848154811061150557611505612b75565b9060005260206000200160405161151c9190612b8b565b60006040518083038185875af1925050503d8060008114611559576040519150601f19603f3d011682016040523d82523d6000602084013e61155e565b606091505b505090508061158357604051631af0f34d60e21b8152600481018690526024016107d3565b50600101611494565b5060405183907f712ae1383f79ac853f8d882153778e0260ef8f03b504e2866e0593e04d2b291f90600090a2505050565b6115ca8383836001611ae7565b505050565b6001600160a01b03838116600090815260016020908152604080832093861683529290522054600019811015610abf578181101561162657828183604051637dc7a0d960e11b81526004016107d3939291906127ba565b610abf84848484036000611ae7565b6001600160a01b03831661165f57604051634b637e8f60e11b8152600060048201526024016107d3565b6001600160a01b0382166116895760405163ec442f0560e01b8152600060048201526024016107d3565b6115ca838383611bbc565b6000306001600160a01b037f0000000000000000000000000000000000000000000000000000000000000000161480156116ed57507f000000000000000000000000000000000000000000000000000000000000000046145b1561171757507f000000000000000000000000000000000000000000000000000000000000000090565b610772604080517f8b73c3c69bb8fe3d512ecc4cf759cc79239f7b179b0ffacaa9a75d522b39400f60208201527f0000000000000000000000000000000000000000000000000000000000000000918101919091527f000000000000000000000000000000000000000000000000000000000000000060608201524660808201523060a082015260009060c00160405160208183030381529060405280519060200120905090565b6008546001600160a01b03163314610a7c5760405163118cdaa760e01b81523360048201526024016107d3565b6001600160a01b0382166118165760405163ec442f0560e01b8152600060048201526024016107d3565b61092260008383611bbc565b600061182d846107a5565b90506001816007811115611843576118436121c6565b14611864576040516344980d8f60e01b8152600481018590526024016107d3565b6000848152600a6020908152604080832033845290915290205460ff16156118a857604051631bdd6e5960e11b8152336004820152602481018590526044016107d3565b33600090815260208190526040812054908190036118e15733600160006040516309e915af60e01b81526004016107d3939291906127ba565b60008581526009602052604081209060ff86169003611919578181600901600082825461190e9190612791565b909155506119759050565b8460ff16600103611938578181600801600082825461190e9190612791565b8460ff16600203611957578181600a01600082825461190e9190612791565b60405163a3c6230b60e01b815260ff861660048201526024016107d3565b6000868152600a6020908152604080832033808552925291829020805460ff19166001179055905187907f761cce3a1af5d9cfc0d57222f605ce4bd2be345f0ad9ebb7b83a84a91a0c2014906119d090899087908a90612c01565b60405180910390a3505050505050565b600880546001600160a01b038381166001600160a01b0319831681179093556040519116919082907f8be0079c531659141344cd1fd0a4f28419497f9722a3daafe3b4186f6b6457e090600090a35050565b60606107727f00000000000000000000000000000000000000000000000000000000000000006005611cd3565b60606107727f00000000000000000000000000000000000000000000000000000000000000006006611cd3565b6000610747611a99611694565b8360405161190160f01b8152600281019290925260228201526042902090565b600080600080611acb88888888611d7e565b925092509250611adb8282611e4d565b50909695505050505050565b6001600160a01b038416611b115760405163e602df0560e01b8152600060048201526024016107d3565b6001600160a01b038316611b3b57604051634a1406b160e11b8152600060048201526024016107d3565b6001600160a01b0380851660009081526001602090815260408083209387168352929052208290558015610abf57826001600160a01b0316846001600160a01b03167f8c5be1e5ebec7d5bd14f71427d1e84f3dd0314c0f7b2291e5b200ac8c7c3b92584604051611bae91815260200190565b60405180910390a350505050565b6001600160a01b038316611be7578060026000828254611bdc9190612791565b90915550611c469050565b6001600160a01b03831660009081526020819052604090205481811015611c275783818360405163391434e360e21b81526004016107d3939291906127ba565b6001600160a01b03841660009081526020819052604090209082900390555b6001600160a01b038216611c6257600280548290039055611c81565b6001600160a01b03821660009081526020819052604090208054820190555b816001600160a01b0316836001600160a01b03167fddf252ad1be2c89b69c2b068fc378daa952ba7f163c4a11628f55a4df523b3ef83604051611cc691815260200190565b60405180910390a3505050565b606060ff8314611ced57611ce683611f06565b9050610747565b818054611cf990612708565b80601f0160208091040260200160405190810160405280929190818152602001828054611d2590612708565b8015611d725780601f10611d4757610100808354040283529160200191611d72565b820191906000526020600020905b815481529060010190602001808311611d5557829003601f168201915b50505050509050610747565b600080807f7fffffffffffffffffffffffffffffff5d576e7357a4501ddfe92f46681b20a0841115611db95750600091506003905082611e43565b604080516000808252602082018084528a905260ff891692820192909252606081018790526080810186905260019060a0016020604051602081039080840390855afa158015611e0d573d6000803e3d6000fd5b5050604051601f1901519150506001600160a01b038116611e3957506000925060019150829050611e43565b9250600091508190505b9450945094915050565b6000826003811115611e6157611e616121c6565b03611e6a575050565b6001826003811115611e7e57611e7e6121c6565b03611e9c5760405163f645eedf60e01b815260040160405180910390fd5b6002826003811115611eb057611eb06121c6565b03611ed15760405163fce698f760e01b8152600481018290526024016107d3565b6003826003811115611ee557611ee56121c6565b03610922576040516335e2f38360e21b8152600481018290526024016107d3565b60606000611f1383611f45565b604080516020808252818301909252919250600091906020820181803683375050509182525060208101929092525090565b600060ff8216601f81111561074757604051632cd44ac360e21b815260040160405180910390fd5b828054828255906000526020600020908101928215611fc2579160200282015b82811115611fc257825182546001600160a01b0319166001600160a01b03909116178255602090920191600190910190611f8d565b50611fce92915061205f565b5090565b828054828255906000526020600020908101928215611fc2579160200282015b82811115611fc2578251825591602001919060010190611ff2565b828054828255906000526020600020908101928215612053579160200282015b828111156120535782518290612043908261294a565b509160200191906001019061202d565b50611fce929150612074565b5b80821115611fce5760008155600101612060565b80821115611fce5760006120888282612091565b50600101612074565b50805461209d90612708565b6000825580601f106120ad575050565b601f016020900490600052602060002090810190611410919061205f565b6000815180845260005b818110156120f1576020818501810151868301820152016120d5565b506000602082860101526020601f19601f83011685010191505092915050565b60208152600061212460208301846120cb565b9392505050565b80356001600160a01b038116811461214257600080fd5b919050565b6000806040838503121561215a57600080fd5b6121638361212b565b946020939093013593505050565b60008060006060848603121561218657600080fd5b61218f8461212b565b925061219d6020850161212b565b9150604084013590509250925092565b6000602082840312156121bf57600080fd5b5035919050565b634e487b7160e01b600052602160045260246000fd5b60208101600883106121fe57634e487b7160e01b600052602160045260246000fd5b91905290565b6000806040838503121561221757600080fd5b823591506122276020840161212b565b90509250929050565b803560ff8116811461214257600080fd5b6000806040838503121561225457600080fd5b8235915061222760208401612230565b60006020828403121561227657600080fd5b6121248261212b565b60008083601f84011261229157600080fd5b50813567ffffffffffffffff8111156122a957600080fd5b6020830191508360208285010111156122c157600080fd5b9250929050565b600080600080606085870312156122de57600080fd5b843593506122ee60208601612230565b9250604085013567ffffffffffffffff81111561230a57600080fd5b6123168782880161227f565b95989497509550505050565b60008151808452602080850194506020840160005b8381101561235357815187529582019590820190600101612337565b509495945050505050565b60ff60f81b8816815260e06020820152600061237d60e08301896120cb565b828103604084015261238f81896120cb565b606084018890526001600160a01b038716608085015260a0840186905283810360c085015290506123c08185612322565b9a9950505050505050505050565b60008083601f8401126123e057600080fd5b50813567ffffffffffffffff8111156123f857600080fd5b6020830191508360208260051b85010111156122c157600080fd5b6000806000806000806000806080898b03121561242f57600080fd5b883567ffffffffffffffff8082111561244757600080fd5b6124538c838d0161227f565b909a50985060208b013591508082111561246c57600080fd5b6124788c838d016123ce565b909850965060408b013591508082111561249157600080fd5b61249d8c838d016123ce565b909650945060608b01359150808211156124b657600080fd5b506124c38b828c016123ce565b999c989b5096995094979396929594505050565b60008151808452602080850194506020840160005b838110156123535781516001600160a01b0316875295820195908201906001016124ec565b60008282518085526020808601955060208260051b8401016020860160005b8481101561255e57601f1986840301895261254c8383516120cb565b98840198925090830190600101612530565b5090979650505050505050565b60208152815160208201526000602083015161259260408401826001600160a01b03169052565b5060408301516101a08060608501526125af6101c08501836120cb565b91506060850151601f19808685030160808701526125cd84836124d7565b935060808701519150808685030160a08701526125ea8483612322565b935060a08701519150808685030160c0870152506126088382612511565b60c087015160e0878101919091528701516101008088019190915287015161012080880191909152870151610140808801919091528701516101608088019190915287015190935090506101806126628187018315159052565b90950151151593019290925250919050565b600080600080600080600060e0888a03121561268f57600080fd5b6126988861212b565b96506126a66020890161212b565b955060408801359450606088013593506126c260808901612230565b925060a0880135915060c0880135905092959891949750929550565b600080604083850312156126f157600080fd5b6126fa8361212b565b91506122276020840161212b565b600181811c9082168061271c57607f821691505b60208210810361273c57634e487b7160e01b600052602260045260246000fd5b50919050565b634e487b7160e01b600052601160045260246000fd5b808202811582820484141761074757610747612742565b60008261278c57634e487b7160e01b600052601260045260246000fd5b500490565b8082018082111561074757610747612742565b634e487b7160e01b600052604160045260246000fd5b6001600160a01b039390931683526020830191909152604082015260600190565b6000600182016127ed576127ed612742565b5060010190565b604051601f8201601f1916810167ffffffffffffffff8111828210171561281d5761281d6127a4565b604052919050565b600067ffffffffffffffff80841115612840576128406127a4565b8360051b60206128518183016127f4565b86815291850191818101903684111561286957600080fd5b865b848110156128ee578035868111156128835760008081fd5b8801601f36818301126128965760008081fd5b8135888111156128a8576128a86127a4565b6128b9818301601f191688016127f4565b915080825236878285010111156128d05760008081fd5b8087840188840137600090820187015284525091830191830161286b565b50979650505050505050565b601f8211156115ca576000816000526020600020601f850160051c810160208610156129235750805b601f850160051c820191505b818110156129425782815560010161292f565b505050505050565b815167ffffffffffffffff811115612964576129646127a4565b612978816129728454612708565b846128fa565b602080601f8311600181146129ad57600084156129955750858301515b600019600386901b1c1916600185901b178555612942565b600085815260208120601f198616915b828110156129dc578886015182559484019460019091019084016129bd565b50858210156129fa5787850151600019600388901b60f8161c191681555b5050505050600190811b01905550565b81835281816020850137506000828201602090810191909152601f909101601f19169091010190565b6000838385526020808601955060208560051b8301018460005b8781101561255e57848303601f19018952813536889003601e19018112612a7357600080fd5b8701848101903567ffffffffffffffff811115612a8f57600080fd5b803603821315612a9e57600080fd5b612aa9858284612a0a565b9a86019a9450505090830190600101612a4d565b60c081526000612ad160c083018c8e612a0a565b8281036020848101919091528a82528b91810160005b8c811015612b13576001600160a01b03612b008561212b565b1682529282019290820190600101612ae7565b5084810360408601528981526001600160fb1b038a1115612b3357600080fd5b8960051b9250828b838301379091018381038201606085015290612b5a818301888a612a33565b608085019690965250505060a0015298975050505050505050565b634e487b7160e01b600052603260045260246000fd5b6000808354612b9981612708565b60018281168015612bb15760018114612bc657612bf5565b60ff1984168752821515830287019450612bf5565b8760005260208060002060005b85811015612bec5781548a820152908401908201612bd3565b50505082870194505b50929695505050505050565b60ff84168152826020820152606060408201526000612c2360608301846120cb565b9594505050505056fea264697066735822122032ec023bf4c52b2b7e94377f28e946f6444570304621c260d90112d3ce3eb27464736f6c63430008180033","linkReferences":{}},"methodIdentifiers":{"DOMAIN_SEPARATOR()":"3644e515","MAX_OPERATIONS()":"5dc2803a","PROPOSAL_BPS()":"bbeb7a56","QUORUM_BPS()":"a8b21c1b","TIMELOCK_PERIOD()":"4a5bcbf8","VOTING_PERIOD()":"b1610d7e","allowance(address,address)":"dd62ed3e","approve(address,uint256)":"095ea7b3","balanceOf(address)":"70a08231","cancel(uint256)":"40e58ee5","castVote(uint256,uint8)":"56781388","castVoteWithReason(uint256,uint8,string)":"7b3c71d3","decimals()":"313ce567","eip712Domain()":"84b0196e","execute(uint256)":"fe0d94c1","getProposal(uint256)":"c7f758a8","guardian()":"452a9320","hasVoted(uint256,address)":"43859632","mint(address,uint256)":"40c10f19","name()":"06fdde03","nonces(address)":"7ecebe00","owner()":"8da5cb5b","permit(address,address,uint256,uint256,uint8,bytes32,bytes32)":"d505accf","proposalCount()":"da35c664","proposalThreshold()":"b58131b0","propose(string,address[],uint256[],bytes[])":"ad72ed78","quorum()":"1703a018","renounceOwnership()":"715018a6","setGuardian(address)":"8a0dac4a","state(uint256)":"3e4f49e6","symbol()":"95d89b41","totalSupply()":"18160ddd","transfer(address,uint256)":"a9059cbb","transferFrom(address,address,uint256)":"23b872dd","transferOwnership(address)":"f2fde38b"},"id":54}