{"abi":[{"type":"constructor","inputs":[{"name":"_splitter","type":"address","internalType":"address"}],"stateMutability":"nonpayable"},{"type":"function","name":"MAX_TIER","inputs":[],"outputs":[{"name":"","type":"uint8","internalType":"uint8"}],"stateMutability":"view"},{"type":"function","name":"TIER_THRESHOLDS","inputs":[{"name":"","type":"uint256","internalType":"uint256"}],"outputs":[{"name":"","type":"uint256","internalType":"uint256"}],"stateMutability":"view"},{"type":"function","name":"checkUnlockEligibility","inputs":[{"name":"avatarId","type":"uint256","internalType":"uint256"},{"name":"skillId","type":"bytes32","internalType":"bytes32"}],"outputs":[{"name":"meetsThreshold","type":"bool","internalType":"bool"},{"name":"currentRevenue","type":"uint256","internalType":"uint256"},{"name":"threshold","type":"uint256","internalType":"uint256"}],"stateMutability":"view"},{"type":"function","name":"getSkillInfo","inputs":[{"name":"skillId","type":"bytes32","internalType":"bytes32"}],"outputs":[{"name":"info","type":"tuple","internalType":"struct ISkillVault.SkillInfo","components":[{"name":"skillId","type":"bytes32","internalType":"bytes32"},{"name":"tier","type":"uint8","internalType":"uint8"},{"name":"revenueThreshold","type":"uint256","internalType":"uint256"},{"name":"developer","type":"address","internalType":"address"},{"name":"registered","type":"bool","internalType":"bool"}]}],"stateMutability":"view"},{"type":"function","name":"getSkillStatus","inputs":[{"name":"avatarId","type":"uint256","internalType":"uint256"},{"name":"skillId","type":"bytes32","internalType":"bytes32"}],"outputs":[{"name":"","type":"uint8","internalType":"enum ISkillVault.SkillStatus"}],"stateMutability":"view"},{"type":"function","name":"getTierThreshold","inputs":[{"name":"tier","type":"uint8","internalType":"uint8"}],"outputs":[{"name":"threshold","type":"uint256","internalType":"uint256"}],"stateMutability":"view"},{"type":"function","name":"owner","inputs":[],"outputs":[{"name":"","type":"address","internalType":"address"}],"stateMutability":"view"},{"type":"function","name":"registerSkill","inputs":[{"name":"skillId","type":"bytes32","internalType":"bytes32"},{"name":"tier","type":"uint8","internalType":"uint8"},{"name":"revenueThreshold","type":"uint256","internalType":"uint256"},{"name":"developer","type":"address","internalType":"address"}],"outputs":[],"stateMutability":"nonpayable"},{"type":"function","name":"renounceOwnership","inputs":[],"outputs":[],"stateMutability":"nonpayable"},{"type":"function","name":"setSplitter","inputs":[{"name":"newSplitter","type":"address","internalType":"address"}],"outputs":[],"stateMutability":"nonpayable"},{"type":"function","name":"splitter","inputs":[],"outputs":[{"name":"","type":"address","internalType":"contract ISplitter"}],"stateMutability":"view"},{"type":"function","name":"transferOwnership","inputs":[{"name":"newOwner","type":"address","internalType":"address"}],"outputs":[],"stateMutability":"nonpayable"},{"type":"function","name":"unlockSkill","inputs":[{"name":"avatarId","type":"uint256","internalType":"uint256"},{"name":"skillId","type":"bytes32","internalType":"bytes32"}],"outputs":[],"stateMutability":"nonpayable"},{"type":"function","name":"unlockedSkillCount","inputs":[{"name":"","type":"uint256","internalType":"uint256"}],"outputs":[{"name":"","type":"uint256","internalType":"uint256"}],"stateMutability":"view"},{"type":"event","name":"OwnershipTransferred","inputs":[{"name":"previousOwner","type":"address","indexed":true,"internalType":"address"},{"name":"newOwner","type":"address","indexed":true,"internalType":"address"}],"anonymous":false},{"type":"event","name":"SkillRegistered","inputs":[{"name":"skillId","type":"bytes32","indexed":true,"internalType":"bytes32"},{"name":"tier","type":"uint8","indexed":false,"internalType":"uint8"},{"name":"revenueThreshold","type":"uint256","indexed":false,"internalType":"uint256"},{"name":"developer","type":"address","indexed":true,"internalType":"address"}],"anonymous":false},{"type":"event","name":"SkillUnlocked","inputs":[{"name":"avatarId","type":"uint256","indexed":true,"internalType":"uint256"},{"name":"skillId","type":"bytes32","indexed":true,"internalType":"bytes32"},{"name":"revenueAtUnlock","type":"uint256","indexed":false,"internalType":"uint256"}],"anonymous":false},{"type":"error","name":"InvalidRevenueThreshold","inputs":[{"name":"tier","type":"uint8","internalType":"uint8"},{"name":"threshold","type":"uint256","internalType":"uint256"}]},{"type":"error","name":"InvalidTier","inputs":[{"name":"tier","type":"uint8","internalType":"uint8"}]},{"type":"error","name":"OwnableInvalidOwner","inputs":[{"name":"owner","type":"address","internalType":"address"}]},{"type":"error","name":"OwnableUnauthorizedAccount","inputs":[{"name":"account","type":"address","internalType":"address"}]},{"type":"error","name":"SkillAlreadyRegistered","inputs":[{"name":"skillId","type":"bytes32","internalType":"bytes32"}]},{"type":"error","name":"SkillAlreadyUnlocked","inputs":[{"name":"avatarId","type":"uint256","internalType":"uint256"},{"name":"skillId","type":"bytes32","internalType":"bytes32"}]},{"type":"error","name":"SkillLocked","inputs":[{"name":"skillId","type":"bytes32","internalType":"bytes32"},{"name":"revenueThreshold","type":"uint256","internalType":"uint256"},{"name":"currentRevenue","type":"uint256","internalType":"uint256"}]},{"type":"error","name":"SkillNotFound","inputs":[{"name":"skillId","type":"bytes32","internalType":"bytes32"}]},{"type":"error","name":"ZeroAddress","inputs":[]}],"bytecode":{"object":"0x61012060405260006080908152681b1ae4d6e2ef50000060a052686c6b935b8bbd40000060c0526901b1ae4d6e2ef500000060e05269065a4da25d3016c0000061010052610051906001906005610149565b5034801561005e57600080fd5b50604051610cf8380380610cf883398101604081905261007d916101a7565b33806100a357604051631e4fbdf760e01b81526000600482015260240160405180910390fd5b6100ac816100f9565b506001600160a01b0381166100d45760405163d92e233d60e01b815260040160405180910390fd5b600680546001600160a01b0319166001600160a01b03929092169190911790556101d7565b600080546001600160a01b038381166001600160a01b0319831681178455604051919092169283917f8be0079c531659141344cd1fd0a4f28419497f9722a3daafe3b4186f6b6457e09190a35050565b8260058101928215610182579160200282015b8281111561018257825182906001600160501b031690559160200191906001019061015c565b5061018e929150610192565b5090565b5b8082111561018e5760008155600101610193565b6000602082840312156101b957600080fd5b81516001600160a01b03811681146101d057600080fd5b9392505050565b610b12806101e66000396000f3fe608060405234801561001057600080fd5b50600436106100ea5760003560e01c80639e8095ec1161008c578063c93fc83d11610066578063c93fc83d1461020b578063d3b830ca1461021e578063ef63361214610231578063f2fde38b1461028f57600080fd5b80639e8095ec146101b0578063abe54060146101de578063af3a19c7146101f157600080fd5b8063715018a6116100c8578063715018a61461016f5780638da5cb5b146101795780638f61d9c51461018a57806399e6f3171461019d57600080fd5b806305fa6fb6146100ef5780633cd8045e146101245780636337a1011461014f575b600080fd5b6101026100fd366004610984565b6102a2565b6040805193151584526020840192909252908201526060015b60405180910390f35b600654610137906001600160a01b031681565b6040516001600160a01b03909116815260200161011b565b61016261015d366004610984565b610377565b60405161011b91906109bc565b6101776103c4565b005b6000546001600160a01b0316610137565b610177610198366004610a11565b6103d8565b6101776101ab366004610984565b61059b565b6101d06101be366004610a57565b60096020526000908152604090205481565b60405190815260200161011b565b6101d06101ec366004610a70565b61074f565b6101f9600481565b60405160ff909116815260200161011b565b610177610219366004610a92565b610799565b6101d061022c366004610a57565b6107ea565b61024461023f366004610a57565b610801565b60405161011b91908151815260208083015160ff1690820152604080830151908201526060808301516001600160a01b03169082015260809182015115159181019190915260a00190565b61017761029d366004610a92565b6108c9565b60008181526007602052604081206003015481908190600160a01b900460ff166102e757604051630964a83760e21b8152600481018590526024015b60405180910390fd5b5060008381526007602052604090819020600201546006549151630bff345960e41b81526004810187905290916001600160a01b03169063bff3459090602401602060405180830381865afa158015610344573d6000803e3d6000fd5b505050506040513d601f19601f820116820180604052508101906103689190610aad565b91508082101592509250925092565b600081815260076020526040812060030154600160a01b900460ff1661039f575060006103be565b50600082815260086020908152604080832084845290915290205460ff165b92915050565b6103cc610907565b6103d66000610934565b565b6103e0610907565b600084815260076020526040902060030154600160a01b900460ff161561041d57604051635c4c137560e11b8152600481018590526024016102de565b600460ff8416111561044757604051635e50d4ab60e11b815260ff841660048201526024016102de565b6001600160a01b03811661046e5760405163d92e233d60e01b815260040160405180910390fd5b60018360ff166005811061048457610484610ac6565b01548210156104b25760405163843cefbb60e01b815260ff84166004820152602481018390526044016102de565b6040805160a08101825285815260ff80861660208084019182528385018781526001600160a01b038088166060870181815260016080890181815260008f81526007909752958a902098518955955195880180549690971660ff19909616959095179095559051600286015591516003909401805491511515600160a01b026001600160a81b0319909216949092169390931792909217909155905185907fc5f367cf906f3d484fe1cf533b137d3445b5735e2037c63f9ef1428e32c8e1999061058d908790879060ff929092168252602082015260400190565b60405180910390a350505050565b600081815260076020526040902060030154600160a01b900460ff166105d757604051630964a83760e21b8152600481018290526024016102de565b6001600083815260086020908152604080832085845290915290205460ff166001811115610607576106076109a6565b0361062f57604051634a32b56360e01b815260048101839052602481018290526044016102de565b600654604051630bff345960e41b8152600481018490526000916001600160a01b03169063bff3459090602401602060405180830381865afa158015610679573d6000803e3d6000fd5b505050506040513d601f19601f8201168201806040525081019061069d9190610aad565b600083815260076020526040902060020154909150808210156106e457604051636c117d0b60e11b81526004810184905260248101829052604481018390526064016102de565b60008481526008602090815260408083208684528252808320805460ff19166001908117909155878452600983529281902080549093019092559051838152849186917ff1a5048fda344286c36767d6674c3b7e2c9894eef08055055355ba1ca76f4223910161058d565b6000600460ff8316111561077b57604051635e50d4ab60e11b815260ff831660048201526024016102de565b60018260ff166005811061079157610791610ac6565b015492915050565b6107a1610907565b6001600160a01b0381166107c85760405163d92e233d60e01b815260040160405180910390fd5b600680546001600160a01b0319166001600160a01b0392909216919091179055565b600181600581106107fa57600080fd5b0154905081565b6040805160a081018252600080825260208201819052918101829052606081018290526080810191909152600082815260076020526040902060030154600160a01b900460ff1661086857604051630964a83760e21b8152600481018390526024016102de565b50600090815260076020908152604091829020825160a08101845281548152600182015460ff90811693820193909352600282015493810193909352600301546001600160a01b0381166060840152600160a01b9004161515608082015290565b6108d1610907565b6001600160a01b0381166108fb57604051631e4fbdf760e01b8152600060048201526024016102de565b61090481610934565b50565b6000546001600160a01b031633146103d65760405163118cdaa760e01b81523360048201526024016102de565b600080546001600160a01b038381166001600160a01b0319831681178455604051919092169283917f8be0079c531659141344cd1fd0a4f28419497f9722a3daafe3b4186f6b6457e09190a35050565b6000806040838503121561099757600080fd5b50508035926020909101359150565b634e487b7160e01b600052602160045260246000fd5b60208101600283106109de57634e487b7160e01b600052602160045260246000fd5b91905290565b803560ff811681146109f557600080fd5b919050565b80356001600160a01b03811681146109f557600080fd5b60008060008060808587031215610a2757600080fd5b84359350610a37602086016109e4565b925060408501359150610a4c606086016109fa565b905092959194509250565b600060208284031215610a6957600080fd5b5035919050565b600060208284031215610a8257600080fd5b610a8b826109e4565b9392505050565b600060208284031215610aa457600080fd5b610a8b826109fa565b600060208284031215610abf57600080fd5b5051919050565b634e487b7160e01b600052603260045260246000fdfea264697066735822122018b663757e2e2139fa76bb159d5e39384854f8c59c9c8247c3ab71a23164ed2164736f6c63430008180033","linkReferences":{}},"methodIdentifiers":{"MAX_TIER()":"af3a19c7","TIER_THRESHOLDS(uint256)":"d3b830ca","checkUnlockEligibility(uint256,bytes32)":"05fa6fb6","getSkillInfo(bytes32)":"ef633612","getSkillStatus(uint256,bytes32)":"6337a101","getTierThreshold(uint8)":"abe54060","owner()":"8da5cb5b","registerSkill(bytes32,uint8,uint256,address)":"8f61d9c5","renounceOwnership()":"715018a6","setSplitter(address)":"c93fc83d","splitter()":"3cd8045e","transferOwnership(address)":"f2fde38b","unlockSkill(uint256,bytes32)":"99e6f317","unlockedSkillCount(uint256)":"9e8095ec"},"id":58}