{"abi":[{"type":"constructor","inputs":[],"stateMutability":"nonpayable"},{"type":"function","name":"CHALLENGER_ROLE","inputs":[],"outputs":[{"name":"","type":"bytes32","internalType":"bytes32"}],"stateMutability":"view"},{"type":"function","name":"CHALLENGE_PERIOD","inputs":[],"outputs":[{"name":"","type":"uint256","internalType":"uint256"}],"stateMutability":"view"},{"type":"function","name":"DEFAULT_ADMIN_ROLE","inputs":[],"outputs":[{"name":"","type":"bytes32","internalType":"bytes32"}],"stateMutability":"view"},{"type":"function","name":"MAX_BATCH_SIZE","inputs":[],"outputs":[{"name":"","type":"uint256","internalType":"uint256"}],"stateMutability":"view"},{"type":"function","name":"VERIFICATION_REWARD","inputs":[],"outputs":[{"name":"","type":"uint256","internalType":"uint256"}],"stateMutability":"view"},{"type":"function","name":"VERIFIER_ROLE","inputs":[],"outputs":[{"name":"","type":"bytes32","internalType":"bytes32"}],"stateMutability":"view"},{"type":"function","name":"batchVerify","inputs":[{"name":"taskIds","type":"bytes32[]","internalType":"bytes32[]"}],"outputs":[{"name":"statuses","type":"uint8[]","internalType":"enum IPoUEVerifier.ProofStatus[]"}],"stateMutability":"view"},{"type":"function","name":"challengeProof","inputs":[{"name":"taskId","type":"bytes32","internalType":"bytes32"},{"name":"reason","type":"bytes32","internalType":"bytes32"}],"outputs":[],"stateMutability":"nonpayable"},{"type":"function","name":"finalizeProof","inputs":[{"name":"taskId","type":"bytes32","internalType":"bytes32"}],"outputs":[],"stateMutability":"nonpayable"},{"type":"function","name":"getChallengeReason","inputs":[{"name":"taskId","type":"bytes32","internalType":"bytes32"}],"outputs":[{"name":"reason","type":"bytes32","internalType":"bytes32"}],"stateMutability":"view"},{"type":"function","name":"getChallengeRemaining","inputs":[{"name":"taskId","type":"bytes32","internalType":"bytes32"}],"outputs":[{"name":"remaining","type":"uint256","internalType":"uint256"}],"stateMutability":"view"},{"type":"function","name":"getProofData","inputs":[{"name":"taskId","type":"bytes32","internalType":"bytes32"}],"outputs":[{"name":"proofData","type":"tuple","internalType":"struct IPoUEVerifier.ProofData","components":[{"name":"taskId","type":"bytes32","internalType":"bytes32"},{"name":"proofHash","type":"bytes32","internalType":"bytes32"},{"name":"proofType","type":"uint8","internalType":"enum IPoUEVerifier.ProofType"},{"name":"status","type":"uint8","internalType":"enum IPoUEVerifier.ProofStatus"},{"name":"submitter","type":"address","internalType":"address"},{"name":"submittedAt","type":"uint256","internalType":"uint256"},{"name":"verifiedAt","type":"uint256","internalType":"uint256"}]}],"stateMutability":"view"},{"type":"function","name":"getRoleAdmin","inputs":[{"name":"role","type":"bytes32","internalType":"bytes32"}],"outputs":[{"name":"","type":"bytes32","internalType":"bytes32"}],"stateMutability":"view"},{"type":"function","name":"grantRole","inputs":[{"name":"role","type":"bytes32","internalType":"bytes32"},{"name":"account","type":"address","internalType":"address"}],"outputs":[],"stateMutability":"nonpayable"},{"type":"function","name":"hasRole","inputs":[{"name":"role","type":"bytes32","internalType":"bytes32"},{"name":"account","type":"address","internalType":"address"}],"outputs":[{"name":"","type":"bool","internalType":"bool"}],"stateMutability":"view"},{"type":"function","name":"renounceRole","inputs":[{"name":"role","type":"bytes32","internalType":"bytes32"},{"name":"callerConfirmation","type":"address","internalType":"address"}],"outputs":[],"stateMutability":"nonpayable"},{"type":"function","name":"revokeRole","inputs":[{"name":"role","type":"bytes32","internalType":"bytes32"},{"name":"account","type":"address","internalType":"address"}],"outputs":[],"stateMutability":"nonpayable"},{"type":"function","name":"submitProof","inputs":[{"name":"taskId","type":"bytes32","internalType":"bytes32"},{"name":"proofHash","type":"bytes32","internalType":"bytes32"},{"name":"proofData","type":"bytes","internalType":"bytes"}],"outputs":[],"stateMutability":"nonpayable"},{"type":"function","name":"supportsInterface","inputs":[{"name":"interfaceId","type":"bytes4","internalType":"bytes4"}],"outputs":[{"name":"","type":"bool","internalType":"bool"}],"stateMutability":"view"},{"type":"function","name":"totalRejected","inputs":[],"outputs":[{"name":"","type":"uint256","internalType":"uint256"}],"stateMutability":"view"},{"type":"function","name":"totalVerified","inputs":[],"outputs":[{"name":"","type":"uint256","internalType":"uint256"}],"stateMutability":"view"},{"type":"function","name":"verifyProof","inputs":[{"name":"taskId","type":"bytes32","internalType":"bytes32"}],"outputs":[{"name":"status","type":"uint8","internalType":"enum IPoUEVerifier.ProofStatus"}],"stateMutability":"view"},{"type":"event","name":"ProofRejected","inputs":[{"name":"taskId","type":"bytes32","indexed":true,"internalType":"bytes32"},{"name":"reason","type":"bytes32","indexed":false,"internalType":"bytes32"}],"anonymous":false},{"type":"event","name":"ProofSubmitted","inputs":[{"name":"taskId","type":"bytes32","indexed":true,"internalType":"bytes32"},{"name":"proofHash","type":"bytes32","indexed":false,"internalType":"bytes32"},{"name":"proofType","type":"uint8","indexed":false,"internalType":"enum IPoUEVerifier.ProofType"},{"name":"submitter","type":"address","indexed":true,"internalType":"address"}],"anonymous":false},{"type":"event","name":"ProofVerified","inputs":[{"name":"taskId","type":"bytes32","indexed":true,"internalType":"bytes32"},{"name":"submitter","type":"address","indexed":true,"internalType":"address"},{"name":"reward","type":"uint256","indexed":false,"internalType":"uint256"}],"anonymous":false},{"type":"event","name":"RoleAdminChanged","inputs":[{"name":"role","type":"bytes32","indexed":true,"internalType":"bytes32"},{"name":"previousAdminRole","type":"bytes32","indexed":true,"internalType":"bytes32"},{"name":"newAdminRole","type":"bytes32","indexed":true,"internalType":"bytes32"}],"anonymous":false},{"type":"event","name":"RoleGranted","inputs":[{"name":"role","type":"bytes32","indexed":true,"internalType":"bytes32"},{"name":"account","type":"address","indexed":true,"internalType":"address"},{"name":"sender","type":"address","indexed":true,"internalType":"address"}],"anonymous":false},{"type":"event","name":"RoleRevoked","inputs":[{"name":"role","type":"bytes32","indexed":true,"internalType":"bytes32"},{"name":"account","type":"address","indexed":true,"internalType":"address"},{"name":"sender","type":"address","indexed":true,"internalType":"address"}],"anonymous":false},{"type":"error","name":"AccessControlBadConfirmation","inputs":[]},{"type":"error","name":"AccessControlUnauthorizedAccount","inputs":[{"name":"account","type":"address","internalType":"address"},{"name":"neededRole","type":"bytes32","internalType":"bytes32"}]},{"type":"error","name":"BatchSizeExceeded","inputs":[{"name":"size","type":"uint256","internalType":"uint256"}]},{"type":"error","name":"ChallengePeriodActive","inputs":[{"name":"taskId","type":"bytes32","internalType":"bytes32"},{"name":"remainingTime","type":"uint256","internalType":"uint256"}]},{"type":"error","name":"InvalidProofType","inputs":[{"name":"proofType","type":"uint8","internalType":"uint8"}]},{"type":"error","name":"ProofAlreadySubmitted","inputs":[{"name":"taskId","type":"bytes32","internalType":"bytes32"}]},{"type":"error","name":"ProofNotFound","inputs":[{"name":"taskId","type":"bytes32","internalType":"bytes32"}]},{"type":"error","name":"ProofRejected","inputs":[{"name":"taskId","type":"bytes32","internalType":"bytes32"}]}],"bytecode":{"object":"0x608060405234801561001057600080fd5b5061001c600033610078565b506100477f0ce23c3e399818cfee81a7ab0880f714e53d7672b08df0fa62f2843416e1ea0933610078565b506100727fe752add323323eb13e36c71ee508dfd16d74e9e4c4fd78786ba97989e5e1381833610078565b50610124565b6000828152602081815260408083206001600160a01b038516845290915281205460ff1661011a576000838152602081815260408083206001600160a01b03861684529091529020805460ff191660011790556100d23390565b6001600160a01b0316826001600160a01b0316847f2f8788117e7eff1d82e926ec794901d17c78024a50270940304540a733656f0d60405160405180910390a450600161011e565b5060005b92915050565b6113ea80620001346000396000f3fe608060405234801561001057600080fd5b50600436106101425760003560e01c8063a217fddf116100b8578063c8fa61571161007c578063c8fa6157146102c9578063cfdbf254146102e9578063d547741f146102f1578063e7705db614610304578063fd4f9a211461032b578063fe9eba151461033a57600080fd5b8063a217fddf14610271578063a877276d14610279578063af68ac231461028c578063b142b4ec1461029f578063c3a079ed146102bf57600080fd5b806336568abe1161010a57806336568abe146101de57806352e0716a146101f1578063530adbb41461020457806391d148541461022b5780639546bf001461023e5780639b71697e1461025e57600080fd5b806301ffc9a714610147578063072e18401461016f57806314f08c0f14610186578063248a9ca3146101a65780632f2ff15d146101c9575b600080fd5b61015a610155366004611066565b610343565b60405190151581526020015b60405180910390f35b61017860055481565b604051908152602001610166565b610178610194366004611097565b60009081526003602052604090205490565b6101786101b4366004611097565b60009081526020819052604090206001015490565b6101dc6101d73660046110b0565b61037a565b005b6101dc6101ec3660046110b0565b6103a5565b6101dc6101ff3660046110ec565b6103dd565b6101787fe752add323323eb13e36c71ee508dfd16d74e9e4c4fd78786ba97989e5e1381881565b61015a6102393660046110b0565b6105fe565b61025161024c366004611097565b610627565b60405161016691906111a6565b6101dc61026c36600461120e565b61076c565b610178600081565b6101dc610287366004611097565b610922565b61017861029a366004611097565b610a82565b6102b26102ad366004611097565b610b41565b6040516101669190611230565b61017862093a8081565b6102dc6102d736600461123e565b610c14565b60405161016691906112b3565b610178603281565b6101dc6102ff3660046110b0565b610dd9565b6101787f0ce23c3e399818cfee81a7ab0880f714e53d7672b08df0fa62f2843416e1ea0981565b610178670de0b6b3a764000081565b61017860045481565b60006001600160e01b03198216637965db0b60e01b148061037457506301ffc9a760e01b6001600160e01b03198316145b92915050565b60008281526020819052604090206001015461039581610dfe565b61039f8383610e0b565b50505050565b6001600160a01b03811633146103ce5760405163334bd91960e11b815260040160405180910390fd5b6103d88282610e9d565b505050565b60008481526002602052604090205460ff1615610415576040516320ca76a160e11b8152600481018590526024015b60405180910390fd5b8261043657604051630603114960e01b81526004810185905260240161040c565b60008115801590610462575082826000818110610455576104556112fe565b9091013560f81c60011490505b61046d576000610470565b60015b90506040518060e0016040528086815260200185815260200182600181111561049b5761049b61116c565b815260006020808301829052336040808501919091524260608501526080909301829052888252600180825291839020845181559084015181830155918301516002830180549192909160ff19169083818111156104fb576104fb61116c565b021790555060608201518160020160016101000a81548160ff0219169083600281111561052a5761052a61116c565b02179055506080820151600280830180546001600160a01b03909316620100000262010000600160b01b03199093169290921790915560a0830151600383015560c090920151600490910155600086815260209190915260408120805460ff191660011790558160018111156105a2576105a261116c565b036105b3576105b385858585610f08565b336001600160a01b0316857f267420e66b442e0f8db1bfd9569b383d67c3fc3385d654a8986c96449528a30f86846040516105ef929190611314565b60405180910390a35050505050565b6000918252602082815260408084206001600160a01b0393909316845291905290205460ff1690565b6106706040805160e081018252600080825260208201819052909182019081526020016000815260200160006001600160a01b0316815260200160008152602001600081525090565b60008281526002602052604090205460ff166106a257604051630603114960e01b81526004810183905260240161040c565b600082815260016020818152604092839020835160e0810185528154815281840154928101929092526002810154919390929084019160ff16908111156106eb576106eb61116c565b60018111156106fc576106fc61116c565b81526020016002820160019054906101000a900460ff1660028111156107245761072461116c565b60028111156107355761073561116c565b815260028201546201000090046001600160a01b031660208201526003820154604082015260049091015460609091015292915050565b7fe752add323323eb13e36c71ee508dfd16d74e9e4c4fd78786ba97989e5e1381861079681610dfe565b60008381526002602052604090205460ff166107c857604051630603114960e01b81526004810184905260240161040c565b600083815260016020819052604090912090600282015460ff1660018111156107f3576107f361116c565b1461083057600281015460ff1660018111156108115761081161116c565b604051638854d22d60e01b815260ff909116600482015260240161040c565b6000600282810154610100900460ff16908111156108505761085061116c565b1461087157604051632d93db7360e01b81526004810185905260240161040c565b62093a808160030154610884919061133e565b42106108ad57604051631f73222b60e21b8152600481018590526000602482015260440161040c565b60028101805461ff001916610200179055600084815260036020526040812084905560058054916108dd83611351565b9190505550837f918c2d541cbee9cd2bc4bbf365aef7002d0a7147d6578236c3080e731c1625068460405161091491815260200190565b60405180910390a250505050565b60008181526002602052604090205460ff1661095457604051630603114960e01b81526004810182905260240161040c565b600081815260016020526040812090600282810154610100900460ff16908111156109815761098161116c565b146109a257604051632d93db7360e01b81526004810183905260240161040c565b62093a8081600301546109b5919061133e565b4210156109fd57814262093a8083600301546109d1919061133e565b6109db919061136a565b604051631f73222b60e21b81526004810192909252602482015260440161040c565b60028101805461ff001916610100179055426004808301919091558054906000610a2683611351565b90915550506002810154604051670de0b6b3a76400008152620100009091046001600160a01b03169083907f3cbbb4765049102f7d16784aa5e5d53a1f94d5da6878a63974ffabb4989147d69060200160405180910390a35050565b60008181526002602052604081205460ff16610aa057506000919050565b600082815260016020819052604090912090600282015460ff166001811115610acb57610acb61116c565b14610ad95750600092915050565b6000600282810154610100900460ff1690811115610af957610af961116c565b14610b075750600092915050565b600062093a808260030154610b1c919061133e565b9050804210610b2f575060009392505050565b610b39428261136a565b949350505050565b60008181526002602052604081205460ff16610b7357604051630603114960e01b81526004810183905260240161040c565b600082815260016020526040812090600282810154610100900460ff1690811115610ba057610ba061116c565b14610bb75760020154610100900460ff1692915050565b6001600282015460ff166001811115610bd257610bd261116c565b03610c025762093a808160030154610bea919061133e565b4210610bf95750600192915050565b50600092915050565b60020154610100900460ff1692915050565b60606032821115610c3b5760405163707aa4ed60e11b81526004810183905260240161040c565b8167ffffffffffffffff811115610c5457610c5461137d565b604051908082528060200260200182016040528015610c7d578160200160208202803683370190505b50905060005b82811015610dd25760026000858584818110610ca157610ca16112fe565b602090810292909201358352508101919091526040016000205460ff16610d0a576002828281518110610cd657610cd66112fe565b60200260200101906002811115610cef57610cef61116c565b90816002811115610d0257610d0261116c565b905250610dca565b3063b142b4ec858584818110610d2257610d226112fe565b905060200201356040518263ffffffff1660e01b8152600401610d4791815260200190565b602060405180830381865afa158015610d64573d6000803e3d6000fd5b505050506040513d601f19601f82011682018060405250810190610d889190611393565b828281518110610d9a57610d9a6112fe565b60200260200101906002811115610db357610db361116c565b90816002811115610dc657610dc661116c565b9052505b600101610c83565b5092915050565b600082815260208190526040902060010154610df481610dfe565b61039f8383610e9d565b610e088133611029565b50565b6000610e1783836105fe565b610e95576000838152602081815260408083206001600160a01b03861684529091529020805460ff19166001179055610e4d3390565b6001600160a01b0316826001600160a01b0316847f2f8788117e7eff1d82e926ec794901d17c78024a50270940304540a733656f0d60405160405180910390a4506001610374565b506000610374565b6000610ea983836105fe565b15610e95576000838152602081815260408083206001600160a01b0386168085529252808320805460ff1916905551339286917ff6391f5c32d9c69d2a47ea670b442974b53935d1edc7fd64eb21e047a839171b9190a4506001610374565b60008481526001602052604090208315801590610f26575060048210155b15610fb15760028101805461ff001916610100179055426004808301919091558054906000610f5483611351565b90915550506002810154604051670de0b6b3a76400008152620100009091046001600160a01b03169086907f3cbbb4765049102f7d16784aa5e5d53a1f94d5da6878a63974ffabb4989147d69060200160405180910390a3611022565b60028101805461ff00191661020017905560058054906000610fd283611351565b9190505550847f918c2d541cbee9cd2bc4bbf365aef7002d0a7147d6578236c3080e731c1625066c34b73b30b634b22fb83937b7b360991b60405161101991815260200190565b60405180910390a25b5050505050565b61103382826105fe565b6110625760405163e2517d3f60e01b81526001600160a01b03821660048201526024810183905260440161040c565b5050565b60006020828403121561107857600080fd5b81356001600160e01b03198116811461109057600080fd5b9392505050565b6000602082840312156110a957600080fd5b5035919050565b600080604083850312156110c357600080fd5b8235915060208301356001600160a01b03811681146110e157600080fd5b809150509250929050565b6000806000806060858703121561110257600080fd5b8435935060208501359250604085013567ffffffffffffffff8082111561112857600080fd5b818701915087601f83011261113c57600080fd5b81358181111561114b57600080fd5b88602082850101111561115d57600080fd5b95989497505060200194505050565b634e487b7160e01b600052602160045260246000fd5b600281106111925761119261116c565b9052565b600381106111925761119261116c565b600060e082019050825182526020830151602083015260408301516111ce6040840182611182565b5060608301516111e16060840182611196565b5060018060a01b03608084015116608083015260a083015160a083015260c083015160c083015292915050565b6000806040838503121561122157600080fd5b50508035926020909101359150565b602081016103748284611196565b6000806020838503121561125157600080fd5b823567ffffffffffffffff8082111561126957600080fd5b818501915085601f83011261127d57600080fd5b81358181111561128c57600080fd5b8660208260051b85010111156112a157600080fd5b60209290920196919550909350505050565b6020808252825182820181905260009190848201906040850190845b818110156112f2576112e2838551611196565b92840192918401916001016112cf565b50909695505050505050565b634e487b7160e01b600052603260045260246000fd5b828152604081016110906020830184611182565b634e487b7160e01b600052601160045260246000fd5b8082018082111561037457610374611328565b60006001820161136357611363611328565b5060010190565b8181038181111561037457610374611328565b634e487b7160e01b600052604160045260246000fd5b6000602082840312156113a557600080fd5b81516003811061109057600080fdfea2646970667358221220c6bc6bec1d00c95fe17969aa53b0c96d8d114ce6ba96e3ee0a3d891d9e32b81164736f6c63430008180033","linkReferences":{}},"methodIdentifiers":{"CHALLENGER_ROLE()":"530adbb4","CHALLENGE_PERIOD()":"c3a079ed","DEFAULT_ADMIN_ROLE()":"a217fddf","MAX_BATCH_SIZE()":"cfdbf254","VERIFICATION_REWARD()":"fd4f9a21","VERIFIER_ROLE()":"e7705db6","batchVerify(bytes32[])":"c8fa6157","challengeProof(bytes32,bytes32)":"9b71697e","finalizeProof(bytes32)":"a877276d","getChallengeReason(bytes32)":"14f08c0f","getChallengeRemaining(bytes32)":"af68ac23","getProofData(bytes32)":"9546bf00","getRoleAdmin(bytes32)":"248a9ca3","grantRole(bytes32,address)":"2f2ff15d","hasRole(bytes32,address)":"91d14854","renounceRole(bytes32,address)":"36568abe","revokeRole(bytes32,address)":"d547741f","submitProof(bytes32,bytes32,bytes)":"52e0716a","supportsInterface(bytes4)":"01ffc9a7","totalRejected()":"072e1840","totalVerified()":"fe9eba15","verifyProof(bytes32)":"b142b4ec"},"id":57}