{"abi":[{"type":"constructor","inputs":[{"name":"_avatarCore","type":"address","internalType":"address"},{"name":"_protocolTreasury","type":"address","internalType":"address"}],"stateMutability":"nonpayable"},{"type":"receive","stateMutability":"payable"},{"type":"function","name":"avatarCore","inputs":[],"outputs":[{"name":"","type":"address","internalType":"contract IAvatarCore"}],"stateMutability":"view"},{"type":"function","name":"avatarRevenue","inputs":[{"name":"","type":"uint256","internalType":"uint256"}],"outputs":[{"name":"","type":"uint256","internalType":"uint256"}],"stateMutability":"view"},{"type":"function","name":"executeSplit","inputs":[{"name":"token","type":"address","internalType":"address"},{"name":"amount","type":"uint256","internalType":"uint256"},{"name":"avatarId","type":"uint256","internalType":"uint256"}],"outputs":[{"name":"result","type":"tuple","internalType":"struct ISplitter.SplitResult","components":[{"name":"humanAmount","type":"uint256","internalType":"uint256"},{"name":"avatarAmount","type":"uint256","internalType":"uint256"},{"name":"protocolAmount","type":"uint256","internalType":"uint256"},{"name":"config","type":"tuple","internalType":"struct ISplitter.SplitConfig","components":[{"name":"humanBps","type":"uint256","internalType":"uint256"},{"name":"avatarBps","type":"uint256","internalType":"uint256"},{"name":"protocolBps","type":"uint256","internalType":"uint256"}]}]}],"stateMutability":"nonpayable"},{"type":"function","name":"getAvatarRevenue","inputs":[{"name":"avatarId","type":"uint256","internalType":"uint256"}],"outputs":[{"name":"","type":"uint256","internalType":"uint256"}],"stateMutability":"view"},{"type":"function","name":"getSplitConfig","inputs":[{"name":"avatarId","type":"uint256","internalType":"uint256"}],"outputs":[{"name":"config","type":"tuple","internalType":"struct ISplitter.SplitConfig","components":[{"name":"humanBps","type":"uint256","internalType":"uint256"},{"name":"avatarBps","type":"uint256","internalType":"uint256"},{"name":"protocolBps","type":"uint256","internalType":"uint256"}]}],"stateMutability":"view"},{"type":"function","name":"owner","inputs":[],"outputs":[{"name":"","type":"address","internalType":"address"}],"stateMutability":"view"},{"type":"function","name":"protocolTreasury","inputs":[],"outputs":[{"name":"","type":"address","internalType":"address"}],"stateMutability":"view"},{"type":"function","name":"renounceOwnership","inputs":[],"outputs":[],"stateMutability":"nonpayable"},{"type":"function","name":"setAvatarCore","inputs":[{"name":"newAvatarCore","type":"address","internalType":"address"}],"outputs":[],"stateMutability":"nonpayable"},{"type":"function","name":"setProtocolTreasury","inputs":[{"name":"newTreasury","type":"address","internalType":"address"}],"outputs":[],"stateMutability":"nonpayable"},{"type":"function","name":"setTokenSupport","inputs":[{"name":"token","type":"address","internalType":"address"},{"name":"supported","type":"bool","internalType":"bool"}],"outputs":[],"stateMutability":"nonpayable"},{"type":"function","name":"supportedTokens","inputs":[{"name":"","type":"address","internalType":"address"}],"outputs":[{"name":"","type":"bool","internalType":"bool"}],"stateMutability":"view"},{"type":"function","name":"totalTokenRevenue","inputs":[{"name":"","type":"address","internalType":"address"}],"outputs":[{"name":"","type":"uint256","internalType":"uint256"}],"stateMutability":"view"},{"type":"function","name":"transferOwnership","inputs":[{"name":"newOwner","type":"address","internalType":"address"}],"outputs":[],"stateMutability":"nonpayable"},{"type":"event","name":"OwnershipTransferred","inputs":[{"name":"previousOwner","type":"address","indexed":true,"internalType":"address"},{"name":"newOwner","type":"address","indexed":true,"internalType":"address"}],"anonymous":false},{"type":"event","name":"RevenueSplit","inputs":[{"name":"token","type":"address","indexed":true,"internalType":"address"},{"name":"amount","type":"uint256","indexed":false,"internalType":"uint256"},{"name":"humanBps","type":"uint256","indexed":false,"internalType":"uint256"},{"name":"avatarBps","type":"uint256","indexed":false,"internalType":"uint256"},{"name":"protocolBps","type":"uint256","indexed":false,"internalType":"uint256"}],"anonymous":false},{"type":"event","name":"SplitConfigUpdated","inputs":[{"name":"avatarId","type":"uint256","indexed":true,"internalType":"uint256"},{"name":"humanBps","type":"uint256","indexed":false,"internalType":"uint256"},{"name":"avatarBps","type":"uint256","indexed":false,"internalType":"uint256"},{"name":"protocolBps","type":"uint256","indexed":false,"internalType":"uint256"}],"anonymous":false},{"type":"error","name":"AvatarFrozen","inputs":[{"name":"tokenId","type":"uint256","internalType":"uint256"}]},{"type":"error","name":"AvatarNotFoundForSplit","inputs":[{"name":"avatarId","type":"uint256","internalType":"uint256"}]},{"type":"error","name":"OwnableInvalidOwner","inputs":[{"name":"owner","type":"address","internalType":"address"}]},{"type":"error","name":"OwnableUnauthorizedAccount","inputs":[{"name":"account","type":"address","internalType":"address"}]},{"type":"error","name":"ReentrancyGuardReentrantCall","inputs":[]},{"type":"error","name":"TokenNotSupported","inputs":[{"name":"token","type":"address","internalType":"address"}]},{"type":"error","name":"TransferFailed","inputs":[]},{"type":"error","name":"ZeroAddress","inputs":[]},{"type":"error","name":"ZeroAmount","inputs":[]}],"bytecode":{"object":"0x608060405234801561001057600080fd5b5060405161108b38038061108b83398101604081905261002f91610170565b338061005557604051631e4fbdf760e01b81526000600482015260240160405180910390fd5b61005e81610104565b50600180556001600160a01b038216158061008057506001600160a01b038116155b1561009e5760405163d92e233d60e01b815260040160405180910390fd5b600280546001600160a01b039384166001600160a01b031991821617909155600380549290931691161790556000805260066020527f54cdd369e4e8a8515e52ca72ec816c2101831ad1f18bf44102ed171459c9b4f8805460ff191660011790556101a3565b600080546001600160a01b038381166001600160a01b0319831681178455604051919092169283917f8be0079c531659141344cd1fd0a4f28419497f9722a3daafe3b4186f6b6457e09190a35050565b80516001600160a01b038116811461016b57600080fd5b919050565b6000806040838503121561018357600080fd5b61018c83610154565b915061019a60208401610154565b90509250929050565b610ed9806101b26000396000f3fe6080604052600436106100e15760003560e01c8063a98380bb1161007f578063e0cb59bd11610059578063e0cb59bd1461028b578063e74b18ff146102b8578063f2fde38b146102e5578063f4c13fbc1461030557600080fd5b8063a98380bb14610210578063ac27831714610230578063bff345901461025057600080fd5b806368c4ac26116100bb57806368c4ac2614610165578063715018a6146101a5578063803db96d146101ba5780638da5cb5b146101f257600080fd5b80630c5a61f8146100ed5780630c6a753f1461010f57806328e8b14f1461012f57600080fd5b366100e857005b600080fd5b3480156100f957600080fd5b5061010d610108366004610c21565b610332565b005b34801561011b57600080fd5b5061010d61012a366004610c4c565b610383565b34801561013b57600080fd5b5061014f61014a366004610c85565b6103b6565b60405161015c9190610c9e565b60405180910390f35b34801561017157600080fd5b50610195610180366004610c21565b60066020526000908152604090205460ff1681565b604051901515815260200161015c565b3480156101b157600080fd5b5061010d61047f565b3480156101c657600080fd5b506003546101da906001600160a01b031681565b6040516001600160a01b03909116815260200161015c565b3480156101fe57600080fd5b506000546001600160a01b03166101da565b34801561021c57600080fd5b506002546101da906001600160a01b031681565b34801561023c57600080fd5b5061010d61024b366004610c21565b610493565b34801561025c57600080fd5b5061027d61026b366004610c85565b60009081526004602052604090205490565b60405190815260200161015c565b34801561029757600080fd5b5061027d6102a6366004610c85565b60046020526000908152604090205481565b3480156102c457600080fd5b506102d86102d3366004610cc1565b6104e4565b60405161015c9190610cf6565b3480156102f157600080fd5b5061010d610300366004610c21565b6109e5565b34801561031157600080fd5b5061027d610320366004610c21565b60056020526000908152604090205481565b61033a610a23565b6001600160a01b0381166103615760405163d92e233d60e01b815260040160405180910390fd5b600380546001600160a01b0319166001600160a01b0392909216919091179055565b61038b610a23565b6001600160a01b03919091166000908152600660205260409020805460ff1916911515919091179055565b6103da60405180606001604052806000815260200160008152602001600081525090565b600254604051631a84daaf60e31b8152600481018490526000916001600160a01b03169063d426d5789060240160e060405180830381865afa158015610424573d6000803e3d6000fd5b505050506040513d601f19601f820116820180604052508101906104489190610d5d565b9050600080600061045c8460400151610a50565b604080516060810182529384526020840192909252908201529695505050505050565b610487610a23565b6104916000610a84565b565b61049b610a23565b6001600160a01b0381166104c25760405163d92e233d60e01b815260040160405180910390fd5b600280546001600160a01b0319166001600160a01b0392909216919091179055565b6104ec610bc3565b6104f4610ad4565b8260000361051557604051631f2a200560e01b815260040160405180910390fd5b6001600160a01b03841660009081526006602052604090205460ff1661055e576040516306439c6b60e01b81526001600160a01b03851660048201526024015b60405180910390fd5b61059e6040805160e08101825260008082526020820181905291810182905260608101829052906080820190815260200160008152602001600081525090565b600254604051631a84daaf60e31b8152600481018590526001600160a01b039091169063d426d5789060240160e060405180830381865afa925050508015610603575060408051601f3d908101601f1916820190925261060091810190610d5d565b60015b6106235760405163348785b760e11b815260048101849052602401610555565b905060028160800151600281111561063d5761063d610dfb565b0361065e57604051636c0471ef60e11b815260048101849052602401610555565b60008060006106708460400151610a50565b925092509250604051806060016040528084815260200183815260200182815250856060018190525060008060006106aa8a878787610afe565b828b5260208b0182905260408b01819052919450925090506001600160a01b038b166107be5786516040516000916001600160a01b03169085908381818185875af1925050503d806000811461071c576040519150601f19603f3d011682016040523d82523d6000602084013e610721565b606091505b5050905080610743576040516312171d8360e31b815260040160405180910390fd5b6003546040516000916001600160a01b03169084908381818185875af1925050503d8060008114610790576040519150601f19603f3d011682016040523d82523d6000602084013e610795565b606091505b50509050806107b7576040516312171d8360e31b815260040160405180910390fd5b50506108e8565b865160405163a9059cbb60e01b81526001600160a01b039182166004820152602481018590528c9182169063a9059cbb906044016020604051808303816000875af1158015610811573d6000803e3d6000fd5b505050506040513d601f19601f820116820180604052508101906108359190610e11565b610852576040516312171d8360e31b815260040160405180910390fd5b60035460405163a9059cbb60e01b81526001600160a01b039182166004820152602481018490529082169063a9059cbb906044016020604051808303816000875af11580156108a5573d6000803e3d6000fd5b505050506040513d601f19601f820116820180604052508101906108c99190610e11565b6108e6576040516312171d8360e31b815260040160405180910390fd5b505b600089815260046020526040812080548c9290610906908490610e44565b90915550506001600160a01b038b16600090815260056020526040812080548c9290610933908490610e44565b9091555050604080518b815260208101889052908101869052606081018590526001600160a01b038c16907fd5fc5a9c9be16980c8eb08585c83f7a8a4979472caa283c694e24bdac191eb7b9060800160405180910390a2604080518781526020810187905290810185905289907fb6b7a7449b8c6e84e29ea42936784ec2b4b16977cde650bb9327d9196c3b7b859060600160405180910390a2505050505050506109de60018055565b9392505050565b6109ed610a23565b6001600160a01b038116610a1757604051631e4fbdf760e01b815260006004820152602401610555565b610a2081610a84565b50565b6000546001600160a01b031633146104915760405163118cdaa760e01b8152336004820152602401610555565b6000806000610a5e84610b55565b91506103e8905080610a7283612710610e57565b610a7c9190610e57565b949193509150565b600080546001600160a01b038381166001600160a01b0319831681178455604051919092169283917f8be0079c531659141344cd1fd0a4f28419497f9722a3daafe3b4186f6b6457e09190a35050565b600260015403610af757604051633ee5aeb560e01b815260040160405180910390fd5b6002600155565b60008080612710610b0f8789610e6a565b610b199190610e81565b9250612710610b288689610e6a565b610b329190610e81565b915081610b3f8489610e57565b610b499190610e57565b90509450945094915050565b600060468210610b6857506105dc919050565b60006032610b77846046610e57565b610b819190610e6a565b9050610b92816105dc6109c4610b9b565b9150505b919050565b600082841015610bac5750816109de565b81841115610bbb5750806109de565b509192915050565b6040518060800160405280600081526020016000815260200160008152602001610c0760405180606001604052806000815260200160008152602001600081525090565b905290565b6001600160a01b0381168114610a2057600080fd5b600060208284031215610c3357600080fd5b81356109de81610c0c565b8015158114610a2057600080fd5b60008060408385031215610c5f57600080fd5b8235610c6a81610c0c565b91506020830135610c7a81610c3e565b809150509250929050565b600060208284031215610c9757600080fd5b5035919050565b815181526020808301519082015260408083015190820152606081015b92915050565b600080600060608486031215610cd657600080fd5b8335610ce181610c0c565b95602085013595506040909401359392505050565b600060c0820190508251825260208301516020830152604083015160408301526060830151610d3c60608401828051825260208082015190830152604090810151910152565b5092915050565b8051610b9681610c0c565b805160038110610b9657600080fd5b600060e08284031215610d6f57600080fd5b60405160e0810181811067ffffffffffffffff82111715610da057634e487b7160e01b600052604160045260246000fd5b604052610dac83610d43565b8152602083015160208201526040830151604082015260608301516060820152610dd860808401610d4e565b608082015260a083015160a082015260c083015160c08201528091505092915050565b634e487b7160e01b600052602160045260246000fd5b600060208284031215610e2357600080fd5b81516109de81610c3e565b634e487b7160e01b600052601160045260246000fd5b80820180821115610cbb57610cbb610e2e565b81810381811115610cbb57610cbb610e2e565b8082028115828204841417610cbb57610cbb610e2e565b600082610e9e57634e487b7160e01b600052601260045260246000fd5b50049056fea264697066735822122097da48666f9959e53c1e19ab4f3c71638fa8bff2cd9412f78a4aa18dc8de247f64736f6c63430008180033","linkReferences":{}},"methodIdentifiers":{"avatarCore()":"a98380bb","avatarRevenue(uint256)":"e0cb59bd","executeSplit(address,uint256,uint256)":"e74b18ff","getAvatarRevenue(uint256)":"bff34590","getSplitConfig(uint256)":"28e8b14f","owner()":"8da5cb5b","protocolTreasury()":"803db96d","renounceOwnership()":"715018a6","setAvatarCore(address)":"ac278317","setProtocolTreasury(address)":"0c5a61f8","setTokenSupport(address,bool)":"0c6a753f","supportedTokens(address)":"68c4ac26","totalTokenRevenue(address)":"f4c13fbc","transferOwnership(address)":"f2fde38b"},"id":52}