{"abi":[{"type":"constructor","inputs":[{"name":"_requiredConfirmations","type":"uint256","internalType":"uint256"}],"stateMutability":"nonpayable"},{"type":"function","name":"HARD_PAUSE_COOLDOWN","inputs":[],"outputs":[{"name":"","type":"uint256","internalType":"uint256"}],"stateMutability":"view"},{"type":"function","name":"NORMAL_THRESHOLD","inputs":[],"outputs":[{"name":"","type":"uint256","internalType":"uint256"}],"stateMutability":"view"},{"type":"function","name":"SOFT_LIMIT_COOLDOWN","inputs":[],"outputs":[{"name":"","type":"uint256","internalType":"uint256"}],"stateMutability":"view"},{"type":"function","name":"SOFT_LIMIT_THRESHOLD","inputs":[],"outputs":[{"name":"","type":"uint256","internalType":"uint256"}],"stateMutability":"view"},{"type":"function","name":"addGuardian","inputs":[{"name":"guardian","type":"address","internalType":"address"}],"outputs":[],"stateMutability":"nonpayable"},{"type":"function","name":"completeRecovery","inputs":[{"name":"avatarId","type":"uint256","internalType":"uint256"}],"outputs":[],"stateMutability":"nonpayable"},{"type":"function","name":"evaluateState","inputs":[{"name":"resonanceScore","type":"uint256","internalType":"uint256"}],"outputs":[{"name":"","type":"uint8","internalType":"enum ICircuitGuard.CircuitState"}],"stateMutability":"pure"},{"type":"function","name":"getCircuitState","inputs":[{"name":"avatarId","type":"uint256","internalType":"uint256"}],"outputs":[{"name":"","type":"uint8","internalType":"enum ICircuitGuard.CircuitState"}],"stateMutability":"view"},{"type":"function","name":"getRecoveryCooldown","inputs":[{"name":"avatarId","type":"uint256","internalType":"uint256"}],"outputs":[{"name":"","type":"uint256","internalType":"uint256"}],"stateMutability":"view"},{"type":"function","name":"guardians","inputs":[{"name":"","type":"address","internalType":"address"}],"outputs":[{"name":"","type":"bool","internalType":"bool"}],"stateMutability":"view"},{"type":"function","name":"isActionAllowed","inputs":[{"name":"state","type":"uint8","internalType":"enum ICircuitGuard.CircuitState"},{"name":"action","type":"uint8","internalType":"enum ICircuitGuard.ActionType"}],"outputs":[{"name":"","type":"bool","internalType":"bool"}],"stateMutability":"pure"},{"type":"function","name":"owner","inputs":[],"outputs":[{"name":"","type":"address","internalType":"address"}],"stateMutability":"view"},{"type":"function","name":"removeGuardian","inputs":[{"name":"guardian","type":"address","internalType":"address"}],"outputs":[],"stateMutability":"nonpayable"},{"type":"function","name":"renounceOwnership","inputs":[],"outputs":[],"stateMutability":"nonpayable"},{"type":"function","name":"requiredConfirmations","inputs":[],"outputs":[{"name":"","type":"uint256","internalType":"uint256"}],"stateMutability":"view"},{"type":"function","name":"setRequiredConfirmations","inputs":[{"name":"newRequired","type":"uint256","internalType":"uint256"}],"outputs":[],"stateMutability":"nonpayable"},{"type":"function","name":"transferOwnership","inputs":[{"name":"newOwner","type":"address","internalType":"address"}],"outputs":[],"stateMutability":"nonpayable"},{"type":"function","name":"triggerRecovery","inputs":[{"name":"avatarId","type":"uint256","internalType":"uint256"}],"outputs":[],"stateMutability":"nonpayable"},{"type":"function","name":"updateCircuitState","inputs":[{"name":"avatarId","type":"uint256","internalType":"uint256"},{"name":"resonanceScore","type":"uint256","internalType":"uint256"}],"outputs":[],"stateMutability":"nonpayable"},{"type":"event","name":"CircuitStateChanged","inputs":[{"name":"avatarId","type":"uint256","indexed":true,"internalType":"uint256"},{"name":"fromState","type":"uint8","indexed":false,"internalType":"enum ICircuitGuard.CircuitState"},{"name":"toState","type":"uint8","indexed":false,"internalType":"enum ICircuitGuard.CircuitState"}],"anonymous":false},{"type":"event","name":"OwnershipTransferred","inputs":[{"name":"previousOwner","type":"address","indexed":true,"internalType":"address"},{"name":"newOwner","type":"address","indexed":true,"internalType":"address"}],"anonymous":false},{"type":"event","name":"RecoveryCompleted","inputs":[{"name":"avatarId","type":"uint256","indexed":true,"internalType":"uint256"},{"name":"newState","type":"uint8","indexed":false,"internalType":"enum ICircuitGuard.CircuitState"}],"anonymous":false},{"type":"event","name":"RecoveryTriggered","inputs":[{"name":"avatarId","type":"uint256","indexed":true,"internalType":"uint256"},{"name":"recoverAt","type":"uint256","indexed":false,"internalType":"uint256"}],"anonymous":false},{"type":"error","name":"AlreadyInState","inputs":[{"name":"avatarId","type":"uint256","internalType":"uint256"},{"name":"state","type":"uint8","internalType":"uint8"}]},{"type":"error","name":"HardPauseRequiresMultiSig","inputs":[{"name":"avatarId","type":"uint256","internalType":"uint256"}]},{"type":"error","name":"InvalidCircuitState","inputs":[{"name":"state","type":"uint8","internalType":"uint8"}]},{"type":"error","name":"OwnableInvalidOwner","inputs":[{"name":"owner","type":"address","internalType":"address"}]},{"type":"error","name":"OwnableUnauthorizedAccount","inputs":[{"name":"account","type":"address","internalType":"address"}]},{"type":"error","name":"RecoveryOnCooldown","inputs":[{"name":"avatarId","type":"uint256","internalType":"uint256"},{"name":"remainingTime","type":"uint256","internalType":"uint256"}]},{"type":"error","name":"ZeroAddress","inputs":[]}],"bytecode":{"object":"0x608060405234801561001057600080fd5b50604051610c2b380380610c2b83398101604081905261002f916100dc565b338061005657604051631e4fbdf760e01b8152600060048201526024015b60405180910390fd5b61005f8161008c565b5080600003610084576040516310930b5560e11b81526000600482015260240161004d565b6007556100f5565b600080546001600160a01b038381166001600160a01b0319831681178455604051919092169283917f8be0079c531659141344cd1fd0a4f28419497f9722a3daafe3b4186f6b6457e09190a35050565b6000602082840312156100ee57600080fd5b5051919050565b610b27806101046000396000f3fe608060405234801561001057600080fd5b50600436106101215760003560e01c806373978b04116100ad57806392557f141161007157806392557f1414610245578063a526d83b14610268578063cd03128e1461027b578063f2fde38b14610285578063fa3c285f1461029857600080fd5b806373978b04146101e85780637b7c343d146101fb57806382e717f71461020e57806385fb8449146102175780638da5cb5b1461022a57600080fd5b8063404f85ab116100f4578063404f85ab146101a957806363796b99146101b1578063660fa157146101ba57806371404156146101cd578063715018a6146101e057600080fd5b80630633b14a146101265780631188d7f11461015e5780631dc15c75146101735780632d8c63c214610193575b600080fd5b610149610134366004610996565b60046020526000908152604090205460ff1681565b60405190151581526020015b60405180910390f35b61017161016c3660046109bf565b6102ab565b005b6101866101813660046109bf565b610476565b6040516101559190610a10565b61019b603281565b604051908152602001610155565b61019b604681565b61019b610e1081565b6101496101c8366004610a1e565b610487565b6101716101db366004610996565b61049a565b6101716104c3565b61019b6101f63660046109bf565b6104d7565b6101716102093660046109bf565b610572565b61019b60075481565b6101716102253660046109bf565b6105a3565b6000546040516001600160a01b039091168152602001610155565b6101866102533660046109bf565b60009081526001602052604090205460ff1690565b610171610276366004610996565b61072d565b61019b6201518081565b610171610293366004610996565b610780565b6101716102a6366004610a5f565b6107be565b60008181526001602052604081205460ff16908160028111156102d0576102d06109d8565b036102fd5760405163fb78da6560e01b815260048101839052600060248201526044015b60405180910390fd5b6002816002811115610311576103116109d8565b036103df573360009081526004602052604090205460ff1615801561034157506000546001600160a01b03163314155b156103625760405163ad62e12560e01b8152600481018390526024016102f4565b600082815260056020908152604080832033845290915290205460ff166103c35760008281526005602090815260408083203384528252808320805460ff19166001179055848352600690915281208054916103bd83610a97565b91905055505b60075460008381526006602052604090205410156103df575050565b600060018260028111156103f5576103f56109d8565b146104035762015180610407565b610e105b600084815260026020908152604080832042908190556003909252909120805460ff1916905590915083907f04c9f93e0517d369d8494f22350535f7ca58da68fceaf7b34970262da9baded89061045f908490610ab0565b6040519081526020015b60405180910390a2505050565b60006104818261087b565b92915050565b600061049383836108a5565b9392505050565b6104a2610919565b6001600160a01b03166000908152600460205260409020805460ff19169055565b6104cb610919565b6104d56000610946565b565b60008181526002602052604081205481036104f457506000919050565b600082815260016020819052604082205460ff16919082600281111561051c5761051c6109d8565b1461052a576201518061052e565b610e105b6000858152600260205260408120549192509061054b9042610ac3565b905081811061055f57506000949350505050565b6105698183610ac3565b95945050505050565b61057a610919565b8060000361059e576040516310930b5560e11b8152600060048201526024016102f4565b600755565b6000600160008381526001602052604090205460ff1660028111156105ca576105ca6109d8565b146105d857620151806105dc565b610e105b6000838152600260205260408120549192500361061657604051639c7201a360e01b815260048101839052600060248201526044016102f4565b60008281526002602052604090205481906106319042610ac3565b101561067e5760008281526002602052604090205482906106529042610ac3565b61065c9083610ac3565b604051639c7201a360e01b8152600481019290925260248201526044016102f4565b6000828152600160209081526040808320805460ff198082169092556002845282852085905560038452828520805490921690915560069092528083208390555160ff9091169184917f2582e4a57dbf93c09a12e5e0fe648698dc31bcdf27bef7c06703502797997620916106f291610a10565b60405180910390a2827f9bccf54d15e28729b8189c9d0c608d89b5c08e515fd4834292f7b2402c5fea4c826000604051610469929190610ad6565b610735610919565b6001600160a01b03811661075c5760405163d92e233d60e01b815260040160405180910390fd5b6001600160a01b03166000908152600460205260409020805460ff19166001179055565b610788610919565b6001600160a01b0381166107b257604051631e4fbdf760e01b8152600060048201526024016102f4565b6107bb81610946565b50565b60006107c98261087b565b60008481526001602052604090205490915060ff168160028111156107f0576107f06109d8565b816002811115610802576108026109d8565b146108755760008481526001602081905260409091208054849260ff1990911690836002811115610835576108356109d8565b0217905550837f9bccf54d15e28729b8189c9d0c608d89b5c08e515fd4834292f7b2402c5fea4c828460405161086c929190610ad6565b60405180910390a25b50505050565b60006046821061088d57506000919050565b6032821061089d57506001919050565b506002919050565b6000808360028111156108ba576108ba6109d8565b036108c757506001610481565b60018360028111156108db576108db6109d8565b036108fd5760058260058111156108f4576108f46109d8565b14159050610481565b6000826005811115610911576109116109d8565b149392505050565b6000546001600160a01b031633146104d55760405163118cdaa760e01b81523360048201526024016102f4565b600080546001600160a01b038381166001600160a01b0319831681178455604051919092169283917f8be0079c531659141344cd1fd0a4f28419497f9722a3daafe3b4186f6b6457e09190a35050565b6000602082840312156109a857600080fd5b81356001600160a01b038116811461049357600080fd5b6000602082840312156109d157600080fd5b5035919050565b634e487b7160e01b600052602160045260246000fd5b60038110610a0c57634e487b7160e01b600052602160045260246000fd5b9052565b6020810161048182846109ee565b60008060408385031215610a3157600080fd5b823560038110610a4057600080fd5b9150602083013560068110610a5457600080fd5b809150509250929050565b60008060408385031215610a7257600080fd5b50508035926020909101359150565b634e487b7160e01b600052601160045260246000fd5b600060018201610aa957610aa9610a81565b5060010190565b8082018082111561048157610481610a81565b8181038181111561048157610481610a81565b60408101610ae482856109ee565b61049360208301846109ee56fea2646970667358221220d9709feaaffbd642593f91edf0f795a3a83487335eb258d640911f973c67b09164736f6c63430008180033","linkReferences":{}},"methodIdentifiers":{"HARD_PAUSE_COOLDOWN()":"cd03128e","NORMAL_THRESHOLD()":"404f85ab","SOFT_LIMIT_COOLDOWN()":"63796b99","SOFT_LIMIT_THRESHOLD()":"2d8c63c2","addGuardian(address)":"a526d83b","completeRecovery(uint256)":"85fb8449","evaluateState(uint256)":"1dc15c75","getCircuitState(uint256)":"92557f14","getRecoveryCooldown(uint256)":"73978b04","guardians(address)":"0633b14a","isActionAllowed(uint8,uint8)":"660fa157","owner()":"8da5cb5b","removeGuardian(address)":"71404156","renounceOwnership()":"715018a6","requiredConfirmations()":"82e717f7","setRequiredConfirmations(uint256)":"7b7c343d","transferOwnership(address)":"f2fde38b","triggerRecovery(uint256)":"1188d7f1","updateCircuitState(uint256,uint256)":"fa3c285f"},"id":51}