{"abi":[{"type":"constructor","inputs":[],"stateMutability":"nonpayable"},{"type":"function","name":"addAvatarBalance","inputs":[{"name":"tokenId","type":"uint256","internalType":"uint256"},{"name":"amount","type":"uint256","internalType":"uint256"}],"outputs":[],"stateMutability":"nonpayable"},{"type":"function","name":"approve","inputs":[{"name":"to","type":"address","internalType":"address"},{"name":"tokenId","type":"uint256","internalType":"uint256"}],"outputs":[],"stateMutability":"nonpayable"},{"type":"function","name":"balanceOf","inputs":[{"name":"owner","type":"address","internalType":"address"}],"outputs":[{"name":"","type":"uint256","internalType":"uint256"}],"stateMutability":"view"},{"type":"function","name":"circuitGuard","inputs":[],"outputs":[{"name":"","type":"address","internalType":"address"}],"stateMutability":"view"},{"type":"function","name":"createAvatar","inputs":[{"name":"owner","type":"address","internalType":"address"},{"name":"cognitionRoot","type":"bytes32","internalType":"bytes32"},{"name":"resonanceScore","type":"uint256","internalType":"uint256"}],"outputs":[{"name":"tokenId","type":"uint256","internalType":"uint256"}],"stateMutability":"nonpayable"},{"type":"function","name":"getApproved","inputs":[{"name":"tokenId","type":"uint256","internalType":"uint256"}],"outputs":[{"name":"","type":"address","internalType":"address"}],"stateMutability":"view"},{"type":"function","name":"getAvatarByOwner","inputs":[{"name":"owner","type":"address","internalType":"address"}],"outputs":[{"name":"tokenId","type":"uint256","internalType":"uint256"}],"stateMutability":"view"},{"type":"function","name":"getAvatarProfile","inputs":[{"name":"tokenId","type":"uint256","internalType":"uint256"}],"outputs":[{"name":"","type":"tuple","internalType":"struct IAvatarCore.AvatarProfile","components":[{"name":"owner","type":"address","internalType":"address"},{"name":"cognitionRoot","type":"bytes32","internalType":"bytes32"},{"name":"resonanceScore","type":"uint256","internalType":"uint256"},{"name":"avatarBalance","type":"uint256","internalType":"uint256"},{"name":"circuitState","type":"uint8","internalType":"enum IAvatarCore.CircuitState"},{"name":"createdAt","type":"uint256","internalType":"uint256"},{"name":"lastActivityAt","type":"uint256","internalType":"uint256"}]}],"stateMutability":"view"},{"type":"function","name":"isApprovedForAll","inputs":[{"name":"owner","type":"address","internalType":"address"},{"name":"operator","type":"address","internalType":"address"}],"outputs":[{"name":"","type":"bool","internalType":"bool"}],"stateMutability":"view"},{"type":"function","name":"name","inputs":[],"outputs":[{"name":"","type":"string","internalType":"string"}],"stateMutability":"view"},{"type":"function","name":"owner","inputs":[],"outputs":[{"name":"","type":"address","internalType":"address"}],"stateMutability":"view"},{"type":"function","name":"ownerOf","inputs":[{"name":"tokenId","type":"uint256","internalType":"uint256"}],"outputs":[{"name":"","type":"address","internalType":"address"}],"stateMutability":"view"},{"type":"function","name":"renounceOwnership","inputs":[],"outputs":[],"stateMutability":"nonpayable"},{"type":"function","name":"safeTransferFrom","inputs":[{"name":"from","type":"address","internalType":"address"},{"name":"to","type":"address","internalType":"address"},{"name":"tokenId","type":"uint256","internalType":"uint256"}],"outputs":[],"stateMutability":"nonpayable"},{"type":"function","name":"safeTransferFrom","inputs":[{"name":"from","type":"address","internalType":"address"},{"name":"to","type":"address","internalType":"address"},{"name":"tokenId","type":"uint256","internalType":"uint256"},{"name":"data","type":"bytes","internalType":"bytes"}],"outputs":[],"stateMutability":"nonpayable"},{"type":"function","name":"setApprovalForAll","inputs":[{"name":"operator","type":"address","internalType":"address"},{"name":"approved","type":"bool","internalType":"bool"}],"outputs":[],"stateMutability":"nonpayable"},{"type":"function","name":"setCircuitGuard","inputs":[{"name":"guard","type":"address","internalType":"address"}],"outputs":[],"stateMutability":"nonpayable"},{"type":"function","name":"supportsInterface","inputs":[{"name":"interfaceId","type":"bytes4","internalType":"bytes4"}],"outputs":[{"name":"","type":"bool","internalType":"bool"}],"stateMutability":"view"},{"type":"function","name":"symbol","inputs":[],"outputs":[{"name":"","type":"string","internalType":"string"}],"stateMutability":"view"},{"type":"function","name":"tokenURI","inputs":[{"name":"tokenId","type":"uint256","internalType":"uint256"}],"outputs":[{"name":"","type":"string","internalType":"string"}],"stateMutability":"view"},{"type":"function","name":"totalSupply","inputs":[],"outputs":[{"name":"","type":"uint256","internalType":"uint256"}],"stateMutability":"view"},{"type":"function","name":"transferFrom","inputs":[{"name":"from","type":"address","internalType":"address"},{"name":"to","type":"address","internalType":"address"},{"name":"tokenId","type":"uint256","internalType":"uint256"}],"outputs":[],"stateMutability":"nonpayable"},{"type":"function","name":"transferOwnership","inputs":[{"name":"newOwner","type":"address","internalType":"address"}],"outputs":[],"stateMutability":"nonpayable"},{"type":"function","name":"updateCognitionRoot","inputs":[{"name":"tokenId","type":"uint256","internalType":"uint256"},{"name":"newRoot","type":"bytes32","internalType":"bytes32"}],"outputs":[],"stateMutability":"nonpayable"},{"type":"function","name":"updateResonanceScore","inputs":[{"name":"tokenId","type":"uint256","internalType":"uint256"},{"name":"newScore","type":"uint256","internalType":"uint256"}],"outputs":[],"stateMutability":"nonpayable"},{"type":"function","name":"verifyCognitiveOwnership","inputs":[{"name":"tokenId","type":"uint256","internalType":"uint256"},{"name":"claimer","type":"address","internalType":"address"}],"outputs":[{"name":"","type":"bool","internalType":"bool"}],"stateMutability":"view"},{"type":"event","name":"Approval","inputs":[{"name":"owner","type":"address","indexed":true,"internalType":"address"},{"name":"approved","type":"address","indexed":true,"internalType":"address"},{"name":"tokenId","type":"uint256","indexed":true,"internalType":"uint256"}],"anonymous":false},{"type":"event","name":"ApprovalForAll","inputs":[{"name":"owner","type":"address","indexed":true,"internalType":"address"},{"name":"operator","type":"address","indexed":true,"internalType":"address"},{"name":"approved","type":"bool","indexed":false,"internalType":"bool"}],"anonymous":false},{"type":"event","name":"AvatarCreated","inputs":[{"name":"tokenId","type":"uint256","indexed":true,"internalType":"uint256"},{"name":"owner","type":"address","indexed":true,"internalType":"address"},{"name":"cognitionRoot","type":"bytes32","indexed":false,"internalType":"bytes32"},{"name":"resonanceScore","type":"uint256","indexed":false,"internalType":"uint256"}],"anonymous":false},{"type":"event","name":"BatchMetadataUpdate","inputs":[{"name":"_fromTokenId","type":"uint256","indexed":false,"internalType":"uint256"},{"name":"_toTokenId","type":"uint256","indexed":false,"internalType":"uint256"}],"anonymous":false},{"type":"event","name":"CircuitStateChanged","inputs":[{"name":"tokenId","type":"uint256","indexed":true,"internalType":"uint256"},{"name":"fromState","type":"uint8","indexed":false,"internalType":"enum IAvatarCore.CircuitState"},{"name":"toState","type":"uint8","indexed":false,"internalType":"enum IAvatarCore.CircuitState"}],"anonymous":false},{"type":"event","name":"CognitionRootUpdated","inputs":[{"name":"tokenId","type":"uint256","indexed":true,"internalType":"uint256"},{"name":"oldRoot","type":"bytes32","indexed":true,"internalType":"bytes32"},{"name":"newRoot","type":"bytes32","indexed":true,"internalType":"bytes32"}],"anonymous":false},{"type":"event","name":"MetadataUpdate","inputs":[{"name":"_tokenId","type":"uint256","indexed":false,"internalType":"uint256"}],"anonymous":false},{"type":"event","name":"OwnershipTransferred","inputs":[{"name":"previousOwner","type":"address","indexed":true,"internalType":"address"},{"name":"newOwner","type":"address","indexed":true,"internalType":"address"}],"anonymous":false},{"type":"event","name":"ResonanceScoreUpdated","inputs":[{"name":"tokenId","type":"uint256","indexed":true,"internalType":"uint256"},{"name":"oldScore","type":"uint256","indexed":false,"internalType":"uint256"},{"name":"newScore","type":"uint256","indexed":false,"internalType":"uint256"}],"anonymous":false},{"type":"event","name":"Transfer","inputs":[{"name":"from","type":"address","indexed":true,"internalType":"address"},{"name":"to","type":"address","indexed":true,"internalType":"address"},{"name":"tokenId","type":"uint256","indexed":true,"internalType":"uint256"}],"anonymous":false},{"type":"error","name":"AvatarAlreadyExists","inputs":[{"name":"tokenId","type":"uint256","internalType":"uint256"}]},{"type":"error","name":"AvatarFrozen","inputs":[{"name":"tokenId","type":"uint256","internalType":"uint256"}]},{"type":"error","name":"AvatarNotFound","inputs":[{"name":"tokenId","type":"uint256","internalType":"uint256"}]},{"type":"error","name":"ERC721IncorrectOwner","inputs":[{"name":"sender","type":"address","internalType":"address"},{"name":"tokenId","type":"uint256","internalType":"uint256"},{"name":"owner","type":"address","internalType":"address"}]},{"type":"error","name":"ERC721InsufficientApproval","inputs":[{"name":"operator","type":"address","internalType":"address"},{"name":"tokenId","type":"uint256","internalType":"uint256"}]},{"type":"error","name":"ERC721InvalidApprover","inputs":[{"name":"approver","type":"address","internalType":"address"}]},{"type":"error","name":"ERC721InvalidOperator","inputs":[{"name":"operator","type":"address","internalType":"address"}]},{"type":"error","name":"ERC721InvalidOwner","inputs":[{"name":"owner","type":"address","internalType":"address"}]},{"type":"error","name":"ERC721InvalidReceiver","inputs":[{"name":"receiver","type":"address","internalType":"address"}]},{"type":"error","name":"ERC721InvalidSender","inputs":[{"name":"sender","type":"address","internalType":"address"}]},{"type":"error","name":"ERC721NonexistentToken","inputs":[{"name":"tokenId","type":"uint256","internalType":"uint256"}]},{"type":"error","name":"InvalidCognitionRoot","inputs":[]},{"type":"error","name":"InvalidResonanceScore","inputs":[{"name":"score","type":"uint256","internalType":"uint256"}]},{"type":"error","name":"NotAvatarOwner","inputs":[{"name":"caller","type":"address","internalType":"address"},{"name":"tokenId","type":"uint256","internalType":"uint256"}]},{"type":"error","name":"OwnableInvalidOwner","inputs":[{"name":"owner","type":"address","internalType":"address"}]},{"type":"error","name":"OwnableUnauthorizedAccount","inputs":[{"name":"account","type":"address","internalType":"address"}]},{"type":"error","name":"ReentrancyGuardReentrantCall","inputs":[]},{"type":"error","name":"Unauthorized","inputs":[{"name":"caller","type":"address","internalType":"address"}]},{"type":"error","name":"ZeroAddress","inputs":[]}],"bytecode":{"object":"0x60806040523480156200001157600080fd5b50336040518060400160405280600981526020016821211020bb30ba30b960b91b81525060405180604001604052806004815260200163212120ab60e11b8152508160009081620000639190620001b9565b506001620000728282620001b9565b5050506001600160a01b038116620000a457604051631e4fbdf760e01b81526000600482015260240160405180910390fd5b620000af81620000c0565b506001600881905560095562000285565b600780546001600160a01b038381166001600160a01b0319831681179093556040519116919082907f8be0079c531659141344cd1fd0a4f28419497f9722a3daafe3b4186f6b6457e090600090a35050565b634e487b7160e01b600052604160045260246000fd5b600181811c908216806200013d57607f821691505b6020821081036200015e57634e487b7160e01b600052602260045260246000fd5b50919050565b601f821115620001b4576000816000526020600020601f850160051c810160208610156200018f5750805b601f850160051c820191505b81811015620001b0578281556001016200019b565b5050505b505050565b81516001600160401b03811115620001d557620001d562000112565b620001ed81620001e6845462000128565b8462000164565b602080601f8311600181146200022557600084156200020c5750858301515b600019600386901b1c1916600185901b178555620001b0565b600085815260208120601f198616915b82811015620002565788860151825594840194600190910190840162000235565b5085821015620002755787850151600019600388901b60f8161c191681555b5050505050600190811b01905550565b611d1e80620002956000396000f3fe608060405234801561001057600080fd5b506004361061018e5760003560e01c80637f964b29116100de578063b88d4fde11610097578063d426d57811610071578063d426d57814610367578063dd31e6f214610387578063e985e9c51461039a578063f2fde38b146103ad57600080fd5b8063b88d4fde14610318578063c87b56dd1461032b578063ce6b27fa1461033e57600080fd5b80637f964b29146102b3578063807dfa0c146102c65780638da5cb5b146102d95780638e4ead37146102ea57806395d89b41146102fd578063a22cb4651461030557600080fd5b80632fba1d721161014b578063580cb97311610125578063580cb973146102725780636352211e1461028557806370a0823114610298578063715018a6146102ab57600080fd5b80632fba1d721461023957806342842e0e1461024c57806357092dcf1461025f57600080fd5b806301ffc9a71461019357806306fdde03146101bb578063081812fc146101d0578063095ea7b3146101fb57806318160ddd1461021057806323b872dd14610226575b600080fd5b6101a66101a1366004611817565b6103c0565b60405190151581526020015b60405180910390f35b6101c36103d1565b6040516101b29190611884565b6101e36101de366004611897565b610463565b6040516001600160a01b0390911681526020016101b2565b61020e6102093660046118cc565b61048c565b005b61021861049b565b6040519081526020016101b2565b61020e6102343660046118f6565b6104b1565b600d546101e3906001600160a01b031681565b61020e61025a3660046118f6565b610541565b61020e61026d366004611932565b610561565b610218610280366004611954565b610751565b6101e3610293366004611897565b6109c4565b6102186102a6366004611987565b6109cf565b61020e610a17565b61020e6102c1366004611932565b610a2b565b6101a66102d43660046119a2565b610b59565b6007546001600160a01b03166101e3565b61020e6102f8366004611987565b610bb2565b6101c3610bdc565b61020e6103133660046119ce565b610beb565b61020e610326366004611a20565b610bf6565b6101c3610339366004611897565b610c0e565b61021861034c366004611987565b6001600160a01b03166000908152600c602052604090205490565b61037a610375366004611897565b610c19565b6040516101b29190611b34565b61020e610395366004611932565b610d2c565b6101a66103a8366004611b91565b610de5565b61020e6103bb366004611987565b610e13565b60006103cb82610e51565b92915050565b6060600080546103e090611bbb565b80601f016020809104026020016040519081016040528092919081815260200182805461040c90611bbb565b80156104595780601f1061042e57610100808354040283529160200191610459565b820191906000526020600020905b81548152906001019060200180831161043c57829003601f168201915b5050505050905090565b600061046e82610e76565b506000828152600460205260409020546001600160a01b03166103cb565b610497828233610eaf565b5050565b600060016009546104ac9190611c05565b905090565b6001600160a01b0382166104e057604051633250574960e11b8152600060048201526024015b60405180910390fd5b60006104ed838333610ebc565b9050836001600160a01b0316816001600160a01b03161461053b576040516364283d7b60e01b81526001600160a01b03808616600483015260248201849052821660448201526064016104d7565b50505050565b61055c83838360405180602001604052806000815250610bf6565b505050565b6000828152600b6020526040902054829060ff1661059557604051633772ce6f60e11b8152600481018290526024016104d7565b60648211156105ba57604051632f525d6960e11b8152600481018390526024016104d7565b6105c3836109c4565b6001600160a01b0316336001600160a01b0316141580156105ef5750600d546001600160a01b03163314155b801561060657506007546001600160a01b03163314155b156106265760405163472511eb60e11b81523360048201526024016104d7565b6000838152600a602052604081206002810154600490910154909160ff9091169061065085610ed1565b6000878152600a602052604090206002808201889055600490910180549293508392909160ff1990911690600190849081111561068f5761068f611afc565b02179055506000868152600a602090815260409182902042600690910155815185815290810187905287917f70bd899b1272d807e729bb84e4ab42fad9e647092507ce6ea4ca4cd9425402cc910160405180910390a28060028111156106f7576106f7611afc565b82600281111561070957610709611afc565b1461074957857f9bccf54d15e28729b8189c9d0c608d89b5c08e515fd4834292f7b2402c5fea4c8383604051610740929190611c18565b60405180910390a25b505050505050565b600061075b610efb565b610763610f28565b6001600160a01b03841661078a5760405163d92e233d60e01b815260040160405180910390fd5b826107a85760405163958a223960e01b815260040160405180910390fd5b60648211156107cd57604051632f525d6960e11b8152600481018390526024016104d7565b6001600160a01b0384166000908152600c602052604090205415610822576001600160a01b0384166000908152600c60205260409081902054905163254f23ad60e21b815260048101919091526024016104d7565b6009805490600061083283611c33565b9190505590506040518060e00160405280856001600160a01b031681526020018481526020018381526020016000815260200161086e84610ed1565b600281111561087f5761087f611afc565b815260200142815260200142815250600a600083815260200190815260200160002060008201518160000160006101000a8154816001600160a01b0302191690836001600160a01b0316021790555060208201518160010155604082015181600201556060820151816003015560808201518160040160006101000a81548160ff0219169083600281111561091657610916611afc565b021790555060a0820151600582015560c0909101516006909101556000818152600b60209081526040808320805460ff191660011790556001600160a01b0387168352600c909152902081905561096d8482610f52565b60408051848152602081018490526001600160a01b0386169183917fd2d56e0c7d06da0e44cbc054ba55111362d5ee44f2cb73feba25025e3b3f2680910160405180910390a36109bd6001600855565b9392505050565b60006103cb82610e76565b60006001600160a01b0382166109fb576040516322718ad960e21b8152600060048201526024016104d7565b506001600160a01b031660009081526003602052604090205490565b610a1f610efb565b610a296000610f6c565b565b8133610a36826109c4565b6001600160a01b031614610a6657604051631ce31d4960e31b8152336004820152602481018290526044016104d7565b6000838152600b6020526040902054839060ff16610a9a57604051633772ce6f60e11b8152600481018290526024016104d7565b82610ab85760405163958a223960e01b815260040160405180910390fd5b60026000858152600a602052604090206004015460ff166002811115610ae057610ae0611afc565b03610b0157604051636c0471ef60e11b8152600481018590526024016104d7565b6000848152600a60205260408082206001810180549087905542600690920191909155905190918591839188917f3973aa4be31d3fea29b77f1e10389e2eab8b8262a213a9375f072104a3bdeff39190a45050505050565b6000828152600b6020526040812054839060ff16610b8d57604051633772ce6f60e11b8152600481018290526024016104d7565b826001600160a01b0316610ba0856109c4565b6001600160a01b031614949350505050565b610bba610efb565b600d80546001600160a01b0319166001600160a01b0392909216919091179055565b6060600180546103e090611bbb565b610497338383610fbe565b610c018484846104b1565b61053b338585858561105d565b60606103cb82611186565b610c596040805160e08101825260008082526020820181905291810182905260608101829052906080820190815260200160008152602001600081525090565b6000828152600b6020526040902054829060ff16610c8d57604051633772ce6f60e11b8152600481018290526024016104d7565b6000838152600a6020908152604091829020825160e08101845281546001600160a01b031681526001820154928101929092526002808201549383019390935260038101546060830152600481015491929091608084019160ff90911690811115610cfa57610cfa611afc565b6002811115610d0b57610d0b611afc565b81526020016005820154815260200160068201548152505091505b50919050565b6000828152600b6020526040902054829060ff16610d6057604051633772ce6f60e11b8152600481018290526024016104d7565b6007546001600160a01b03163314801590610d865750600d546001600160a01b03163314155b15610da65760405163472511eb60e11b81523360048201526024016104d7565b6000838152600a602052604081206003018054849290610dc7908490611c4c565b909155505050600091825250600a6020526040902042600690910155565b6001600160a01b03918216600090815260056020908152604080832093909416825291909152205460ff1690565b610e1b610efb565b6001600160a01b038116610e4557604051631e4fbdf760e01b8152600060048201526024016104d7565b610e4e81610f6c565b50565b60006001600160e01b03198216632483248360e11b14806103cb57506103cb8261128f565b6000818152600260205260408120546001600160a01b0316806103cb57604051637e27328960e01b8152600481018490526024016104d7565b61055c83838360016112df565b6000610ec98484846113e5565b949350505050565b600060468210610ee357506000919050565b60328210610ef357506001919050565b506002919050565b6007546001600160a01b03163314610a295760405163118cdaa760e01b81523360048201526024016104d7565b600260085403610f4b57604051633ee5aeb560e01b815260040160405180910390fd5b6002600855565b6104978282604051806020016040528060008152506114de565b600780546001600160a01b038381166001600160a01b0319831681179093556040519116919082907f8be0079c531659141344cd1fd0a4f28419497f9722a3daafe3b4186f6b6457e090600090a35050565b6001600160a01b038216610ff057604051630b61174360e31b81526001600160a01b03831660048201526024016104d7565b6001600160a01b03838116600081815260056020908152604080832094871680845294825291829020805460ff191686151590811790915591519182527f17307eab39ab6107e8899845ad3d59bd9653f200f220920489ca2b5937696c31910160405180910390a3505050565b6001600160a01b0383163b1561117f57604051630a85bd0160e11b81526001600160a01b0384169063150b7a029061109f908890889087908790600401611c5f565b6020604051808303816000875af19250505080156110da575060408051601f3d908101601f191682019092526110d791810190611c9c565b60015b611143573d808015611108576040519150601f19603f3d011682016040523d82523d6000602084013e61110d565b606091505b50805160000361113b57604051633250574960e11b81526001600160a01b03851660048201526024016104d7565b805181602001fd5b6001600160e01b03198116630a85bd0160e11b1461074957604051633250574960e11b81526001600160a01b03851660048201526024016104d7565b5050505050565b606061119182610e76565b50600082815260066020526040812080546111ab90611bbb565b80601f01602080910402602001604051908101604052809291908181526020018280546111d790611bbb565b80156112245780601f106111f957610100808354040283529160200191611224565b820191906000526020600020905b81548152906001019060200180831161120757829003601f168201915b50505050509050600061124260408051602081019091526000815290565b90508051600003611254575092915050565b81511561128657808260405160200161126e929190611cb9565b60405160208183030381529060405292505050919050565b610ec9846114f6565b60006001600160e01b031982166380ac58cd60e01b14806112c057506001600160e01b03198216635b5e139f60e01b145b806103cb57506301ffc9a760e01b6001600160e01b03198316146103cb565b80806112f357506001600160a01b03821615155b156113b557600061130384610e76565b90506001600160a01b0383161580159061132f5750826001600160a01b0316816001600160a01b031614155b801561134257506113408184610de5565b155b1561136b5760405163a9fbf51f60e01b81526001600160a01b03841660048201526024016104d7565b81156113b35783856001600160a01b0316826001600160a01b03167f8c5be1e5ebec7d5bd14f71427d1e84f3dd0314c0f7b2291e5b200ac8c7c3b92560405160405180910390a45b505b5050600090815260046020526040902080546001600160a01b0319166001600160a01b0392909216919091179055565b6000828152600260205260408120546001600160a01b03908116908316156114125761141281848661156a565b6001600160a01b038116156114505761142f6000856000806112df565b6001600160a01b038116600090815260036020526040902080546000190190555b6001600160a01b0385161561147f576001600160a01b0385166000908152600360205260409020805460010190555b60008481526002602052604080822080546001600160a01b0319166001600160a01b0389811691821790925591518793918516917fddf252ad1be2c89b69c2b068fc378daa952ba7f163c4a11628f55a4df523b3ef91a4949350505050565b6114e883836115ce565b61055c33600085858561105d565b606061150182610e76565b50600061151960408051602081019091526000815290565b9050600081511161153957604051806020016040528060008152506109bd565b8061154384611633565b604051602001611554929190611cb9565b6040516020818303038152906040529392505050565b6115758383836116c6565b61055c576001600160a01b0383166115a357604051637e27328960e01b8152600481018290526024016104d7565b60405163177e802f60e01b81526001600160a01b0383166004820152602481018290526044016104d7565b6001600160a01b0382166115f857604051633250574960e11b8152600060048201526024016104d7565b600061160683836000610ebc565b90506001600160a01b0381161561055c576040516339e3563760e11b8152600060048201526024016104d7565b6060600061164083611729565b600101905060008167ffffffffffffffff81111561166057611660611a0a565b6040519080825280601f01601f19166020018201604052801561168a576020820181803683370190505b5090508181016020015b600019016f181899199a1a9b1b9c1cb0b131b232b360811b600a86061a8153600a850494508461169457509392505050565b60006001600160a01b03831615801590610ec95750826001600160a01b0316846001600160a01b0316148061170057506117008484610de5565b80610ec95750506000908152600460205260409020546001600160a01b03908116911614919050565b60008072184f03e93ff9f4daa797ed6e38ed64bf6a1f0160401b83106117685772184f03e93ff9f4daa797ed6e38ed64bf6a1f0160401b830492506040015b6d04ee2d6d415b85acef81000000008310611794576d04ee2d6d415b85acef8100000000830492506020015b662386f26fc1000083106117b257662386f26fc10000830492506010015b6305f5e10083106117ca576305f5e100830492506008015b61271083106117de57612710830492506004015b606483106117f0576064830492506002015b600a83106103cb5760010192915050565b6001600160e01b031981168114610e4e57600080fd5b60006020828403121561182957600080fd5b81356109bd81611801565b60005b8381101561184f578181015183820152602001611837565b50506000910152565b60008151808452611870816020860160208601611834565b601f01601f19169290920160200192915050565b6020815260006109bd6020830184611858565b6000602082840312156118a957600080fd5b5035919050565b80356001600160a01b03811681146118c757600080fd5b919050565b600080604083850312156118df57600080fd5b6118e8836118b0565b946020939093013593505050565b60008060006060848603121561190b57600080fd5b611914846118b0565b9250611922602085016118b0565b9150604084013590509250925092565b6000806040838503121561194557600080fd5b50508035926020909101359150565b60008060006060848603121561196957600080fd5b611972846118b0565b95602085013595506040909401359392505050565b60006020828403121561199957600080fd5b6109bd826118b0565b600080604083850312156119b557600080fd5b823591506119c5602084016118b0565b90509250929050565b600080604083850312156119e157600080fd5b6119ea836118b0565b9150602083013580151581146119ff57600080fd5b809150509250929050565b634e487b7160e01b600052604160045260246000fd5b60008060008060808587031215611a3657600080fd5b611a3f856118b0565b9350611a4d602086016118b0565b925060408501359150606085013567ffffffffffffffff80821115611a7157600080fd5b818701915087601f830112611a8557600080fd5b813581811115611a9757611a97611a0a565b604051601f8201601f19908116603f01168101908382118183101715611abf57611abf611a0a565b816040528281528a6020848701011115611ad857600080fd5b82602086016020830137600060208483010152809550505050505092959194509250565b634e487b7160e01b600052602160045260246000fd5b60038110611b3057634e487b7160e01b600052602160045260246000fd5b9052565b81516001600160a01b0316815260208083015190820152604080830151908201526060808301519082015260808083015160e0830191611b7690840182611b12565b5060a083015160a083015260c083015160c083015292915050565b60008060408385031215611ba457600080fd5b611bad836118b0565b91506119c5602084016118b0565b600181811c90821680611bcf57607f821691505b602082108103610d2657634e487b7160e01b600052602260045260246000fd5b634e487b7160e01b600052601160045260246000fd5b818103818111156103cb576103cb611bef565b60408101611c268285611b12565b6109bd6020830184611b12565b600060018201611c4557611c45611bef565b5060010190565b808201808211156103cb576103cb611bef565b6001600160a01b0385811682528416602082015260408101839052608060608201819052600090611c9290830184611858565b9695505050505050565b600060208284031215611cae57600080fd5b81516109bd81611801565b60008351611ccb818460208801611834565b835190830190611cdf818360208801611834565b0194935050505056fea2646970667358221220c51bd6a8db107be2674fd73a6a4c9b4b8878770dc2ee418d61dda2a994b8a7c564736f6c63430008180033","linkReferences":{}},"methodIdentifiers":{"addAvatarBalance(uint256,uint256)":"dd31e6f2","approve(address,uint256)":"095ea7b3","balanceOf(address)":"70a08231","circuitGuard()":"2fba1d72","createAvatar(address,bytes32,uint256)":"580cb973","getApproved(uint256)":"081812fc","getAvatarByOwner(address)":"ce6b27fa","getAvatarProfile(uint256)":"d426d578","isApprovedForAll(address,address)":"e985e9c5","name()":"06fdde03","owner()":"8da5cb5b","ownerOf(uint256)":"6352211e","renounceOwnership()":"715018a6","safeTransferFrom(address,address,uint256)":"42842e0e","safeTransferFrom(address,address,uint256,bytes)":"b88d4fde","setApprovalForAll(address,bool)":"a22cb465","setCircuitGuard(address)":"8e4ead37","supportsInterface(bytes4)":"01ffc9a7","symbol()":"95d89b41","tokenURI(uint256)":"c87b56dd","totalSupply()":"18160ddd","transferFrom(address,address,uint256)":"23b872dd","transferOwnership(address)":"f2fde38b","updateCognitionRoot(uint256,bytes32)":"7f964b29","updateResonanceScore(uint256,uint256)":"57092dcf","verifyCognitiveOwnership(uint256,address)":"807dfa0c"},"id":50}