{"abi":[{"type":"constructor","inputs":[{"name":"_stakeToken","type":"address","internalType":"address"},{"name":"_slashRecipient","type":"address","internalType":"address"}],"stateMutability":"nonpayable"},{"type":"function","name":"DEFAULT_ADMIN_ROLE","inputs":[],"outputs":[{"name":"","type":"bytes32","internalType":"bytes32"}],"stateMutability":"view"},{"type":"function","name":"MAX_REQUEST_TIMEOUT","inputs":[],"outputs":[{"name":"","type":"uint256","internalType":"uint256"}],"stateMutability":"view"},{"type":"function","name":"MIN_STAKE","inputs":[],"outputs":[{"name":"","type":"uint256","internalType":"uint256"}],"stateMutability":"view"},{"type":"function","name":"SLASHER_ROLE","inputs":[],"outputs":[{"name":"","type":"bytes32","internalType":"bytes32"}],"stateMutability":"view"},{"type":"function","name":"SLASH_BPS","inputs":[],"outputs":[{"name":"","type":"uint256","internalType":"uint256"}],"stateMutability":"view"},{"type":"function","name":"getModelProviders","inputs":[{"name":"modelId","type":"bytes32","internalType":"bytes32"}],"outputs":[{"name":"providerIds","type":"bytes32[]","internalType":"bytes32[]"}],"stateMutability":"view"},{"type":"function","name":"getProvider","inputs":[{"name":"providerId","type":"bytes32","internalType":"bytes32"}],"outputs":[{"name":"info","type":"tuple","internalType":"struct IMCPRouter.ProviderInfo","components":[{"name":"providerId","type":"bytes32","internalType":"bytes32"},{"name":"provider","type":"address","internalType":"address"},{"name":"stake","type":"uint256","internalType":"uint256"},{"name":"reputation","type":"uint256","internalType":"uint256"},{"name":"active","type":"bool","internalType":"bool"}]}],"stateMutability":"view"},{"type":"function","name":"getProviderByAddress","inputs":[{"name":"provider","type":"address","internalType":"address"}],"outputs":[{"name":"providerId","type":"bytes32","internalType":"bytes32"}],"stateMutability":"view"},{"type":"function","name":"getRequest","inputs":[{"name":"requestId","type":"bytes32","internalType":"bytes32"}],"outputs":[{"name":"context","type":"tuple","internalType":"struct IMCPRouter.RequestContext","components":[{"name":"requestId","type":"bytes32","internalType":"bytes32"},{"name":"modelId","type":"bytes32","internalType":"bytes32"},{"name":"providerId","type":"bytes32","internalType":"bytes32"},{"name":"requester","type":"address","internalType":"address"},{"name":"createdAt","type":"uint256","internalType":"uint256"},{"name":"fulfilled","type":"bool","internalType":"bool"}]}],"stateMutability":"view"},{"type":"function","name":"getRoleAdmin","inputs":[{"name":"role","type":"bytes32","internalType":"bytes32"}],"outputs":[{"name":"","type":"bytes32","internalType":"bytes32"}],"stateMutability":"view"},{"type":"function","name":"grantRole","inputs":[{"name":"role","type":"bytes32","internalType":"bytes32"},{"name":"account","type":"address","internalType":"address"}],"outputs":[],"stateMutability":"nonpayable"},{"type":"function","name":"hasRole","inputs":[{"name":"role","type":"bytes32","internalType":"bytes32"},{"name":"account","type":"address","internalType":"address"}],"outputs":[{"name":"","type":"bool","internalType":"bool"}],"stateMutability":"view"},{"type":"function","name":"registerProvider","inputs":[{"name":"providerId","type":"bytes32","internalType":"bytes32"},{"name":"provider","type":"address","internalType":"address"},{"name":"stake","type":"uint256","internalType":"uint256"}],"outputs":[],"stateMutability":"nonpayable"},{"type":"function","name":"renounceRole","inputs":[{"name":"role","type":"bytes32","internalType":"bytes32"},{"name":"callerConfirmation","type":"address","internalType":"address"}],"outputs":[],"stateMutability":"nonpayable"},{"type":"function","name":"revokeRole","inputs":[{"name":"role","type":"bytes32","internalType":"bytes32"},{"name":"account","type":"address","internalType":"address"}],"outputs":[],"stateMutability":"nonpayable"},{"type":"function","name":"routeRequest","inputs":[{"name":"modelId","type":"bytes32","internalType":"bytes32"},{"name":"input","type":"bytes","internalType":"bytes"}],"outputs":[{"name":"requestId","type":"bytes32","internalType":"bytes32"}],"stateMutability":"nonpayable"},{"type":"function","name":"slashProvider","inputs":[{"name":"providerId","type":"bytes32","internalType":"bytes32"},{"name":"reason","type":"bytes32","internalType":"bytes32"}],"outputs":[],"stateMutability":"nonpayable"},{"type":"function","name":"slashRecipient","inputs":[],"outputs":[{"name":"","type":"address","internalType":"address"}],"stateMutability":"view"},{"type":"function","name":"stakeToken","inputs":[],"outputs":[{"name":"","type":"address","internalType":"contract IERC20"}],"stateMutability":"view"},{"type":"function","name":"submitResponse","inputs":[{"name":"requestId","type":"bytes32","internalType":"bytes32"},{"name":"response","type":"bytes","internalType":"bytes"}],"outputs":[],"stateMutability":"nonpayable"},{"type":"function","name":"supportsInterface","inputs":[{"name":"interfaceId","type":"bytes4","internalType":"bytes4"}],"outputs":[{"name":"","type":"bool","internalType":"bool"}],"stateMutability":"view"},{"type":"function","name":"totalRequests","inputs":[],"outputs":[{"name":"","type":"uint256","internalType":"uint256"}],"stateMutability":"view"},{"type":"function","name":"totalSlashed","inputs":[],"outputs":[{"name":"","type":"uint256","internalType":"uint256"}],"stateMutability":"view"},{"type":"event","name":"ProviderRegistered","inputs":[{"name":"providerId","type":"bytes32","indexed":true,"internalType":"bytes32"},{"name":"provider","type":"address","indexed":true,"internalType":"address"},{"name":"stake","type":"uint256","indexed":false,"internalType":"uint256"}],"anonymous":false},{"type":"event","name":"ProviderSlashed","inputs":[{"name":"providerId","type":"bytes32","indexed":true,"internalType":"bytes32"},{"name":"amount","type":"uint256","indexed":false,"internalType":"uint256"},{"name":"reason","type":"bytes32","indexed":false,"internalType":"bytes32"}],"anonymous":false},{"type":"event","name":"RequestRouted","inputs":[{"name":"requestId","type":"bytes32","indexed":true,"internalType":"bytes32"},{"name":"modelId","type":"bytes32","indexed":true,"internalType":"bytes32"},{"name":"providerId","type":"bytes32","indexed":true,"internalType":"bytes32"}],"anonymous":false},{"type":"event","name":"ResponseSubmitted","inputs":[{"name":"requestId","type":"bytes32","indexed":true,"internalType":"bytes32"},{"name":"providerId","type":"bytes32","indexed":true,"internalType":"bytes32"}],"anonymous":false},{"type":"event","name":"RoleAdminChanged","inputs":[{"name":"role","type":"bytes32","indexed":true,"internalType":"bytes32"},{"name":"previousAdminRole","type":"bytes32","indexed":true,"internalType":"bytes32"},{"name":"newAdminRole","type":"bytes32","indexed":true,"internalType":"bytes32"}],"anonymous":false},{"type":"event","name":"RoleGranted","inputs":[{"name":"role","type":"bytes32","indexed":true,"internalType":"bytes32"},{"name":"account","type":"address","indexed":true,"internalType":"address"},{"name":"sender","type":"address","indexed":true,"internalType":"address"}],"anonymous":false},{"type":"event","name":"RoleRevoked","inputs":[{"name":"role","type":"bytes32","indexed":true,"internalType":"bytes32"},{"name":"account","type":"address","indexed":true,"internalType":"address"},{"name":"sender","type":"address","indexed":true,"internalType":"address"}],"anonymous":false},{"type":"error","name":"AccessControlBadConfirmation","inputs":[]},{"type":"error","name":"AccessControlUnauthorizedAccount","inputs":[{"name":"account","type":"address","internalType":"address"},{"name":"neededRole","type":"bytes32","internalType":"bytes32"}]},{"type":"error","name":"InsufficientStake","inputs":[{"name":"providerId","type":"bytes32","internalType":"bytes32"},{"name":"required","type":"uint256","internalType":"uint256"},{"name":"actual","type":"uint256","internalType":"uint256"}]},{"type":"error","name":"NoProviderAvailable","inputs":[{"name":"modelId","type":"bytes32","internalType":"bytes32"}]},{"type":"error","name":"ProviderAlreadyRegistered","inputs":[{"name":"providerId","type":"bytes32","internalType":"bytes32"}]},{"type":"error","name":"ProviderNotFound","inputs":[{"name":"providerId","type":"bytes32","internalType":"bytes32"}]},{"type":"error","name":"RequestNotFound","inputs":[{"name":"requestId","type":"bytes32","internalType":"bytes32"}]},{"type":"error","name":"ResponseAlreadySubmitted","inputs":[{"name":"requestId","type":"bytes32","internalType":"bytes32"}]},{"type":"error","name":"SlashingFailed","inputs":[{"name":"providerId","type":"bytes32","internalType":"bytes32"}]},{"type":"error","name":"TransferFailed","inputs":[]},{"type":"error","name":"Unauthorized","inputs":[{"name":"caller","type":"address","internalType":"address"}]},{"type":"error","name":"ZeroAddress","inputs":[]}],"bytecode":{"object":"0x60806040523480156200001157600080fd5b5060405162001697380380620016978339810160408190526200003491620001b0565b6001600160a01b03821615806200005257506001600160a01b038116155b15620000715760405163d92e233d60e01b815260040160405180910390fd5b600780546001600160a01b038085166001600160a01b0319928316179092556008805492841692909116919091179055620000ae600033620000e4565b50620000db7f12b42e8a160f6064dc959c6f251e3af0750ad213dbecf573b4710d67d6c28e3933620000e4565b505050620001e8565b6000828152602081815260408083206001600160a01b038516845290915281205460ff1662000189576000838152602081815260408083206001600160a01b03861684529091529020805460ff19166001179055620001403390565b6001600160a01b0316826001600160a01b0316847f2f8788117e7eff1d82e926ec794901d17c78024a50270940304540a733656f0d60405160405180910390a45060016200018d565b5060005b92915050565b80516001600160a01b0381168114620001ab57600080fd5b919050565b60008060408385031215620001c457600080fd5b620001cf8362000193565b9150620001df6020840162000193565b90509250929050565b61149f80620001f86000396000f3fe608060405234801561001057600080fd5b506004361061014d5760003560e01c80638aea61dc116100c3578063b1a19a671161007c578063b1a19a6714610321578063cb1c2b5c14610341578063cfd17c9a14610351578063d547741f14610364578063da80535514610377578063fb1e61ca1461038a57600080fd5b80638aea61dc146102d857806391d14854146102e1578063933cd8de146102f457806398062380146102fd578063a201bbdd14610310578063a217fddf1461031957600080fd5b806333c0950a1161011557806333c0950a146101fc57806336568abe146102575780634ee47f661461026a5780635095af641461027d57806351ed6a30146102a45780636172890c146102cf57600080fd5b806301ffc9a7146101525780630548c0991461017a5780632335bde01461019b578063248a9ca3146101c45780632f2ff15d146101e7575b600080fd5b6101656101603660046111c6565b6103ef565b60405190151581526020015b60405180910390f35b61018d6101883660046111f7565b610426565b604051908152602001610171565b61018d6101a936600461128f565b6001600160a01b031660009081526002602052604090205490565b61018d6101d23660046112aa565b60009081526020819052604090206001015490565b6101fa6101f53660046112c3565b6105c0565b005b61020f61020a3660046112aa565b6105eb565b6040516101719190815181526020808301516001600160a01b031690820152604080830151908201526060808301519082015260809182015115159181019190915260a00190565b6101fa6102653660046112c3565b6106c3565b6101fa6102783660046112ef565b6106fb565b61018d7f12b42e8a160f6064dc959c6f251e3af0750ad213dbecf573b4710d67d6c28e3981565b6007546102b7906001600160a01b031681565b6040516001600160a01b039091168152602001610171565b61018d610e1081565b61018d60055481565b6101656102ef3660046112c3565b61091b565b61018d61138881565b6101fa61030b3660046111f7565b610944565b61018d60065481565b61018d600081565b61033461032f3660046112aa565b610ab9565b6040516101719190611311565b61018d683635c9adc5dea0000081565b6101fa61035f366004611355565b610b1b565b6101fa6103723660046112c3565b610ea3565b6008546102b7906001600160a01b031681565b61039d6103983660046112aa565b610ec8565b60405161017191908151815260208083015190820152604080830151908201526060808301516001600160a01b0316908201526080808301519082015260a09182015115159181019190915260c00190565b60006001600160e01b03198216637965db0b60e01b148061042057506301ffc9a760e01b6001600160e01b03198316145b92915050565b60008061043285610f8f565b90508061045a57604051631b4811cd60e21b8152600481018690526024015b60405180910390fd5b8481334260096000815480929190610471906113a0565b909155506040805160208101969096528501939093526bffffffffffffffffffffffff19606092831b16918401919091526074830152609482015260b40160408051808303601f19018152828252805160209182012060c08401835280845281840189815284840186815233606087019081524260808801908152600060a0890181815286825260038089528983209a518b5595516001808c0191909155945160028b0155925194890180546001600160a01b0319166001600160a01b03909616959095179094555160048089019190915590516005978801805460ff19169115159190911790558b835284529381208054948501815581529182209092018490558254919450909190610584836113a0565b91905055508085837f22f04ce183d4d9a8c913614fbb45eab6e760bad4301adecb427a9b1bb11ff70c60405160405180910390a4509392505050565b6000828152602081905260409020600101546105db8161107f565b6105e5838361108c565b50505050565b6040805160a08101825260008082526020820181905291810182905260608101829052608081019190915260008281526001602052604090206004015460ff161580156106475750600082815260016020526040902060020154155b156106675760405162b4805560e71b815260048101839052602401610451565b50600090815260016020818152604092839020835160a08101855281548152928101546001600160a01b0316918301919091526002810154928201929092526003820154606082015260049091015460ff161515608082015290565b6001600160a01b03811633146106ec5760405163334bd91960e11b815260040160405180910390fd5b6106f6828261111e565b505050565b7f12b42e8a160f6064dc959c6f251e3af0750ad213dbecf573b4710d67d6c28e396107258161107f565b60008381526001602052604090206004015460ff166107595760405162b4805560e71b815260048101849052602401610451565b600083815260016020526040812060028101549091906127109061078090611388906113b9565b61078a91906113d0565b9050806000036107b057604051633707273160e01b815260048101869052602401610451565b808260020160008282546107c491906113f2565b909155505060038201546103e810156107f8576103e88260030160008282546107ed91906113f2565b9091555061080c9050565b6000600383015560048201805460ff191690555b683635c9adc5dea000008260020154101561082e5760048201805460ff191690555b60075460085460405163a9059cbb60e01b81526001600160a01b0391821660048201526024810184905291169063a9059cbb906044016020604051808303816000875af1158015610883573d6000803e3d6000fd5b505050506040513d601f19601f820116820180604052508101906108a79190611405565b6108c4576040516312171d8360e31b815260040160405180910390fd5b600680549060006108d4836113a0565b9091555050604080518281526020810186905286917f3d7650121cc2391829bc1d087f45dace889662d3ed217b765a20c3ba3dbfbf1b910160405180910390a25050505050565b6000918252602082815260408084206001600160a01b0393909316845291905290205460ff1690565b60008381526003602052604090205461097357604051630d1c383160e11b815260048101849052602401610451565b60008381526003602052604090206005015460ff16156109a95760405163468ae03160e01b815260048101849052602401610451565b6000838152600360209081526040808320600281015480855260019384905291909320909101546001600160a01b031633146109fa5760405163472511eb60e11b8152336004820152602401610451565b610e108260040154610a0c9190611427565b421115610a2f57604051630d1c383160e11b815260048101869052602401610451565b60058201805460ff19166001908117909155600082815260209190915260409020600301546127101115610a85576000818152600160205260408120600301805460649290610a7f908490611427565b90915550505b604051819086907f75ea25afe001575158d302e0701b884025943094996c099e0aaab65341ee2cf990600090a35050505050565b600081815260046020908152604091829020805483518184028101840190945280845260609392830182828015610b0f57602002820191906000526020600020905b815481526020019060010190808311610afb575b50505050509050919050565b60008381526001602052604090206004015460ff1615610b51576040516316e2c65960e01b815260048101849052602401610451565b6001600160a01b038216610b785760405163d92e233d60e01b815260040160405180910390fd5b683635c9adc5dea00000811015610bbb5760405163e64dbc9160e01b815260048101849052683635c9adc5dea00000602482015260448101829052606401610451565b6001600160a01b03821660009081526002602052604090205415610bf5576040516316e2c65960e01b815260048101849052602401610451565b6007546040516370a0823160e01b81523060048201526000916001600160a01b0316906370a0823190602401602060405180830381865afa158015610c3e573d6000803e3d6000fd5b505050506040513d601f19601f82011682018060405250810190610c62919061143a565b6007546040516323b872dd60e01b8152336004820152306024820152604481018590529192506001600160a01b0316906323b872dd906064016020604051808303816000875af1158015610cba573d6000803e3d6000fd5b505050506040513d601f19601f82011682018060405250810190610cde9190611405565b610cfb576040516312171d8360e31b815260040160405180910390fd5b6007546040516370a0823160e01b815230600482015260009183916001600160a01b03909116906370a0823190602401602060405180830381865afa158015610d48573d6000803e3d6000fd5b505050506040513d601f19601f82011682018060405250810190610d6c919061143a565b610d7691906113f2565b90506040518060a00160405280868152602001856001600160a01b03168152602001828152602001611388815260200160011515815250600160008781526020019081526020016000206000820151816000015560208201518160010160006101000a8154816001600160a01b0302191690836001600160a01b03160217905550604082015181600201556060820151816003015560808201518160040160006101000a81548160ff0219169083151502179055509050508460026000866001600160a01b03166001600160a01b0316815260200190815260200160002081905550836001600160a01b0316857fd817d58b3dcc389b30504d16c7ee8771305369aec75928add599811a987dc81d83604051610e9491815260200190565b60405180910390a35050505050565b600082815260208190526040902060010154610ebe8161107f565b6105e5838361111e565b6040805160c081018252600080825260208201819052918101829052606081018290526080810182905260a0810191909152600082815260036020526040902054610f2957604051630d1c383160e11b815260048101839052602401610451565b50600090815260036020818152604092839020835160c08101855281548152600182015492810192909252600281015493820193909352908201546001600160a01b031660608201526004820154608082015260059091015460ff16151560a082015290565b600081815260046020526040812080548203610fae5750600092915050565b6000805b825481101561107757600060016000858481548110610fd357610fd3611453565b600091825260208083209091015483528201929092526040019020600481015490915060ff16611003575061106f565b6000683635c9adc5dea00000826002015461101e91906113d0565b90508060000361102c575060015b600081836003015461103e91906113b9565b90508481111561106b5780945085848154811061105d5761105d611453565b906000526020600020015496505b5050505b600101610fb2565b505050919050565b6110898133611189565b50565b6000611098838361091b565b611116576000838152602081815260408083206001600160a01b03861684529091529020805460ff191660011790556110ce3390565b6001600160a01b0316826001600160a01b0316847f2f8788117e7eff1d82e926ec794901d17c78024a50270940304540a733656f0d60405160405180910390a4506001610420565b506000610420565b600061112a838361091b565b15611116576000838152602081815260408083206001600160a01b0386168085529252808320805460ff1916905551339286917ff6391f5c32d9c69d2a47ea670b442974b53935d1edc7fd64eb21e047a839171b9190a4506001610420565b611193828261091b565b6111c25760405163e2517d3f60e01b81526001600160a01b038216600482015260248101839052604401610451565b5050565b6000602082840312156111d857600080fd5b81356001600160e01b0319811681146111f057600080fd5b9392505050565b60008060006040848603121561120c57600080fd5b83359250602084013567ffffffffffffffff8082111561122b57600080fd5b818601915086601f83011261123f57600080fd5b81358181111561124e57600080fd5b87602082850101111561126057600080fd5b6020830194508093505050509250925092565b80356001600160a01b038116811461128a57600080fd5b919050565b6000602082840312156112a157600080fd5b6111f082611273565b6000602082840312156112bc57600080fd5b5035919050565b600080604083850312156112d657600080fd5b823591506112e660208401611273565b90509250929050565b6000806040838503121561130257600080fd5b50508035926020909101359150565b6020808252825182820181905260009190848201906040850190845b818110156113495783518352928401929184019160010161132d565b50909695505050505050565b60008060006060848603121561136a57600080fd5b8335925061137a60208501611273565b9150604084013590509250925092565b634e487b7160e01b600052601160045260246000fd5b6000600182016113b2576113b261138a565b5060010190565b80820281158282048414176104205761042061138a565b6000826113ed57634e487b7160e01b600052601260045260246000fd5b500490565b818103818111156104205761042061138a565b60006020828403121561141757600080fd5b815180151581146111f057600080fd5b808201808211156104205761042061138a565b60006020828403121561144c57600080fd5b5051919050565b634e487b7160e01b600052603260045260246000fdfea264697066735822122050e4963f65de5be0e52d86d4f95bab23e44adc4f8e2e03786d2a34edd1b10f1764736f6c63430008180033","linkReferences":{}},"methodIdentifiers":{"DEFAULT_ADMIN_ROLE()":"a217fddf","MAX_REQUEST_TIMEOUT()":"6172890c","MIN_STAKE()":"cb1c2b5c","SLASHER_ROLE()":"5095af64","SLASH_BPS()":"933cd8de","getModelProviders(bytes32)":"b1a19a67","getProvider(bytes32)":"33c0950a","getProviderByAddress(address)":"2335bde0","getRequest(bytes32)":"fb1e61ca","getRoleAdmin(bytes32)":"248a9ca3","grantRole(bytes32,address)":"2f2ff15d","hasRole(bytes32,address)":"91d14854","registerProvider(bytes32,address,uint256)":"cfd17c9a","renounceRole(bytes32,address)":"36568abe","revokeRole(bytes32,address)":"d547741f","routeRequest(bytes32,bytes)":"0548c099","slashProvider(bytes32,bytes32)":"4ee47f66","slashRecipient()":"da805355","stakeToken()":"51ed6a30","submitResponse(bytes32,bytes)":"98062380","supportsInterface(bytes4)":"01ffc9a7","totalRequests()":"8aea61dc","totalSlashed()":"a201bbdd"},"id":56}